:100000000C9434000C9451000C9451000C94510049
:100010000C9451000C9451000C9451000C9451001C
:100020000C9451000C9451000C9451000C9451000C
:100030000C9451000C9451000C9451000C945100FC
:100040000C9451000C9451000C9451000C945100EC
:100050000C9451000C94D4000C9451000C94510059
:100060000C9451000C94510011241FBECFEFD8E026
:10007000DEBFCDBF11E0A0E0B1E0EAECF6E102C0E6
:1000800005900D92A033B107D9F721E0A0E3B1E0CC
:1000900001C01D92A735B207E1F70E949C080C949D
:1000A000630B0C94000017B818B808958FE880937C
:1000B0007A0083B7826083BF089583B7817F8260AF
:1000C00083BF83B7816083BF889583B78E7F83BFEB
:1000D0000895883050F480937C008FE99FE0019769
:1000E000F1F700C000000E945D0008958F929F927A
:1000F000AF92BF92DF92EF92FF920F931F93CF9335
:10010000DF93D82E062F10E01016110634F5C1E04B
:10011000D0E0812C912C5401E82EF12CC701880FDE
:10012000991F9C012F5A3E4F79018D2D0E94690025
:10013000F70140815181BA0180E090E00E94080AF5
:100140009B01AC01C501B4010E94EF084B015C01A9
:1001500021960C171D074CF703C0812C912C5401DC
:10016000CD2DD0E0B801110F880B990B0E940A0A1F
:100170009B01AC01C501B4010E9460090E94D9092C
:10018000CC0FDD1FCF5ADE4F798368838881998138
:10019000DF91CF911F910F91FF90EF90DF90BF9073
:1001A000AF909F908F9008951F920F920FB60F926D
:1001B00011242F933F934F938F939F93EF93FF932C
:1001C000E0917C004091780080917900EF70F0E040
:1001D00021E030E0811102C020E030E0EE0FFF1F8F
:1001E000EF5AFE4F3183208320813181322F222725
:1001F0003183208390E0982F8827840F911D91836D
:100200008083FF91EF919F918F914F913F912F911B
:100210000F900FBE0F901F9018956AE080E00E942B
:100220007600BC0180E090E00E94080A27EE3BEFD8
:1002300049EF5FE30E94BF0A2AE939E949E95EE331
:100240000E94EF082091300130913101409132013C
:10025000509133010E94EF0860933C0170933D017F
:1002600080933E0190933F0108956AE081E00E94EF
:100270007600BC0180E090E00E94080A2CEE31E597
:100280004AEE51E40E94BF0A60934001709341011D
:100290008093420190934301089520913C01309155
:1002A0003D0140913E0150913F01609140017091AC
:1002B000410180914201909143010E94BF0A20E0D8
:1002C00030E04AE754E40E9460096093380170937B
:1002D000390180933A0190933B0108956AE082E0EE
:1002E0000E947600BC0180E090E00E94080A20E0B5
:1002F00030E040EF50E40E94BF0A609334017093F5
:10030000350180933601909337010895EF92FF9263
:100310000F931F9320913C0130913D0140913E018C
:1003200050913F010F2EF1E0EF2EF1E0FF2EF02D66
:1003300000E011E00E948D071F910F91FF90EF9058
:100340000895EF92FF920F931F93209140013091F7
:10035000410140914201509143010F2EF4E0EF2EF4
:10036000F1E0FF2EF02D03E011E00E948D071F91B8
:100370000F91FF90EF900895EF92FF920F931F93CC
:10038000209138013091390140913A0150913B015F
:100390000F2EF7E0EF2EF1E0FF2EF02D06E011E03A
:1003A0000E948D071F910F91FF90EF900895EF929B
:1003B000FF920F931F9320913401309135014091AA
:1003C0003601509137010F2EF4E0EF2EF1E0FF2EB1
:1003D000F02D03E011E00E948D071F910F91FF9017
:1003E000EF900895982F881F8827881F96FD02C0D8
:1003F00020E001C022E0822B95FD02C020E001C078
:1004000024E0822B94FD02C020E001C028E0822B72
:1004100093FD02C020E001C020E1822B92FD02C0CA
:1004200020E001C020E2822B91FD02C020E001C04B
:1004300020E4822B90FD02C090E001C090E8892B5F
:100440000895CF93C82F807F0E94F201880F880FF4
:10045000809344019BB1937C9BB98BB190914401F3
:10046000982B9BB95F985E9A8FE19EE40197F1F714
:1004700000C000005E988C2F8295807F0E94F20160
:100480009BB1937C9BB99BB1880F880F982B9BB92C
:100490005F985E9A8FE19EE40197F1F700C000003B
:1004A0005E98CF910895CF93C82F807F0E94F2016C
:1004B0009BB1937C9BB99BB1880F880F982B9BB9FC
:1004C0005F9A5E9A8FE19EE40197F1F700C0000009
:1004D0005E988C2F8295807F0E94F2019BB1937C65
:1004E0009BB99BB1880F880F982B9BB95F9A5E9A36
:1004F0008FE19EE40197F1F700C000005E98CF9174
:1005000008958AB18C6F8AB98BB184708BB90895C4
:1005100080E80E9421020895CF93DF93EC01888147
:10052000882331F021960E94530289918111FBCFDB
:10053000DF91CF910895813019F0823031F0089524
:100540008FE7860F0E94210208958FEB860F0E948D
:1005500021020895CF93DF93EA010E949B028881D4
:10056000882331F021960E94530289918111FBCF9B
:10057000DF91CF9108950F931F93CF93DF938A015B
:10058000E901882311F0611103C00E94880202C0B2
:100590000E949B02C530D105C9F49801329522957D
:1005A0002F7023273F702327A7E4B3E00E94400B5E
:1005B000969587959695879596958795C0969093ED
:1005C0004601809345010E94530204C0C430D10506
:1005D00009F0C3C09801369527953695279536952D
:1005E0002795A5ECB0E20E94400BAC0152954295D4
:1005F0004F7045275F7045275093500140934F013E
:100600009A01ADECBCEC0E94400B969587959695AF
:100610008795969587959C01220F331F880F991F08
:10062000880F991F880F991F820F931F9A01281B0B
:10063000390BC901C09690934801809347010E94ED
:10064000530298013695279536952795ABE7B4E187
:100650000E94400BAC015695479550935001409332
:100660004F019A01ADECBCEC0E94400B969587952A
:1006700096958795969587959C01220F331F880F35
:10068000991F880F991F880F991F820F931F9A0136
:10069000281B390BC901C09690934A0180934901E8
:1006A0000E94530204C0C230D10509F05BC098011A
:1006B000ADECBCEC0E94400BAC01569547955695AD
:1006C0004795569547955093500140934F019A0195
:1006D0000E94400B96958795969587959695879558
:1006E0009C01220F331F880F991F880F991F880FB5
:1006F000991F820F931F9A01281B390BC901C096BD
:1007000090934C0180934B010E9453029801ADECF1
:10071000BCEC0E94400B969587959695879596958B
:1007200087959C01220F331F880F991F880F991FEF
:10073000880F991F820F931F9801281B390BC9013D
:10074000C09690934E0180934D010E9453022697CC
:100750006CF085E40E94530209C0C330D10509F052
:10076000A2CF6FCFC130D10591F7D0CFDF91CF911C
:100770001F910F910895CF92DF92EF92FF920F9306
:100780001F93CF936A017901882311F0611103C08F
:100790000E94880202C00E949B0225E0E216F1043A
:1007A000F1F49601329522952F7023273F7023276D
:1007B000A7E4B3E00E94400B9695879596958795A0
:1007C00096958795C0969093460180934501803316
:1007D000910509F476C00E945302C1E073C034E071
:1007E000E316F10409F0DCC021C1CC2309F4A4C054
:1007F00001C0C0E00E945302CF5F9EC0CC2309F429
:10080000D5C001C0C0E00E945302CF5FCFC082E0DC
:10081000E816F10409F0FCC079C1CC2339F001C01D
:10082000C0E00E945302CF5F01C0C0E09601ADEC72
:10083000BCEC0E94400B969587959695879596956A
:1008400087959C01220F331F880F991F880F991FCE
:10085000880F991F820F931FF601E81BF90BCF0138
:10086000C09690934E0180934D010E945302CF5F3A
:10087000F6E0EF16F1041CF085E40E945302F80143
:100880008081882309F4CBC00F5F1F4F0E94530261
:10089000CF5FFFEFEF1AFF0AF80181918F018111FD
:1008A000F5CF8C2F90E08E159F050CF062C180E291
:1008B0000E945302CF5F8C2F90E08E159F05B9F7F1
:1008C00058C1C0E0960136952795369527953695FF
:1008D0002795A5ECB0E20E94400BAC0152954295E1
:1008E0004F7045275F7045275093500140934F014B
:1008F0009A01ADECBCEC0E94400B969587959695BD
:100900008795969587959C01220F331F880F991F15
:10091000880F991F880F991F820F931F9A01281B18
:10092000390BC901C09690934801809347018033E9
:10093000910509F05FCF59CF9601369527953695E9
:100940002795ABE7B4E10E94400BAC015695479563
:100950005093500140934F019A01ADECBCEC0E94C2
:10096000400B9695879596958795969587959C01CA
:10097000220F331F880F991F880F991F880F991F07
:10098000820F931FFA01E81BF90BCF01C0969093D9
:100990004A01809349018033910509F034CF2ECF6D
:1009A000F3E0EF16F10409F032CF7BC09601ADEC15
:1009B000BCEC0E94400BAC01569547955695479567
:1009C000569547955093500140934F019A010E94CC
:1009D000400B9695879596958795969587959C015A
:1009E000220F331F880F991F880F991F880F991F97
:1009F000820F931F9A01281B390BC901C09690934F
:100A00004C0180934B018033910509F00ACF05CF4B
:100A100031E0E316F10409F408CFC0E029CF8C2FB0
:100A200090E08E159F050CF442CFA3C09601369539
:100A300027953695279536952795A5ECB0E20E9427
:100A4000400BAC01529542954F7045275F7045278A
:100A50005093500140934F019A01ADECBCEC0E94C1
:100A6000400B9695879596958795969587959C01C9
:100A7000220F331F880F991F880F991F880F991F06
:100A8000820F931FFA01E81BF90BCF01C0969093D8
:100A90004801809347018033910509F0AACEC0E058
:100AA0004BCF96013695279536952795ABE7B4E160
:100AB0000E94400BAC0156954795509350014093CE
:100AC0004F019A01ADECBCEC0E94400B96958795C6
:100AD00096958795969587959C01220F331F880FD1
:100AE000991F880F991F880F991F820F931F9A01D2
:100AF000281B390BC901C09690934A018093490184
:100B00008033910509F07ECEC0E050CF9601ADEC68
:100B1000BCEC0E94400BAC01569547955695479505
:100B2000569547955093500140934F019A010E946A
:100B3000400B9695879596958795969587959C01F8
:100B4000220F331F880F991F880F991F880F991F35
:100B5000820F931FFA01E81BF90BCF01C096909307
:100B60004C0180934B018033910509F059CEC0E0D0
:100B70005DCECF911F910F91FF90EF90DF90CF90BE
:100B80000895FF920F931F93CF93DF938A01E9019A
:100B9000882311F0611103C00E94880202C00E94E4
:100BA0009B02C530D105F9F49801329522952F703A
:100BB00023273F702327A7E4B3E00E94400B9695BC
:100BC00087959695879596958795C09690934601BB
:100BD000809345018033910509F44CC00E94530273
:100BE000FF24F39448C0C430D10509F0B2C0EDC071
:100BF000FF2009F47AC001C0F12C0E945302F39443
:100C000074C0FF2009F4AAC001C0F12C0E94530255
:100C1000F394A4C0C230D10509F0D2C046C1F1108E
:100C20000E9453029801ADECBCEC0E94400B9695DB
:100C3000879596958795969587959C01220F331FEA
:100C4000880F991F880F991F880F991F820F931F74
:100C50009801281B390BC901C09690934E018093CF
:100C60004D010E94530226970CF451C185E40E9465
:100C700053024DC1F12C980136952795369527954D
:100C800036952795A5ECB0E20E94400BAC01529539
:100C900042954F7045275F70452750935001409310
:100CA0004F019A01ADECBCEC0E94400B96958795E4
:100CB00096958795969587959C01220F331F880FEF
:100CC000991F880F991F880F991F820F931F9A01F0
:100CD000281B390BC901C0969093480180934701A6
:100CE0008033910509F089CF83CF980136952795F8
:100CF00036952795ABE7B4E10E94400BAC015695C1
:100D000047955093500140934F019A01ADECBCECD4
:100D10000E94400B96958795969587959695879511
:100D20009C01220F331F880F991F880F991F880F6E
:100D3000991F820F931F9A01281B390BC901C09676
:100D400090934A01809349018033910509F05ECF69
:100D500058CFC330D10509F05DCF72C09801ADEC1A
:100D6000BCEC0E94400BFC01F695E795F695E795E3
:100D7000F695E795F0935001E0934F019F010E9493
:100D8000400B9695879596958795969587959C01A6
:100D9000220F331F880F991F880F991F880F991FE3
:100DA000820F931F9F01281B390BC901C096909396
:100DB0004C0180934B018033910509F031CF2FCF47
:100DC000C130D10509F04FCF2DCF98013695279529
:100DD0003695279536952795A5ECB0E20E94400BF5
:100DE000AC01529542954F7045275F70452750934F
:100DF000500140934F019A01ADECBCEC0E94400BB6
:100E00009695879596958795969587959C01220F3F
:100E1000331F880F991F880F991F880F991F820F02
:100E2000931F9A01281B390BC901C0969093480162
:100E3000809347018033910509F0DECEF12C55CF28
:100E400098013695279536952795ABE7B4E10E9432
:100E5000400BAC01569547955093500140934F017C
:100E60009A01ADECBCEC0E94400B96958795969547
:100E70008795969587959C01220F331F880F991FA0
:100E8000880F991F880F991F820F931F9A01281BA3
:100E9000390BC901C09690934A0180934901803370
:100EA000910509F0B2CEF12C59CF9801ADECBCEC14
:100EB0000E94400BFC01F695E795F695E795F695AF
:100EC000E795F0935001E0934F019F010E94400B82
:100ED0009695879596958795969587959C01220F6F
:100EE000331F880F991F880F991F880F991F820F32
:100EF000931F9F01281B390BC901C09690934C0189
:100F000080934B018033910509F08ACE8BCEDF911F
:100F1000CF911F910F91FF9008958F929F92AF9262
:100F2000BF92EF92FF920F931F93CF93DF93D82F2F
:100F3000C62F49015A0120E030E04AE754E4C501D8
:100F4000B4010E945B09882364F4C501B4010E94C6
:100F5000D90924E030E0AB016C2F8D2F0E94BB0338
:100F60007BC020E030E04AE754E4C501B4010E94B0
:100F7000BA0A8823DCF120E030E44CE156E4C501F4
:100F8000B4010E945B0988238CF520E030E04AE739
:100F900054E4C501B4010E9460090E94D90921E00E
:100FA00030E0AB016C2F8D2F0E94C10561E06C0F0A
:100FB00049E051E08D2F0E94AA02C501B4010E94B0
:100FC000D209CB0168EE73E00E942C0B62E06C0F3B
:100FD00023E030E0AC018D2F0E94BB02C7010E94CC
:100FE0008C028BE091E00E948C0236C020E030E45D
:100FF0004CE156E4C501B4010E94BA0A882364F1A9
:1010000020E030E04AE754E4C501B4010E946009E1
:101010000E94D90922E030E0AB016C2F8D2F0E9495
:10102000C10562E06C0F49E051E08D2F0E94AA02D9
:10103000C501B4010E94D209CB0168EE73E00E94A1
:101040002C0B63E06C0F23E030E0AC018D2F0E948D
:10105000BB02C7010E948C02DF91CF911F910F91BB
:10106000FF90EF90BF90AF909F908F9008958FE981
:101070009FE00197F1F700C000005F9880E38BB913
:101080005E9AEFE1FEE43197F1F700C000005E9850
:10109000EFE9FFE03197F1F700C000005F988BB9EE
:1010A0005E9AEFE1FEE43197F1F700C000005E9830
:1010B000EFE9FFE03197F1F700C000005F988BB9CE
:1010C0005E9A8FE19EE40197F1F700C000005E9800
:1010D000EFE9FFE03197F1F700C000005F9880E191
:1010E0008BB95E9A8FE99FE00197F1F700C000008D
:1010F0005E98EFE9FFE03197F1F700C0000088E269
:101100000E94210281E00E9421028CE00E942102C3
:1011100080E80E942102089581E00E942102089542
:101120000E9481020E9453000895F8940E9437089B
:101130000E945600789408950E9490080E94950895
:101140004DE051E067E081E00E94AA022FEF85EABE
:101150009EE0215080409040E1F700C000001D9BC0
:1011600007C041E151E061E082E00E94AA0212C0A2
:1011700042E251E062E082E00E94AA028AE999E933
:10118000A1EDB1E48093300190933101A09332013D
:10119000B09333012FEF8BE49DE1215080409040CC
:1011A000E1F700C000000E948C080E940D010E941F
:1011B00035010E944D010E946E0161E081E00E94B4
:1011C00086016AE081E00E94A10161E082E00E9464
:1011D000BC016AE082E00E94D701E7CF5058BB27EC
:1011E000AA270E9406090C94800A0E94720A38F00D
:1011F0000E94790A20F039F49F3F19F426F40C94E8
:101200006F0A0EF4E095E7FB0C94690AE92F0E943F
:10121000910A58F3BA17620773078407950720F0FD
:1012200079F4A6F50C94B30A0EF4E0950B2EBA2FC0
:10123000A02D0B01B90190010C01CA01A0011124DC
:10124000FF27591B99F0593F50F4503E68F11A1688
:10125000F040A22F232F342F4427585FF3CF469519
:1012600037952795A795F0405395C9F77EF41F163B
:10127000BA0B620B730B840BBAF09150A1F0FF0F05
:10128000BB1F661F771F881FC2F70EC0BA0F621FF1
:10129000731F841F48F4879577956795B795F795E1
:1012A0009E3F08F0B0CF9395880F08F09927EE0F76
:1012B0009795879508950E94450A08F481E008955E
:1012C0000E9474090C94800A0E94790A58F00E94C6
:1012D000720A40F029F45F3F29F00C94690A511119
:1012E0000C94B40A0C946F0A0E94910A68F3992333
:1012F000B1F3552391F3951B550BBB27AA27621712
:101300007307840738F09F5F5F4F220F331F441F1E
:10131000AA1FA9F335D00E2E3AF0E0E832D0915052
:101320005040E695001CCAF72BD0FE2F29D0660F3F
:10133000771F881FBB1F261737074807AB07B0E882
:1013400009F0BB0B802DBF01FF2793585F4F3AF088
:101350009E3F510578F00C94690A0C94B40A5F3FE3
:10136000E4F3983ED4F3869577956795B795F7950E
:101370009F5FC9F7880F911D9695879597F90895F6
:10138000E1E0660F771F881FBB1F62177307840792
:10139000BA0720F0621B730B840BBA0BEE1F88F7A1
:1013A000E09508950E94D9096894B1110C94B40A8B
:1013B00008950E94990A88F09F5798F0B92F9927AD
:1013C000B751B0F0E1F0660F771F881F991F1AF030
:1013D000BA95C9F714C0B13091F00E94B30AB1E0D8
:1013E00008950C94B30A672F782F8827B85F39F0D7
:1013F000B93FCCF3869577956795B395D9F73EF4C9
:1014000090958095709561957F4F8F4F9F4F089570
:10141000E89409C097FB3EF490958095709561958E
:101420007F4F8F4F9F4F9923A9F0F92F96E9BB2744
:101430009395F695879577956795B795F111F8CFC0
:10144000FAF4BB0F11F460FF1BC06F5F7F4F8F4F2B
:101450009F4F16C0882311F096E911C0772321F021
:101460009EE8872F762F05C0662371F096E8862FB9
:1014700070E060E02AF09A95660F771F881FDAF710
:10148000880F9695879597F90895990F0008550F3D
:10149000AA0BE0E8FEEF16161706E807F907C0F0FA
:1014A00012161306E407F50798F0621B730B840B02
:1014B000950B39F40A2661F0232B242B252B21F4DC
:1014C00008950A2609F4A140A6958FEF811D811D7C
:1014D000089597F99F6780E870E060E008959FEFB6
:1014E00080EC089500240A941616170618060906BB
:1014F000089500240A94121613061406050608958A
:10150000092E0394000C11F4882352F0BB0F40F411
:10151000BF2B11F460FF04C06F5F7F4F8F4F9F4F51
:10152000089557FD9058440F551F59F05F3F71F0D3
:101530004795880F97FB991F61F09F3F79F087953A
:101540000895121613061406551FF2CF4695F1DFC3
:1015500008C0161617061806991FF1CF8695710553
:10156000610508940895E894BB2766277727CB0187
:1015700097F908950E94450A08F48FEF08950E9494
:10158000D20A0C94800A0E94720A38F00E94790AEA
:1015900020F0952311F00C94690A0C946F0A112421
:1015A0000C94B40A0E94910A70F3959FC1F3950FB1
:1015B00050E0551F629FF001729FBB27F00DB11DD7
:1015C000639FAA27F00DB11DAA1F649F6627B00D67
:1015D000A11D661F829F2227B00DA11D621F739F50
:1015E000B00DA11D621F839FA00D611D221F749F5E
:1015F0003327A00D611D231F849F600D211D822FA5
:10160000762F6A2F11249F5750409AF0F1F08823CB
:101610004AF0EE0FFF1FBB1F661F771F881F9150F8
:101620005040A9F79E3F510580F00C94690A0C9434
:10163000B40A5F3FE4F3983ED4F3869577956795B7
:10164000B795F795E7959F5FC1F7FE2B880F911D22
:101650009695879597F9089597FB072E16F40094B1
:1016600007D077FD09D00E944F0B07FC05D03EF450
:10167000909581959F4F0895709561957F4F08953E
:10168000A29FB001B39FC001A39F700D811D1124C3
:10169000911DB29F700D811D1124911D0895AA1BEB
:1016A000BB1B51E107C0AA1FBB1FA617B70710F04D
:1016B000A61BB70B881F991F5A95A9F7809590957F
:0A16C000BC01CD010895F894FFCF9E
:1016CA006D41006D56006D57002E00200043434CBB
:1016DA0000537570706C7920436F6E6E6563746524
:1016EA00640031327620537570706C79204E430055
:00000001FF
