S00B00004C43442E7372656346
S11300000C9434000C9451000C9451000C94510045
S11300100C9451000C9451000C9451000C94510018
S11300200C9451000C9451000C9451000C94510008
S11300300C9451000C9451000C9451000C945100F8
S11300400C9451000C9451000C9451000C945100E8
S11300500C9451000C9451000C9451000C945100D8
S11300600C9451000C94510011241FBECFEFD8E022
S1130070DEBFCDBF11E0A0E0B1E0ECE9FBE002C0DF
S113008005900D92AE32B107D9F721E0AEE2B1E0AE
S113009001C01D92AB33B207E1F70E94E2020C9457
S11300A0CC050C94000017B818B8089587E880931D
S11300B07A000895EAE7F0E080818064808380819B
S11300C084FFFDCFEAE7F0E08081806180832091A6
S11300D078008091790090E0982F8827820F911DF5
S11300E00895883058F480937C008FE19EE4019752
S11300F0F1F700C000000E945A00089586E190E0E4
S113010008958F929F92AF92BF92DF92EF92FF92E7
S11301100F931F93CF93DF93D82EE62EF12C1E144A
S11301201F04ECF4C1E0D0E0812C912C5401870130
S11301308D2D0E947100B8010E94A90580E090E015
S11301400E94AE049B01AC01C501B4010E94A1034D
S11301504B015C012196EC16FD0654F703C0812C7B
S1130160912C5401C501B4010E947F04CB01DF919D
S1130170CF911F910F91FF90EF90DF90BF90AF90C0
S11301809F908F900895982F881F8827881F96FD29
S113019002C020E001C022E0822B95FD02C020E0D5
S11301A001C024E0822B94FD02C020E001C028E0BD
S11301B0822B93FD02C020E001C020E1822B92FD3E
S11301C002C020E001C020E2822B91FD02C020E0A9
S11301D001C020E4822B90FD02C090E001C090E8B1
S11301E0892B0895CF93C82F807F0E94C300880F66
S11301F0880F80932E019BB1937C9BB98BB1909116
S11302002E01982B9BB95F985E9A8FE19EE401972B
S1130210F1F700C000005E988C2F8295807F0E94C9
S1130220C3009BB1937C9BB99BB1880F880F982B1B
S11302309BB95F985E9A8FE19EE40197F1F700C045
S113024000005E98CF910895CF93C82F807F0E94BD
S1130250C3009BB1937C9BB99BB1880F880F982BEB
S11302609BB95F9A5E9A8FE19EE40197F1F700C013
S113027000005E988C2F8295807F0E94C3009BB102
S1130280937C9BB99BB1880F880F982B9BB95F9A7D
S11302905E9A8FE19EE40197F1F700C000005E983A
S11302A0CF9108958AB18C6F8AB98BB184708BB960
S11302B0089580E80E94F2000895813019F0823098
S11302C031F008958FE7860F0E94F20008958FEBB6
S11302D0860F0E94F2000895CF93DF93EA010E94F3
S11302E05D018881882331F021960E94240189913F
S11302F08111FBCFDF91CF9108950F931F93CF937B
S1130300DF938A01E901882311F0611103C00E947F
S1130310590102C00E945D01C530D105C9F498019C
S1130320329522952F7023273F702327A7E4B3E04B
S11303300E94BD0596958795969587959695879580
S1130340C0969093300180932F010E94240104C031
S1130350C430D10509F0C3C0980136952795369568
S1130360279536952795A5ECB0E20E94BD05AC0112
S1130370529542954F7045275F70452750933A0137
S1130380409339019A01ADECBCEC0E94BD059695F1
S1130390879596958795969587959C01220F331F8F
S11303A0880F991F880F991F880F991F820F931F19
S11303B09A01281B390BC901C0969093320180938E
S11303C031010E9424019801369527953695279589
S11303D0ABE7B4E10E94BD05AC0156954795509337
S11303E03A01409339019A01ADECBCEC0E94BD0581
S11303F09695879596958795969587959C01220F56
S1130400331F880F991F880F991F880F991F820F18
S1130410931F9A01281B390BC901C096909334018C
S1130420809333010E94240104C0C230D10509F035
S11304305BC09801ADECBCEC0E94BD05AC015695C7
S11304404795569547955695479550933A0140934D
S113045039019A010E94BD059695879596958795D1
S1130460969587959C01220F331F880F991F880F3B
S1130470991F880F991F820F931F9A01281B390B0C
S1130480C901C09690933601809335010E942401DE
S11304909801ADECBCEC0E94BD05969587959695A8
S11304A08795969587959C01220F331F880F991F76
S11304B0880F991F880F991F820F931F9801281B7B
S11304C0390BC901C09690933801809337010E947B
S11304D0240126976CF085E40E94240109C0C330EE
S11304E0D10509F0A2CF6FCFC130D10591F7D0CF9C
S11304F0DF91CF911F910F9108958FE99FE00197AC
S1130500F1F700C000005F9880E38BB95E9AEFE1D9
S1130510FEE43197F1F700C000005E98EFE9FFE0D8
S11305203197F1F700C000005F988BB95E9AEFE154
S1130530FEE43197F1F700C000005E98EFE9FFE0B8
S11305403197F1F700C000005F988BB95E9A8FE194
S11305509EE40197F1F700C000005E98EFE9FFE028
S11305603197F1F700C000005F9880E18BB95E9A83
S11305708FE99FE00197F1F700C000005E98EFE972
S1130580FFE03197F1F700C0000088E20E94F2001A
S113059081E00E94F2008CE00E94F20080E80E9458
S11305A0F200089581E00E94F20008950E94520131
S11305B00E9453000895F8940E947D020E94560000
S11305C0789408950E94D6020E94DB0240E051E034
S11305D067E081E00E946C012FEF85EA9EE02150E4
S11305E080409040E1F700C000001D9B0AC044E039
S11305F051E061E082E00E946C01C12CD12C7601B3
S113060010C045E151E062E082E00E946C010F2ECF
S1130610FAE9CF2EF9E9DF2EF1EEEF2EF1E4FF2E09
S1130620F02D2FEF8BE49DE1215080409040E1F7C5
S113063000C000000E94D2026AE080E00E948100B3
S1130640BC0180E090E00E94AE0427EE3BEF49EF4E
S11306505FE30E943C0526E636E646EB50E40E9442
S1130660A103A70196010E94A1034B015C010E9412
S11306707F0424E030E0AB0161E081E00E947D0171
S113068043E251E065E081E00E946C016AE081E0B0
S11306900E948100BC0180E090E00E94AE0426E646
S11306A036E64AEE51E40E943C052B013C010E94CF
S11306B07F0425E030E0AB016AE081E00E947D0127
S11306C048E251E06FE081E00E946C01A5019401D1
S11306D0C301B2010E943C0520E030E04AE754E443
S11306E00E940D040E947F0425E030E0AB0161E02C
S11306F082E00E947D014BE251E066E082E00E94CC
S11307006C0165E082E00E948100BC0180E090E021
S11307100E94AE0420E030E040EF50E40E943C052B
S11307200E947F0424E030E0AB016BE082E00E9491
S11307307D018FE39CE90197F1F700C000007CCFB5
S11307405058BB27AA270E94B8030C9402050E94A4
S1130750F40438F00E94FB0420F039F49F3F19F4AC
S113076026F40C94F1040EF4E095E7FB0C94EB04EE
S1130770E92F0E94130558F3BA1762077307840719
S1130780950720F079F4A6F50C9435050EF4E09560
S11307900B2EBA2FA02D0B01B90190010C01CA0137
S11307A0A0011124FF27591B99F0593F50F4503EE2
S11307B068F11A16F040A22F232F342F4427585FD4
S11307C0F3CF469537952795A795F0405395C9F7EC
S11307D07EF41F16BA0B620B730B840BBAF09150A4
S11307E0A1F0FF0FBB1F661F771F881FC2F70EC043
S11307F0BA0F621F731F841F48F487957795679516
S1130800B795F7959E3F08F0B0CF9395880F08F001
S11308109927EE0F9795879508950E9421040C94CB
S113082002050E94FB0458F00E94F40440F029F4ED
S11308305F3F29F00C94EB0451110C9436050C9491
S1130840F1040E94130568F39923B1F3552391F33E
S1130850951B550BBB27AA2762177307840738F02B
S11308609F5F5F4F220F331F441FAA1FA9F335D088
S11308700E2E3AF0E0E832D091505040E695001C3C
S1130880CAF72BD0FE2F29D0660F771F881FBB1FF6
S1130890261737074807AB07B0E809F0BB0B802DD4
S11308A0BF01FF2793585F4F3AF09E3F510578F000
S11308B00C94EB040C9436055F3FE4F3983ED4F3B8
S11308C0869577956795B795F7959F5FC9F7880FD4
S11308D0911D9695879597F90895E1E0660F771F26
S11308E0881FBB1F621773078407BA0720F0621BB7
S11308F0730B840BBA0BEE1F88F7E09508950E94E2
S11309001B0588F09F5798F0B92F9927B751B0F07D
S1130910E1F0660F771F881F991F1AF0BA95C9F77F
S113092014C0B13091F00E943505B1E008950C94E3
S11309303505672F782F8827B85F39F0B93FCCF396
S1130940869577956795B395D9F73EF490958095FC
S1130950709561957F4F8F4F9F4F0895E89409C01C
S113096097FB3EF490958095709561957F4F8F4FDE
S11309709F4F9923A9F0F92F96E9BB279395F695F4
S1130980879577956795B795F111F8CFFAF4BB0F72
S113099011F460FF1BC06F5F7F4F8F4F9F4F16C0D6
S11309A0882311F096E911C0772321F09EE8872F60
S11309B0762F05C0662371F096E8862F70E060E01C
S11309C02AF09A95660F771F881FDAF7880F969595
S11309D0879597F9089597F99F6780E870E060E03C
S11309E008959FEF80EC089500240A9416161706C4
S11309F018060906089500240A941216130614060C
S1130A0005060895092E0394000C11F4882352F06E
S1130A10BB0F40F4BF2B11F460FF04C06F5F7F4F26
S1130A208F4F9F4F089557FD9058440F551F59F00D
S1130A305F3F71F04795880F97FB991F61F09F3FC7
S1130A4079F087950895121613061406551FF2CFF0
S1130A504695F1DF08C0161617061806991FF1CF40
S1130A6086957105610508940895E894BB27662767
S1130A707727CB0197F908950E944F050C9402053E
S1130A800E94F40438F00E94FB0420F0952311F036
S1130A900C94EB040C94F10411240C9436050E947C
S1130AA0130570F3959FC1F3950F50E0551F629F96
S1130AB0F001729FBB27F00DB11D639FAA27F00DB3
S1130AC0B11DAA1F649F6627B00DA11D661F829FDA
S1130AD02227B00DA11D621F739FB00DA11D621FBF
S1130AE0839FA00D611D221F749F3327A00D611DDC
S1130AF0231F849F600D211D822F762F6A2F1124BE
S1130B009F5750409AF0F1F088234AF0EE0FFF1FF0
S1130B10BB1F661F771F881F91505040A9F79E3F47
S1130B20510580F00C94EB040C9436055F3FE4F31C
S1130B30983ED4F3869577956795B795F795E7959D
S1130B409F5FC1F7FE2B880F911D9695879597F9A6
S1130B500895AA1BBB1B51E107C0AA1FBB1FA61700
S1130B60B70710F0A61BB70B881F991F5A95A9F752
S1130B7080959095BC01CD010895A29FB001B39FCB
S1130B80C001A39F700D811D1124911DB29F700D92
S10F0B90811D1124911D0895F894FFCFDD
S1130B9C43434C00537570706C7920436F6E6E65D3
S1130BAC637465640031327620537570706C7920EF
S1110BBC4E43006D412020006D56006D570021
S9030000FC
