:100000000C9434000C9451000C9451000C94510049
:100010000C9451000C9451000C9451000C9451001C
:100020000C9451000C9451000C9451000C9451000C
:100030000C9451000C9451000C9451000C945100FC
:100040000C9451000C9451000C9451000C945100EC
:100050000C9451000C94D4000C9451000C94510059
:100060000C9451000C94510011241FBECFEFD8E026
:10007000DEBFCDBF11E0A0E0B1E0E2E1FBE102C0F4
:1000800005900D92AE36B107D9F721E0AEE6B1E0AA
:1000900001C01D92AA39B207E1F70E94620A0C94CE
:1000A000870D0C94000017B818B808958FE8809356
:1000B0007A0083B7826083BF089583B7817F8260AF
:1000C00083BF83B7816083BF889583B78E7F83BFEB
:1000D0000895883050F480937C008FE99FE0019769
:1000E000F1F700C000000E945D0008958F929F927A
:1000F000AF92BF92DF92EF92FF920F931F93CF9335
:10010000DF93D82E062F10E01016110634F5C1E04B
:10011000D0E0812C912C5401E82EF12CC701880FDE
:10012000991F9C012C563E4F79018D2D0E9469002C
:10013000F70140815181BA0180E090E00E942C0CCF
:100140009B01AC01C501B4010E94130B4B015C0182
:1001500021960C171D074CF703C0812C912C5401DC
:10016000CD2DD0E0B801110F880B990B0E942E0CF9
:100170009B01AC01C501B4010E94840B0E94FD0BE0
:10018000CC0FDD1FCC56DE4F79836883888199813F
:10019000DF91CF911F910F91FF90EF90DF90BF9073
:1001A000AF909F908F9008951F920F920FB60F926D
:1001B00011242F933F934F938F939F93EF93FF932C
:1001C000E0917C004091780080917900EF70F0E040
:1001D00021E030E0811102C020E030E0EE0FFF1F8F
:1001E000EC56FE4F3183208320813181322F22272C
:1001F0003183208390E0982F8827840F911D91836D
:100200008083FF91EF919F918F914F913F912F911B
:100210000F900FBE0F901F90189565E080E00E9430
:100220007600BC0180E090E00E942C0C27EE3BEFB2
:1002300049EF5FE30E94E30C2AE939E949E95EE30B
:100240000E94130B20916F01309170014091710158
:10025000509172010E94130B60937F017093800193
:1002600080938101909382010895CF92DF92EF9263
:10027000FF9265E081E00E947600BC0180E090E0A2
:100280000E942C0C2CEE31E54AEE51E40E94E30C66
:100290006B017C010E94F60BCB016AE070E00E94CA
:1002A000500DBC01990F880B990B0E942E0C9B01DD
:1002B000AC01C701B6010E94120B609383017093D9
:1002C00084018093850190938601FF90EF90DF90E9
:1002D000CF9008958F929F92AF92BF92CF92DF926C
:1002E000EF92FF92CF93DF93C0907F01D090800177
:1002F000E0908101F090820120918301309184018E
:100300004091850150918601C701B6010E94E30C1E
:1003100020E030E04AE754E40E94840B4B015C018A
:100320000E94F60BCAE0D0E0CB01BE010E94500D46
:10033000BC01990F880B990B0E942E0C9B01AC01FC
:10034000C501B4010E94120B4B015C0160937B015B
:1003500070937C0180937D0190937E01A7019601AB
:10036000C701B6010E94E30C20E030E04AE754E404
:100370000E94840B9B01AC01C501B4010E94120BC9
:100380006B017C010E94F60BCB01BE010E94500D57
:10039000BC01990F880B990B0E942E0C9B01AC019C
:1003A000C701B6010E94120B609377017093780128
:1003B0008093790190937A01DF91CF91FF90EF9034
:1003C000DF90CF90BF90AF909F908F900895CF9285
:1003D000DF92EF92FF926AE082E00E947600BC0119
:1003E00080E090E00E942C0C2AE037ED4BE251E4D3
:1003F0000E94E30C6B017C010E94F60BCB016AE0CA
:1004000070E00E94500DBC01990F880B990B0E945F
:100410002E0C9B01AC01C701B6010E94120B609328
:100420007301709374018093750190937601FF902E
:10043000EF90DF90CF900895EF92FF920F931F936C
:1004400020917F0130918001409181015091820182
:100450000F2EF7E0EF2EF1E0FF2EF02D06E011E079
:100460000E94AC091F910F91FF90EF900895EF92B9
:10047000FF920F931F93209183013091840140914B
:100480008501509186010F2EFAE0EF2EF1E0FF2E4C
:10049000F02D09E011E00E94AC091F910F91FF902F
:1004A000EF900895EF92FF920F931F9320917B019D
:1004B00030917C0140917D0150917E010F2EFDE035
:1004C000EF2EF1E0FF2EF02D0CE011E00E94AC09C0
:1004D0001F910F91FF90EF900895EF92FF920F936D
:1004E0001F932091770130917801409179015091CB
:1004F0007A010F2EFDE0EF2EF1E0FF2EF02D0CE043
:1005000011E00E94AC091F910F91FF90EF900895A8
:10051000AF92BF92CF92DF92EF92FF920F931F9311
:10052000CF93DF93C0910401D0910501C0907F016A
:10053000D0908001E0908101F0908201BE010D2EEB
:10054000000C880B990B0E942E0CA70196010E94AB
:10055000DE0C18160CF04BC0009102011091030143
:10056000B801012E000C880B990B0E942E0C2091D3
:1005700083013091840140918501509186010E9450
:10058000DE0C1816A4F5A0900001B0900101B50191
:100590000B2C000C880B990B0E942E0C20917701DC
:1005A000309178014091790150917A010E94DE0CDE
:1005B0001816ECF480916E01813009F079C08CE05E
:1005C000A81A8EEFB80AB0920101A0920001005360
:1005D000184F1093030100930201CC59DF4FD093C1
:1005E0000501C093040110926E0180E068C0809103
:1005F0006E0181111DC08091000190910101845F05
:1006000091409093010180930001809102019091AB
:100610000301805D97409093030180930201C456CB
:10062000D109D0930501C093040181E080936E014C
:100630006091000170910101072E000C880B990B4D
:100640000E942E0C20917701309178014091790120
:1006500050917A010E947F0B882364F1609102011E
:1006600070910301072E000C880B990B0E942E0C31
:100670002091830130918401409185015091860140
:100680000E947F0B8823C4F06091040170910501E2
:10069000072E000C880B990B0E942E0C9B01AC01BD
:1006A000C701B6010E94DE0C181644F084E007C0B2
:1006B00080E005C081E003C082E001C083E0DF91FB
:1006C000CF911F910F91FF90EF90DF90CF90BF904F
:1006D000AF900895982F881F8827881F96FD02C025
:1006E00020E001C022E0822B95FD02C020E001C085
:1006F00024E0822B94FD02C020E001C028E0822B80
:1007000093FD02C020E001C020E1822B92FD02C0D7
:1007100020E001C020E2822B91FD02C020E001C058
:1007200020E4822B90FD02C090E001C090E8892B6C
:100730000895CF93C82F807F0E946A03880F880F87
:10074000809387019BB1937C9BB98BB1909187017A
:10075000982B9BB95F985E9A8FE19EE40197F1F721
:1007600000C000005E988C2F8295807F0E946A03F3
:100770009BB1937C9BB99BB1880F880F982B9BB939
:100780005F985E9A8FE19EE40197F1F700C0000048
:100790005E98CF9108958AB18C6F8AB98BB18470BD
:1007A0008BB90895CF93C82F807F0E946A039BB1B5
:1007B000937C9BB99BB1880F880F982B9BB95F9A4C
:1007C0005E9A8FE19EE40197F1F700C000005E9809
:1007D0008C2F8295807F0E946A039BB1937C9BB98A
:1007E0009BB1880F880F982B9BB95F9A5E9A8FE117
:1007F0009EE40197F1F700C000005E98CF91089544
:1008000080E80E9499030895CF93DF93EC018881DB
:10081000882331F021960E94D20389918111FBCF68
:10082000DF91CF910895813019F0823031F0089531
:100830008FE7860F0E94990308958FEB860F0E9421
:1008400099030895CF93DF93EA010E9413048881EE
:10085000882331F021960E94D20389918111FBCF28
:10086000DF91CF9108958FE99FE00197F1F700C0E4
:1008700000005F9880E38BB95E9AEFE1FEE4319768
:10088000F1F700C000005E98EFE9FFE03197F1F763
:1008900000C000005F988BB95E9AEFE1FEE43197EB
:1008A000F1F700C000005E98EFE9FFE03197F1F743
:1008B00000C000005F988BB95E9A8FE19EE40197BB
:1008C000F1F700C000005E98EFE9FFE03197F1F723
:1008D00000C000005F9880E18BB95E9A8FE99FE0CD
:1008E0000197F1F700C000005E98EFE9FFE0319753
:1008F000F1F700C0000088E20E94990381E00E94A5
:1009000099038CE00E94990380E80E94990308955E
:1009100081E00E9499030895AF92BF92CF92DF9237
:10092000EF92FF920F931F93CF93DF937A016901A8
:100930004115510509F4F9C040FD0BC0FA01C0E0B2
:1009400002C0E0FD07C0CF5FF695E7953097C9F785
:1009500001C0C0E0882311F0611103C00E940004AF
:1009600002C00E94130425E0C216D104C9F4970105
:10097000329522952F7023273F702327A7E4B3E0F9
:100980000E94640D9695879596958795969587957F
:10099000C09690938901809388010E94D20305C07C
:1009A00034E0C316D10409F0CFC0970136952795DE
:1009B0003695279536952795A5ECB0E20E94640DF3
:1009C000AC01529542954F7045275F704527509373
:1009D0009301409392019A01ADECBCEC0E94640D2E
:1009E0009695879596958795969587959C01220F64
:1009F000331F880F991F880F991F880F991F820F27
:100A0000931FFA01E81BF90BCF01C09690938B015D
:100A100080938A010E94D2039701369527953695D7
:100A20002795ABE7B4E10E94640DAC01569547955C
:100A300050939301409392019A01ADECBCEC0E945B
:100A4000640D9695879596958795969587959C01C3
:100A5000220F331F880F991F880F991F880F991F26
:100A6000820F931F9A01281B390BC901C0969093DE
:100A70008D0180938C010E94D20305C032E0C31621
:100A8000D10409F067C09701ADECBCEC0E94640D85
:100A90005C01B694A794B694A794B694A794B09228
:100AA0009301A092920195010E94640D96958795FD
:100AB00096958795969587959C01220F331F880FF1
:100AC000991F880F991F880F991F820F931FF50197
:100AD000E81BF90BCF01C09690938F0180938E0194
:100AE0000E94D203C501880F991FAA0CBB1CAA0C37
:100AF000BB1CAA0CBB1CA80EB91EEA18FB08C70138
:100B0000C0969093910180939001C11102C00E9400
:100B1000D203F6E0CF16D1041CF085E40E94D20384
:100B2000F8018081811108C03AC080E30E94D2039D
:100B300080E30E94D203F4CFE80121960E94D20301
:100B400089918111FBCF2BC0F3E0CF16D10409F0BE
:100B500095CF62CF21E0C216D104D9F69701ADEC52
:100B6000BCEC0E94640D9695879596958795969511
:100B700087959C01220F331F880F991F880F991F9B
:100B8000880F991F820F931FE81AF90AC701C096B0
:100B90009093910180939001C111C2CFB8CFDF91A2
:100BA000CF911F910F91FF90EF90DF90CF90BF906A
:100BB000AF900895CF92DF92EF92FF920F931F9321
:100BC000CF936A017901882311F0611103C00E945B
:100BD000000402C00E94130425E0E216F104F1F4BF
:100BE0009601329522952F7023273F702327A7E483
:100BF000B3E00E94640D9695879596958795969596
:100C00008795C096909389018093880180339105E0
:100C100009F476C00E94D203C1E073C034E0E31649
:100C2000F10409F0DCC021C1CC2309F4A4C001C047
:100C3000C0E00E94D203CF5F9EC0CC2309F4D5C090
:100C400001C0C0E00E94D203CF5FCFC082E0E816AF
:100C5000F10409F0FCC079C1CC2339F001C0C0E037
:100C60000E94D203CF5F01C0C0E09601ADECBCECA6
:100C70000E94640D9695879596958795969587958C
:100C80009C01220F331F880F991F880F991F880F0F
:100C9000991F820F931FF601E81BF90BCF01C09635
:100CA00090939101809390010E94D203CF5FF6E070
:100CB000EF16F1041CF085E40E94D203F801808154
:100CC000882309F4CBC00F5F1F4F0E94D203CF5F70
:100CD000FFEFEF1AFF0AF80181918F018111F5CF23
:100CE0008C2F90E08E159F050CF062C180E20E946F
:100CF000D203CF5F8C2F90E08E159F05B9F758C1B6
:100D0000C0E0960136952795369527953695279517
:100D1000A5ECB0E20E94640DAC01529542954F7073
:100D200045275F70452750939301409392019A01A4
:100D3000ADECBCEC0E94640D9695879596958795D1
:100D4000969587959C01220F331F880F991F880F56
:100D5000991F880F991F820F931F9A01281B390B27
:100D6000C901C09690938B0180938A0180339105CD
:100D700009F05FCF59CF960136952795369527957F
:100D8000ABE7B4E10E94640DAC01569547955093D2
:100D90009301409392019A01ADECBCEC0E94640D6A
:100DA0009695879596958795969587959C01220FA0
:100DB000331F880F991F880F991F880F991F820F63
:100DC000931FFA01E81BF90BCF01C09690938D0198
:100DD00080938C018033910509F034CF2ECFF3E05E
:100DE000EF16F10409F032CF7BC09601ADECBCECFC
:100DF0000E94640DAC0156954795569547955695BA
:100E0000479550939301409392019A010E94640D7B
:100E10009695879596958795969587959C01220F2F
:100E2000331F880F991F880F991F880F991F820FF2
:100E3000931F9A01281B390BC901C09690938F010B
:100E400080938E018033910509F00ACF05CF31E000
:100E5000E316F10409F408CFC0E029CF8C2F90E00D
:100E60008E159F050CF442CFA3C0960136952795A9
:100E70003695279536952795A5ECB0E20E94640D2E
:100E8000AC01529542954F7045275F7045275093AE
:100E90009301409392019A01ADECBCEC0E94640D69
:100EA0009695879596958795969587959C01220F9F
:100EB000331F880F991F880F991F880F991F820F62
:100EC000931FFA01E81BF90BCF01C09690938B0199
:100ED00080938A018033910509F0AACEC0E04BCF00
:100EE00096013695279536952795ABE7B4E10E9494
:100EF000640DAC0156954795509393014093920130
:100F00009A01ADECBCEC0E94640D96958795969580
:100F10008795969587959C01220F331F880F991FFF
:100F2000880F991F880F991F820F931F9A01281B02
:100F3000390BC901C09690938D0180938C01803349
:100F4000910509F07ECEC0E050CF9601ADECBCEC2F
:100F50000E94640DAC015695479556954795569558
:100F6000479550939301409392019A010E94640D1A
:100F70009695879596958795969587959C01220FCE
:100F8000331F880F991F880F991F880F991F820F91
:100F9000931FFA01E81BF90BCF01C09690938F01C4
:100FA00080938E018033910509F059CEC0E05DCE6B
:100FB000CF911F910F91FF90EF90DF90CF90089508
:100FC000FF920F931F93CF93DF938A01E901882348
:100FD00011F0611103C00E94000402C00E941304BA
:100FE000C530D105F9F49801329522952F70232749
:100FF0003F702327A7E4B3E00E94640D9695879580
:101000009695879596958795C0969093890180933C
:1010100088018033910509F44CC00E94D203FF245B
:10102000F39448C0C430D10509F0B2C0EDC0FF2030
:1010300009F47AC001C0F12C0E94D203F39474C069
:10104000FF2009F4AAC001C0F12C0E94D203F3943E
:10105000A4C0C230D10509F0D2C046C1F1100E942F
:10106000D2039801ADECBCEC0E94640D9695879577
:1010700096958795969587959C01220F331F880F2B
:10108000991F880F991F880F991F820F931F98012E
:10109000281B390BC901C096909391018093900150
:1010A0000E94D20326970CF451C185E40E94D2031A
:1010B0004DC1F12C98013695279536952795369593
:1010C0002795A5ECB0E20E94640DAC0152954295C3
:1010D0004F7045275F7045275093930140939201CD
:1010E0009A01ADECBCEC0E94640D9695879596959F
:1010F0008795969587959C01220F331F880F991F1E
:10110000880F991F880F991F820F931F9A01281B20
:10111000390BC901C09690938B0180938A0180336B
:10112000910509F089CF83CF98013695279536959B
:101130002795ABE7B4E10E94640DAC015695479545
:1011400050939301409392019A01ADECBCEC0E9444
:10115000640D9695879596958795969587959C01AC
:10116000220F331F880F991F880F991F880F991F0F
:10117000820F931F9A01281B390BC901C0969093C7
:101180008D0180938C018033910509F05ECF58CF9B
:10119000C330D10509F05DCF72C09801ADECBCEC55
:1011A0000E94640DFC01F695E795F695E795F69596
:1011B000E795F0939301E09392019F010E94640DE3
:1011C0009695879596958795969587959C01220F7C
:1011D000331F880F991F880F991F880F991F820F3F
:1011E000931F9F01281B390BC901C09690938F0153
:1011F00080938E018033910509F031CF2FCFC1301C
:10120000D10509F04FCF2DCF98013695279536950A
:10121000279536952795A5ECB0E20E94640DAC01A8
:10122000529542954F7045275F7045275093930123
:10123000409392019A01ADECBCEC0E94640D96952E
:10124000879596958795969587959C01220F331FD4
:10125000880F991F880F991F880F991F820F931F5E
:101260009A01281B390BC901C09690938B0180937A
:101270008A018033910509F0DECEF12C55CF98011B
:101280003695279536952795ABE7B4E10E94640D16
:10129000AC015695479550939301409392019A0162
:1012A000ADECBCEC0E94640D96958795969587955C
:1012B000969587959C01220F331F880F991F880FE1
:1012C000991F880F991F820F931F9A01281B390BB2
:1012D000C901C09690938D0180938C018033910554
:1012E00009F0B2CEF12C59CF9801ADECBCEC0E94C4
:1012F000640DFC01F695E795F695E795F695E7956B
:10130000F0939301E09392019F010E94640D9695E2
:10131000879596958795969587959C01220F331F03
:10132000880F991F880F991F880F991F820F931F8D
:101330009F01281B390BC901C09690938F018093A0
:101340008E018033910509F08ACE8BCEDF91CF914B
:101350001F910F91FF9008958F929F92AF92BF922D
:10136000EF92FF920F931F93CF93DF93D82FC62F47
:1013700049015A0120E030E04AE754E4C501B401D4
:101380000E947F0B882364F4C501B4010E94FD0B09
:1013900024E030E0AB016C2F8D2F0E94DA057BC07A
:1013A00020E030E04AE754E4C501B4010E94DE0CBD
:1013B0008823CCF120E030E44CE156E4C501B401CF
:1013C0000E947F0B88237CF520E030E04AE754E45C
:1013D000C501B4010E94840B0E94FD0B21E030E0A6
:1013E000AB016C2F8D2F0E94E00761E06C0F4FE086
:1013F00051E08D2F0E942204C501B4010E94F60B1A
:10140000CB0168EE73E00E94500D62E06C0F870123
:1014100023E030E0AC018D2F0E948C0481E191E04B
:101420000E94040438C020E030E44CE156E4C501D9
:10143000B4010E94DE0C882374F120E030E04AE71A
:1014400054E4C501B4010E94840B0E94FD0B22E00C
:1014500030E0AB016C2F8D2F0E94E00762E06C0F33
:101460004FE051E08D2F0E942204C501B4010E947B
:10147000F60BCB0168EE73E00E94500D63E06C0F39
:10148000870123E030E0AC018D2F0E948C0482E1C3
:1014900091E00E940404DF91CF911F910F91FF9082
:1014A000EF90BF90AF909F908F9008950E94CB03D4
:1014B0000E9453000895F8940E9433040E9456003D
:1014C000789408950E94560A0E945B0A44E151E014
:1014D00067E081E00E9422042FEF85EA9EE0215020
:1014E00080409040E1F700C000001D9B13C048E120
:1014F00051E061E082E00E94220480E090E0A0E8F8
:10150000B0E480936F0190937001A0937101B09348
:10151000720112C049E251E062E082E00E942204BE
:101520008AE999E9A9EFB1E480936F019093700182
:10153000A0937101B09372012FEF8BE49DE12150D4
:1015400080409040E1F700C000000E948804D0E095
:101550000E940D010E9435010E946A010E94E7016C
:101560000E948802811111C061E081E00E941C028A
:101570006AE081E00E94370261E082E00E9452024C
:101580006AE082E00E946D02E3CF0E948804CD2FC2
:1015900042C00E940D010E9435010E946A010E9412
:1015A000E7010E948802823089F08330E9F08130BF
:1015B00049F561E00E945202C1112DC047E351E09C
:1015C00061E082E00E942204C1E025C061E081E088
:1015D0000E943702C1111FC046E451E061E082E081
:1015E0000E942204C1E017C061E081E00E941C0259
:1015F000C11111C047E551E061E082E00E94220480
:10160000C1E009C0C11107C048E651E066E081E0D1
:101610000E942204C1E00E9488028111BACF0E9478
:10162000880496CF5058BB27AA270E942A0B0C94F7
:10163000A40C0E94960C38F00E949D0C20F039F406
:101640009F3F19F426F40C94930C0EF4E095E7FBFD
:101650000C948D0CE92F0E94B50C58F3BA17620751
:1016600073078407950720F079F4A6F50C94D70C3E
:101670000EF4E0950B2EBA2FA02D0B01B9019001AD
:101680000C01CA01A0011124FF27591B99F0593FF1
:1016900050F4503E68F11A16F040A22F232F342F39
:1016A0004427585FF3CF469537952795A795F04087
:1016B0005395C9F77EF41F16BA0B620B730B840B9C
:1016C000BAF09150A1F0FF0FBB1F661F771F881F54
:1016D000C2F70EC0BA0F621F731F841F48F48795AC
:1016E00077956795B795F7959E3F08F0B0CF93959E
:1016F000880F08F09927EE0F9795879508950E9417
:10170000690C08F481E008950E94980B0C94A40CD5
:101710000E949D0C58F00E94960C40F029F45F3F07
:1017200029F00C948D0C51110C94D80C0C94930C42
:101730000E94B50C68F39923B1F3552391F3951BDF
:10174000550BBB27AA2762177307840738F09F5FE2
:101750005F4F220F331F441FAA1FA9F335D00E2E4F
:101760003AF0E0E832D091505040E695001CCAF7BC
:101770002BD0FE2F29D0660F771F881FBB1F26177F
:1017800037074807AB07B0E809F0BB0B802DBF0156
:10179000FF2793585F4F3AF09E3F510578F00C9425
:1017A0008D0C0C94D80C5F3FE4F3983ED4F38695EF
:1017B00077956795B795F7959F5FC9F7880F911D46
:1017C0009695879597F90895E1E0660F771F881F32
:1017D000BB1F621773078407BA0720F0621B730BE5
:1017E000840BBA0BEE1F88F7E09508950E94FD0B5D
:1017F0006894B1110C94D80C08950E94BD0C88F027
:101800009F5798F0B92F9927B751B0F0E1F0660FC4
:10181000771F881F991F1AF0BA95C9F714C0B13005
:1018200091F00E94D70CB1E008950C94D70C672F6B
:10183000782F8827B85F39F0B93FCCF38695779534
:101840006795B395D9F73EF490958095709561951D
:101850007F4F8F4F9F4F0895E89409C097FB3EF448
:1018600090958095709561957F4F8F4F9F4F9923ED
:10187000A9F0F92F96E9BB279395F695879577956B
:101880006795B795F111F8CFFAF4BB0F11F460FF2B
:101890001BC06F5F7F4F8F4F9F4F16C0882311F083
:1018A00096E911C0772321F09EE8872F762F05C097
:1018B000662371F096E8862F70E060E02AF09A9532
:1018C000660F771F881FDAF7880F9695879597F927
:1018D0000895990F0008550FAA0BE0E8FEEF1616C1
:1018E0001706E807F907C0F012161306E407F50714
:1018F00098F0621B730B840B950B39F40A2661F088
:10190000232B242B252B21F408950A2609F4A1402A
:10191000A6958FEF811D811D089597F99F6780E837
:1019200070E060E008959FEF80EC089500240A9431
:101930001616170618060906089500240A941216AA
:101940001306140605060895092E0394000C11F4DD
:10195000882352F0BB0F40F4BF2B11F460FF04C08A
:101960006F5F7F4F8F4F9F4F089557FD9058440FE3
:10197000551F59F05F3F71F04795880F97FB991FEE
:1019800061F09F3F79F087950895121613061406AB
:10199000551FF2CF4695F1DF08C016161706180638
:1019A000991FF1CF86957105610508940895E89413
:1019B000BB2766277727CB0197F908950E94690C0A
:1019C00008F48FEF08950E94F60C0C94A40C0E946A
:1019D000960C38F00E949D0C20F0952311F00C9489
:1019E0008D0C0C94930C11240C94D80C0E94B50C03
:1019F00070F3959FC1F3950F50E0551F629FF00162
:101A0000729FBB27F00DB11D639FAA27F00DB11D7A
:101A1000AA1F649F6627B00DA11D661F829F222703
:101A2000B00DA11D621F739FB00DA11D621F839F8A
:101A3000A00D611D221F749F3327A00D611D231F60
:101A4000849F600D211D822F762F6A2F11249F57AE
:101A500050409AF0F1F088234AF0EE0FFF1FBB1FB1
:101A6000661F771F881F91505040A9F79E3F510570
:101A700080F00C948D0C0C94D80C5F3FE4F3983EEE
:101A8000D4F3869577956795B795F795E7959F5F1A
:101A9000C1F7FE2B880F911D9695879597F90895AC
:101AA00097FB072E16F4009407D077FD09D00E940B
:101AB000730D07FC05D03EF4909581959F4F0895D6
:101AC000709561957F4F0895A29FB001B39FC001AB
:101AD000A39F700D811D1124911DB29F700D811D5A
:101AE0001124911D0895AA1BBB1B51E107C0AA1F19
:101AF000BB1FA617B70710F0A61BB70B881F991FAF
:101B00005A95A9F780959095BC01CD010895F89458
:021B1000FFCF05
:101B1200B036A861DC056D41006D56006D57002E90
:101B22000020200043434C00537570706C792043B1
:101B32006F6E6E6563746564003132762053757022
:101B4200706C79204E4300506F7765722045786340
:101B5200656564656400566F6C74616765204578DD
:101B62006365656465640043757272656E742045D1
:0E1B720078636565646564004572726F720089
:00000001FF
