:100000000C9434000C9451000C9451000C94510049
:100010000C9451000C9451000C9451000C9451001C
:100020000C9451000C9451000C9451000C9451000C
:100030000C9451000C9451000C9451000C945100FC
:100040000C9451000C9451000C9451000C945100EC
:100050000C9451000C94D4000C9451000C94510059
:100060000C9451000C94510011241FBECFEFD8E026
:10007000DEBFCDBF11E0A0E0B1E0E4E3F6E102C0F5
:1000800005900D92A233B107D9F721E0A2E3B1E0C8
:1000900001C01D92A935B207E1F70E9451080C94E6
:1000A000180B0C94000017B818B808958FE88093C7
:1000B0007A0083B7826083BF089583B7817F8260AF
:1000C00083BF83B7816083BF889583B78E7F83BFEB
:1000D0000895883050F480937C008FE99FE0019769
:1000E000F1F700C000000E945D0008958F929F927A
:1000F000AF92BF92DF92EF92FF920F931F93CF9335
:10010000DF93D82E062F10E01016110634F5C1E04B
:10011000D0E0812C912C5401E82EF12CC701880FDE
:10012000991F9C012D5A3E4F79018D2D0E94690027
:10013000F70140815181BA0180E090E00E94BD0941
:100140009B01AC01C501B4010E94A4084B015C01F4
:1001500021960C171D074CF703C0812C912C5401DC
:10016000CD2DD0E0B801110F880B990B0E94BF096B
:100170009B01AC01C501B4010E9415090E948E09C2
:10018000CC0FDD1FCD5ADE4F79836883888199813A
:10019000DF91CF911F910F91FF90EF90DF90BF9073
:1001A000AF909F908F9008951F920F920FB60F926D
:1001B00011242F933F934F938F939F93EF93FF932C
:1001C000E0917C004091780080917900EF70F0E040
:1001D00021E030E0811102C020E030E0EE0FFF1F8F
:1001E000ED5AFE4F3183208320813181322F222727
:1001F0003183208390E0982F8827840F911D91836D
:100200008083FF91EF919F918F914F913F912F911B
:100210000F900FBE0F901F9018956AE080E00E942B
:100220007600BC0180E090E00E94BD0927EE3BEF24
:1002300049EF5FE30E94740A2AE939E949E95EE37C
:100240000E94A40820913201309133014091340181
:10025000509135010E94A40860933E0170933F01C4
:10026000809340019093410108956AE081E00E94EB
:100270007600BC0180E090E00E94BD092CEE31E5E3
:100280004AEE51E40E94740A609342017093430164
:100290008093440190934501089520913E0130914F
:1002A0003F014091400150914101609142017091A4
:1002B000430180914401909145010E94740A20E01D
:1002C00030E04AE754E40E94150960933A017093C4
:1002D0003B0180933C0190933D0108956AE082E0E8
:1002E0000E947600BC0180E090E00E94BD0920E001
:1002F00030E040EF50E40E94740A6093360170933E
:10030000370180933801909339010895CF92DF929D
:10031000EF92FF920F931F93CF93DF93D82FC62FA7
:10032000C0903E01D0903F01E0904001F09041012B
:1003300020E030E04AE754E4C701B6010E9410090A
:10034000882374F4C701B6010E948E0900E011E011
:1003500024E030E0AB016C2F8D2F0E94B3043DC030
:1003600020E030E04AE754E4C701B6010E946F0A7A
:1003700088239CF120E030E04AE754E4C701B6014D
:100380000E9415090E948E0921E030E0AB016C2F1C
:100390008D2F0E94B90661E06C0F43E051E08D2F74
:1003A0000E94A20360913E0170913F018091400143
:1003B000909141010E948709CB0168EE73E00E9491
:1003C000E10A62E06C0F23E030E0AC018D2F0E9467
:1003D000B30381E091E00E948403DF91CF911F91EC
:1003E0000F91FF90EF90DF90CF900895CF92DF9222
:1003F000EF92FF920F931F93CF93DF93D82FC62FC7
:10040000C0904201D0904301E0904401F09045013A
:1004100020E030E04AE754E4C701B6010E94100929
:10042000882374F4C701B6010E948E0905E011E02B
:1004300024E030E0AB016C2F8D2F0E94B30485C007
:1004400020E030E04AE754E4C701B6010E946F0A99
:100450008823F4F120E030E44CE156E4C701B60112
:100460000E9410098823A4F520E030E04AE754E414
:10047000C701B6010E9415090E948E0921E030E0F3
:10048000AB016C2F8D2F0E94B90661E06C0F43E029
:1004900051E08D2F0E94A2036091420170914301AF
:1004A00080914401909145010E948709CB0168EE3B
:1004B00073E00E94E10A62E06C0F23E030E0AC01DF
:1004C0008D2F0E94B30388E091E00E9484033DC019
:1004D00020E030E44CE156E4C701B6010E946F0A07
:1004E00088239CF120E030E04AE754E4C701B601DC
:1004F0000E9415090E948E0922E030E0AB016C2FAA
:100500008D2F0E94B90662E06C0F43E051E08D2F01
:100510000E94A203609142017091430180914401C5
:10052000909145010E948709CB0168EE73E00E941B
:10053000E10A63E06C0F23E030E0AC018D2F0E94F4
:10054000B30386E091E00E948403DF91CF911F9175
:100550000F91FF90EF90DF90CF9008950F931F932E
:10056000CF93DF93C82FD62F60913A0170913B0152
:1005700080913C0190913D010E948E090BE011E0B9
:1005800025E030E0AB016D2F8C2F0E94B304DF918A
:10059000CF911F910F9108950F931F93CF93DF93E6
:1005A000C82FD62F609136017091370180913801A4
:1005B000909139010E948E0905E011E024E030E0BD
:1005C000AB016D2F8C2F0E94B304DF91CF911F914F
:1005D0000F910895982F881F8827881F96FD02C0C5
:1005E00020E001C022E0822B95FD02C020E001C086
:1005F00024E0822B94FD02C020E001C028E0822B81
:1006000093FD02C020E001C020E1822B92FD02C0D8
:1006100020E001C020E2822B91FD02C020E001C059
:1006200020E4822B90FD02C090E001C090E8892B6D
:100630000895CF93C82F807F0E94EA02880F880F09
:10064000809346019BB1937C9BB98BB190914601FD
:10065000982B9BB95F985E9A8FE19EE40197F1F722
:1006600000C000005E988C2F8295807F0E94EA0275
:100670009BB1937C9BB99BB1880F880F982B9BB93A
:100680005F985E9A8FE19EE40197F1F700C0000049
:100690005E98CF910895CF93C82F807F0E94EA0281
:1006A0009BB1937C9BB99BB1880F880F982B9BB90A
:1006B0005F9A5E9A8FE19EE40197F1F700C0000017
:1006C0005E988C2F8295807F0E94EA029BB1937C7A
:1006D0009BB99BB1880F880F982B9BB95F9A5E9A44
:1006E0008FE19EE40197F1F700C000005E98CF9182
:1006F00008958AB18C6F8AB98BB184708BB90895D3
:1007000080E80E9419030895CF93DF93EC0188815C
:10071000882331F021960E944B0389918111FBCFF0
:10072000DF91CF910895813019F0823031F0089532
:100730008FE7860F0E94190308958FEB860F0E94A2
:1007400019030895CF93DF93EA010E9493038881F0
:10075000882331F021960E944B0389918111FBCFB0
:10076000DF91CF9108950F931F93CF93DF938A0169
:10077000E901882311F0611103C00E94800302C0C7
:100780000E949303C530D105C9F498013295229592
:100790002F7023273F702327A7E4B3E00E94F50AB8
:1007A000969587959695879596958795C0969093FB
:1007B0004801809347010E944B0304C0C430D10517
:1007C00009F0C3C09801369527953695279536953B
:1007D0002795A5ECB0E20E94F50AAC01529542952E
:1007E0004F7045275F704527509352014093510148
:1007F0009A01ADECBCEC0E94F50A9695879596950A
:100800008795969587959C01220F331F880F991F16
:10081000880F991F880F991F820F931F9A01281B19
:10082000390BC901C09690934A01809349010E94F7
:100830004B0398013695279536952795ABE7B4E19C
:100840000E94F50AAC01569547955093520140938A
:1008500051019A01ADECBCEC0E94F50A9695879582
:1008600096958795969587959C01220F331F880F43
:10087000991F880F991F880F991F820F931F9A0144
:10088000281B390BC901C09690934C0180934B01F2
:100890000E944B0304C0C230D10509F05BC098012F
:1008A000ADECBCEC0E94F50AAC0156954795569507
:1008B00047955695479550935201409351019A019F
:1008C0000E94F50A969587959695879596958795B2
:1008D0009C01220F331F880F991F880F991F880FC3
:1008E000991F820F931F9A01281B390BC901C096CB
:1008F00090934E0180934D010E944B039801ADEC03
:10090000BCEC0E94F50A96958795969587959695E5
:1009100087959C01220F331F880F991F880F991FFD
:10092000880F991F820F931F9801281B390BC9014B
:10093000C0969093500180934F010E944B032697DD
:100940006CF085E40E944B0309C0C330D10509F067
:10095000A2CF6FCFC130D10591F7D0CFDF91CF912A
:100960001F910F910895CF92DF92EF92FF920F9314
:100970001F93CF936A017901882311F0611103C09D
:100980000E94800302C00E94930325E0E216F10456
:10099000F1F49601329522952F7023273F7023277B
:1009A000A7E4B3E00E94F50A9695879596958795FA
:1009B00096958795C0969093480180934701803320
:1009C000910509F476C00E944B03C1E073C034E086
:1009D000E316F10409F0DCC021C1CC2309F4A4C062
:1009E00001C0C0E00E944B03CF5F9EC0CC2309F43E
:1009F000D5C001C0C0E00E944B03CF5FCFC082E0F2
:100A0000E816F10409F0FCC079C1CC2339F001C02B
:100A1000C0E00E944B03CF5F01C0C0E09601ADEC87
:100A2000BCEC0E94F50A96958795969587959695C4
:100A300087959C01220F331F880F991F880F991FDC
:100A4000880F991F820F931FF601E81BF90BCF0146
:100A5000C0969093500180934F010E944B03CF5F4B
:100A6000F6E0EF16F1041CF085E40E944B03F80158
:100A70008081882309F4CBC00F5F1F4F0E944B0376
:100A8000CF5FFFEFEF1AFF0AF80181918F0181110B
:100A9000F5CF8C2F90E08E159F050CF062C180E29F
:100AA0000E944B03CF5F8C2F90E08E159F05B9F706
:100AB00058C1C0E09601369527953695279536950D
:100AC0002795A5ECB0E20E94F50AAC01529542953B
:100AD0004F7045275F704527509352014093510155
:100AE0009A01ADECBCEC0E94F50A96958795969517
:100AF0008795969587959C01220F331F880F991F24
:100B0000880F991F880F991F820F931F9A01281B26
:100B1000390BC901C09690934A01809349018033F3
:100B2000910509F05FCF59CF9601369527953695F7
:100B30002795ABE7B4E10E94F50AAC0156954795BD
:100B400050935201409351019A01ADECBCEC0E94CC
:100B5000F50A9695879596958795969587959C0124
:100B6000220F331F880F991F880F991F880F991F15
:100B7000820F931FFA01E81BF90BCF01C0969093E7
:100B80004C0180934B018033910509F034CF2ECF77
:100B9000F3E0EF16F10409F032CF7BC09601ADEC23
:100BA000BCEC0E94F50AAC015695479556954795C1
:100BB0005695479550935201409351019A010E94D6
:100BC000F50A9695879596958795969587959C01B4
:100BD000220F331F880F991F880F991F880F991FA5
:100BE000820F931F9A01281B390BC901C09690935D
:100BF0004E0180934D018033910509F00ACF05CF56
:100C000031E0E316F10409F408CFC0E029CF8C2FBE
:100C100090E08E159F050CF442CFA3C09601369547
:100C200027953695279536952795A5ECB0E20E9435
:100C3000F50AAC01529542954F7045275F704527E4
:100C400050935201409351019A01ADECBCEC0E94CB
:100C5000F50A9695879596958795969587959C0123
:100C6000220F331F880F991F880F991F880F991F14
:100C7000820F931FFA01E81BF90BCF01C0969093E6
:100C80004A01809349018033910509F0AACEC0E062
:100C90004BCF96013695279536952795ABE7B4E16E
:100CA0000E94F50AAC015695479550935201409326
:100CB00051019A01ADECBCEC0E94F50A969587951E
:100CC00096958795969587959C01220F331F880FDF
:100CD000991F880F991F880F991F820F931F9A01E0
:100CE000281B390BC901C09690934C0180934B018E
:100CF0008033910509F07ECEC0E050CF9601ADEC77
:100D0000BCEC0E94F50AAC0156954795569547955F
:100D10005695479550935201409351019A010E9474
:100D2000F50A9695879596958795969587959C0152
:100D3000220F331F880F991F880F991F880F991F43
:100D4000820F931FFA01E81BF90BCF01C096909315
:100D50004E0180934D018033910509F059CEC0E0DA
:100D60005DCECF911F910F91FF90EF90DF90CF90CC
:100D700008950F931F93CF93DF93EA01890188238E
:100D800011F0611103C00E94800302C00E9493030E
:100D900005301105E1F49E01329522952F7023272D
:100DA0003F702327A7E4B3E00E94F50A9695879544
:100DB0009695879596958795C096909348018093D0
:100DC00047018033910539F00E944B0304C0043081
:100DD000110509F0B0C09E013695279536952795E7
:100DE00036952795A5ECB0E20E94F50AAC01529524
:100DF00042954F7045275F704527509352014093AD
:100E000051019A01ADECBCEC0E94F50A96958795CC
:100E100096958795969587959C01220F331F880F8D
:100E2000991F880F991F880F991F820F931F9A018E
:100E3000281B390BC901C09690934A018093490140
:100E40008033910511F00E944B039E013695279542
:100E500036952795ABE7B4E10E94F50AAC015695AB
:100E6000479550935201409351019A01ADECBCEC6F
:100E70000E94F50A969587959695879596958795FC
:100E80009C01220F331F880F991F880F991F880F0D
:100E9000991F820F931F9A01281B390BC901C09615
:100EA00090934C0180934B018033910539F00E945F
:100EB0004B0304C00230110509F064C09E01ADEC83
:100EC000BCEC0E94F50AAC0156954795569547959E
:100ED0005695479550935201409351019A010E94B3
:100EE000F50A9695879596958795969587959C0191
:100EF000220F331F880F991F880F991F880F991F82
:100F0000820F931F9A01281B390BC901C096909339
:100F10004E0180934D018033910591F00E944B0367
:100F20000FC00E944B03063011050CF450C085E43D
:100F30000E944B034CC00330110509F0BBCF85CF95
:100F40009E01ADECBCEC0E94F50A969587959695AE
:100F50008795969587959C01220F331F880F991FBF
:100F6000880F991F880F991F820F931FC81BD90BD9
:100F7000CE01C0969093500180934F01803391052C
:100F800081F6D1CF0130110571F69E01ADECBCECBC
:100F90000E94F50A969587959695879596958795DB
:100FA0009C01220F331F880F991F880F991F880FEC
:100FB000991F820F931FC81BD90BCE01C096909327
:100FC000500180934F018033910509F0AACFDF9142
:100FD000CF911F910F9108958FE99FE00197F1F74D
:100FE00000C000005F9880E38BB95E9AEFE1FEE4F9
:100FF0003197F1F700C000005E98EFE9FFE031970C
:10100000F1F700C000005F988BB95E9AEFE1FEE453
:101010003197F1F700C000005E98EFE9FFE03197EB
:10102000F1F700C000005F988BB95E9A8FE19EE4F3
:101030000197F1F700C000005E98EFE9FFE03197FB
:10104000F1F700C000005F9880E18BB95E9A8FE9EC
:101050009FE00197F1F700C000005E98EFE9FFE024
:101060003197F1F700C0000088E20E94190381E087
:101070000E9419038CE00E94190380E80E94190362
:10108000089581E00E94190308950E9479030E9447
:1010900053000895F8940E94EC070E94560078943B
:1010A00008950E9445080E944A084EE051E067E01A
:1010B00081E00E94A2032FEF85EA9EE0215080404C
:1010C0009040E1F700C000001D9B07C042E151E0E5
:1010D00061E082E00E94A20312C043E251E062E0BC
:1010E00082E00E94A2038AE999E9A1EDB1E480932C
:1010F000320190933301A0933401B09335012FEF67
:101100008BE49DE1215080409040E1F700C0000059
:101110000E9441080E940D010E9435010E944D016C
:101120000E946E0161E081E00E9486016AE081E038
:101130000E94F60161E082E00E94AE026AE082E075
:101140000E94CC02E7CF5058BB27AA270E94BB08B9
:101150000C94350A0E94270A38F00E942E0A20F0CB
:1011600039F49F3F19F426F40C94240A0EF4E09508
:10117000E7FB0C941E0AE92F0E94460A58F3BA179F
:10118000620773078407950720F079F4A6F50C949D
:10119000680A0EF4E0950B2EBA2FA02D0B01B901B1
:1011A00090010C01CA01A0011124FF27591B99F0DD
:1011B000593F50F4503E68F11A16F040A22F232FE9
:1011C000342F4427585FF3CF469537952795A79539
:1011D000F0405395C9F77EF41F16BA0B620B730BE0
:1011E000840BBAF09150A1F0FF0FBB1F661F771F51
:1011F000881FC2F70EC0BA0F621F731F841F48F406
:10120000879577956795B795F7959E3F08F0B0CF8E
:101210009395880F08F09927EE0F97958795089575
:101220000E94FA0908F481E008950E9429090C94AB
:10123000350A0E942E0A58F00E94270A40F029F42D
:101240005F3F29F00C941E0A51110C94690A0C940A
:10125000240A0E94460A68F39923B1F3552391F3B7
:10126000951B550BBB27AA2762177307840738F015
:101270009F5F5F4F220F331F441FAA1FA9F335D072
:101280000E2E3AF0E0E832D091505040E695001C26
:10129000CAF72BD0FE2F29D0660F771F881FBB1FE0
:1012A000261737074807AB07B0E809F0BB0B802DBE
:1012B000BF01FF2793585F4F3AF09E3F510578F0EA
:1012C0000C941E0A0C94690A5F3FE4F3983ED4F331
:1012D000869577956795B795F7959F5FC9F7880FBE
:1012E000911D9695879597F90895E1E0660F771F10
:1012F000881FBB1F621773078407BA0720F0621BA1
:10130000730B840BBA0BEE1F88F7E09508950E94CB
:101310008E096894B1110C94690A08950E944E0ACE
:1013200088F09F5798F0B92F9927B751B0F0E1F0A6
:10133000660F771F881F991F1AF0BA95C9F714C056
:10134000B13091F00E94680AB1E008950C94680AE7
:10135000672F782F8827B85F39F0B93FCCF386958F
:1013600077956795B395D9F73EF4909580957095EC
:1013700061957F4F8F4F9F4F0895E89409C097FB69
:101380003EF490958095709561957F4F8F4F9F4F5C
:101390009923A9F0F92F96E9BB279395F6958795A0
:1013A00077956795B795F111F8CFFAF4BB0F11F463
:1013B00060FF1BC06F5F7F4F8F4F9F4F16C088230A
:1013C00011F096E911C0772321F09EE8872F762F40
:1013D00005C0662371F096E8862F70E060E02AF081
:1013E0009A95660F771F881FDAF7880F969587956D
:1013F00097F90895990F0008550FAA0BE0E8FEEF42
:1014000016161706E807F907C0F012161306E407C8
:10141000F50798F0621B730B840B950B39F40A26C1
:1014200061F0232B242B252B21F408950A2609F49F
:10143000A140A6958FEF811D811D089597F99F67A3
:1014400080E870E060E008959FEF80EC089500244C
:101450000A941616170618060906089500240A9419
:1014600012161306140605060895092E0394000C9F
:1014700011F4882352F0BB0F40F4BF2B11F460FF2E
:1014800004C06F5F7F4F8F4F9F4F089557FD905857
:10149000440F551F59F05F3F71F04795880F97FB38
:1014A000991F61F09F3F79F08795089512161306F2
:1014B0001406551FF2CF4695F1DF08C01616170621
:1014C0001806991FF1CF8695710561050894089556
:1014D000E894BB2766277727CB0197F908950E94E8
:1014E000FA0908F48FEF08950E94870A0C94350AD0
:1014F0000E94270A38F00E942E0A20F0952311F04E
:101500000C941E0A0C94240A11240C94690A0E945B
:10151000460A70F3959FC1F3950F50E0551F629FE7
:10152000F001729FBB27F00DB11D639FAA27F00D3C
:10153000B11DAA1F649F6627B00DA11D661F829F63
:101540002227B00DA11D621F739FB00DA11D621F48
:10155000839FA00D611D221F749F3327A00D611D65
:10156000231F849F600D211D822F762F6A2F112447
:101570009F5750409AF0F1F088234AF0EE0FFF1F7A
:10158000BB1F661F771F881F91505040A9F79E3FD1
:10159000510580F00C941E0A0C94690A5F3FE4F335
:1015A000983ED4F3869577956795B795F795E79527
:1015B0009F5FC1F7FE2B880F911D9695879597F930
:1015C000089597FB072E16F4009407D077FD09D0F5
:1015D0000E94040B07FC05D03EF4909581959F4F27
:1015E0000895709561957F4F0895A29FB001B39FB4
:1015F000C001A39F700D811D1124911DB29F700D1C
:10160000811D1124911D0895AA1BBB1B51E107C028
:10161000AA1FBB1FA617B70710F0A61BB70B881F82
:10162000991F5A95A9F780959095BC01CD01089511
:04163000F894FFCF5C
:101634006D41002E006D56005620006D5700434347
:101644004C00537570706C7920436F6E6E656374D3
:1016540065640031327620537570706C79204E4386
:02166400000084
:00000001FF
