:100000000C9434000C9451000C9451000C94510049
:100010000C9451000C9451000C9451000C9451001C
:100020000C9451000C9451000C9451000C9451000C
:100030000C9451000C9451000C9451000C945100FC
:100040000C9451000C9451000C9451000C945100EC
:100050000C9451000C94D3000C9451000C9451005A
:100060000C9451000C94510011241FBECFEFD8E026
:10007000DEBFCDBF11E0A0E0B1E0EAE5F9E102C0EA
:1000800005900D92AE36B107D9F721E0AEE6B1E0AA
:1000900001C01D92AE38B207E1F70E9484090C94AA
:1000A000AB0C0C94000017B818B808958FE8809333
:1000B0007A0083B7826083BF089583B7817F8260AF
:1000C00083BF83B7816083BF889583B78E7F83BFEB
:1000D0000895883050F480937C008FE99FE0019769
:1000E000F1F700C000000E945D0008958F929F927A
:1000F000AF92BF92DF92EF92FF920F931F93CF9335
:10010000DF93D82E062F10E0101611062CF5C1E053
:10011000D0E0812C912C5401E82EF12CC701880FDE
:10012000991F9C0128573E4F79018D2D0E9469002F
:10013000F7016081718180E090E00E94500B9B018B
:10014000AC01C501B4010E94370A4B015C01219644
:100150000C171D0754F703C0812C912C5401CD2D91
:10016000D0E0B801110F880B990B0E94520B9B0134
:10017000AC01C501B4010E94A80A0E94210BCC0F5A
:10018000DD1FC857DE4F7983688388819981DF91AD
:10019000CF911F910F91FF90EF90DF90BF90AF90A4
:1001A0009F908F9008951F920F920FB60F92112477
:1001B0002F933F934F938F939F93EF93FF93E091F0
:1001C0007C004091780080917900EF70F0E021E0B0
:1001D00030E0811102C020E030E0EE0FFF1FE85751
:1001E000FE4F3183208320813181322F22273183BA
:1001F000208390E0982F8827840F911D918380831E
:10020000FF91EF919F918F914F913F912F910F907F
:100210000FBE0F901F90189565E080E00E94760059
:10022000BC0180E090E00E94500B27EE3BEF49EFCD
:100230005FE30E94070C2AE939E949E95EE30E947D
:10024000370A20916F0130917001409171015091F6
:1002500072010E94370A60937F017093800180933E
:100260008101909382010895CF92DF92EF92FF92E5
:1002700065E081E00E947600BC0180E090E00E9491
:10028000500B2CEE31E54AEE51E40E94070C6B0155
:100290007C010E941A0BCB016AE070E00E94880C7E
:1002A000BC01990F880B990B0E94520B9B01AC016A
:1002B000C701B6010E94360A6093830170938401DE
:1002C0008093850190938601FF90EF90DF90CF900F
:1002D00008958F929F92AF92BF92CF92DF92EF924A
:1002E000FF92CF93DF93C0907F01D0908001E09088
:1002F0008101F0908201209183013091840140912D
:10030000850150918601C701B6010E94070C20E0CB
:1003100030E04AE754E40E94A80A4B015C010E94C5
:100320001A0BCAE0D0E0CB01BE010E94880CBC01D0
:10033000990F880B990B0E94520B9B01AC01C501D0
:10034000B4010E94360A4B015C0160937B017093FB
:100350007C0180937D0190937E01A7019601C701E6
:10036000B6010E94070C20E030E04AE754E40E9406
:10037000A80A9B01AC01C501B4010E94360A6B01B9
:100380007C010E941A0BCB01BE010E94880CBC01AB
:10039000990F880B990B0E94520B9B01AC01C7016E
:1003A000B6010E94360A60937701709378018093BA
:1003B000790190937A01DF91CF91FF90EF90DF90D8
:1003C000CF90BF90AF909F908F900895CF92DF9283
:1003D000EF92FF926AE082E00E947600BC0180E02A
:1003E00090E00E94500B2AE037ED4BE251E40E946E
:1003F000070C6B017C010E941A0BCB016AE070E0D4
:100400000E94880CBC01990F880B990B0E94520B1B
:100410009B01AC01C701B6010E94360A60937301CB
:10042000709374018093750190937601FF90EF9023
:10043000DF90CF900895EF92FF920F931F9320913A
:100440007F013091800140918101509182010F2EF6
:10045000F7E0EF2EF1E0FF2EF02D06E011E00E9414
:10046000CE081F910F91FF90EF900895EF92FF92A9
:100470000F931F9320918301309184014091850156
:10048000509186010F2EFAE0EF2EF1E0FF2EF02DB5
:1004900009E011E00E94CE081F910F91FF90EF90AC
:1004A0000895EF92FF920F931F9320917B0130915B
:1004B0007C0140917D0150917E010F2EFDE0EF2ED9
:1004C000F1E0FF2EF02D0CE011E00E94CE081F910C
:1004D0000F91FF90EF900895EF92FF920F931F936B
:1004E00020917701309178014091790150917A0102
:1004F0000F2EFDE0EF2EF1E0FF2EF02D0CE011E0CD
:100500000E94CE081F910F91FF90EF900895AF9237
:10051000BF92CF92DF92EF92FF920F931F93CF93F0
:10052000DF93C0910401D0910501C0907F01D0906C
:100530008001E0908101F0908201BE010D2E000C3F
:10054000880B990B0E94520BA70196010E94020C86
:1005500018160CF04BC00091020110910301B80174
:10056000012E000C880B990B0E94520B20918301E5
:100570003091840140918501509186010E94020CC6
:100580001816A4F5A0900001B0900101B5010B2C44
:10059000000C880B990B0E94520B2091770130912F
:1005A00078014091790150917A010E94020C18164D
:1005B000ECF480916E01813009F079C08CE0A81ACA
:1005C0008EEFB80AB0920101A09200010053184FBB
:1005D0001093030100930201CC59DF4FD093050122
:1005E000C093040110926E0180E068C080916E019A
:1005F00081111DC08091000190910101845F9140A3
:100600009093010180930001809102019091030178
:10061000805D97409093030180930201C456D109F5
:10062000D0930501C093040181E080936E01609135
:10063000000170910101072E000C880B990B0E949C
:10064000520B2091770130917801409179015091BE
:100650007A010E94A30A882364F1609102017091DB
:100660000301072E000C880B990B0E94520B20915E
:1006700083013091840140918501509186010E944F
:10068000A30A8823C4F06091040170910501072E2C
:10069000000C880B990B0E94520B9B01AC01C70107
:1006A000B6010E94020C181644F084E007C080E0F6
:1006B00005C081E003C082E001C083E0DF91CF91FB
:1006C0001F910F91FF90EF90DF90CF90BF90AF9070
:1006D0000895982F991F9927991F86FD02C020E041
:1006E00001C022E0922B85FD02C020E001C024E081
:1006F000922B84FD02C020E001C028E0922B83FDF4
:1007000002C020E001C020E1922B82FD02C020E067
:1007100001C020E2922B81FD02C020E001C020E454
:10072000922B80FD02C080E001C080E8892B0895F3
:10073000CF93C82F807F0E946903880F880F809312
:1007400087018BB1837C8BB99BB180918701892B09
:100750008BB95F985E9A8FE19EE40197F1F700C034
:1007600000005E988C2F8295807F0E9469039BB168
:10077000937C9BB99BB1880F880F982B9BB95F988E
:100780005E9A8FE19EE40197F1F700C000005E9849
:10079000CF9108958AB18C6F8AB98BB184708BB96F
:1007A0000895CF93C82F807F0E9469039BB1937CEB
:1007B0009BB99BB1880F880F982B9BB95F9A5E9A63
:1007C0008FE19EE40197F1F700C000005E988C2F46
:1007D0008295807F0E9469039BB1937C9BB99BB1FA
:1007E000880F880F982B9BB95F9A5E9A8FE19EE4E1
:1007F0000197F1F700C000005E98CF91089580E85E
:100800000E9498030895CF93DF93EC018881882399
:1008100031F021960E94D10389918111FBCFDF91A4
:10082000CF910895813019F0823031F008958FE72B
:10083000860F0E94980308958FEB860F0E949803FD
:100840000895CF93DF93EA010E94120488818823E0
:1008500031F021960E94D10389918111FBCFDF9164
:10086000CF9108958FE99FE00197F1F700C0000054
:100870005F9880E38BB95E9AEFE1FEE43197F1F780
:1008800000C000005E98EFE9FFE03197F1F700C08B
:1008900000005F988BB95E9AEFE1FEE43197F1F7C3
:1008A00000C000005E98EFE9FFE03197F1F700C06B
:1008B00000005F988BB95E9A8FE19EE40197F1F793
:1008C00000C000005E98EFE9FFE03197F1F700C04B
:1008D00000005F9880E18BB95E9A8FE99FE00197F5
:1008E000F1F700C000005E98EFE9FFE03197F1F703
:1008F00000C0000088E20E94980381E00E949803F3
:100900008CE00E94980380E80E949803089581E09B
:100910000E9498030895CF92DF92EF92FF920F9377
:100920001F93CF93DF937A0169014115510509F4B3
:10093000E6C040FD0CC09A01C0E002C020FD08C026
:10094000CF5F3695279521153105C1F701C0C0E06D
:10095000882311F0611103C00E94FF0302C00E94AE
:10096000120425E0C216D10409F0D8C097013295CF
:1009700022952F7023273F702327A7E4B3E00E941E
:100980009C0C969587959695879596958795805D0D
:100990000E94D10397013695279536952795369570
:1009A0002795A5ECB0E20E949C0CAC0152954295B3
:1009B0004F7045275F7045279A01ADECBCEC0E9453
:1009C0009C0C9695879596958795969587959C010D
:1009D000220F331F880F991F880F991F880F991FA7
:1009E000820F931FFA01E81BF90BCF01805D0E9473
:1009F000D10304C0F3E0CF16D10451F59701369529
:100A0000279536952795ABE7B4E10E949C0CAC0185
:100A1000569547959A01ADECBCEC0E949C0C9695BE
:100A2000879596958795969587959C01220F331FFC
:100A3000880F991F880F991F880F991F820F931F86
:100A40009A01281B390BC901805D0E94D10305C0A2
:100A500032E0C316D10409F067C09701ADECBCECDD
:100A60000E949C0CAC015695479556954795569516
:100A700047959A010E949C0C969587959695879527
:100A8000969587959C01220F331F880F991F880F19
:100A9000991F880F991F820F931FFA01E81BF90B0A
:100AA000CF01805D0E94D103C1111DC09701ADEC43
:100AB000BCEC0E949C0C969587959695879596958B
:100AC00087959C01220F331F880F991F880F991F4C
:100AD000880F991F820F931F9701281B390BC9019B
:100AE000805D0E94D10336E0C316D1041CF085E47A
:100AF0000E94D103F8018081811108C01CC080E3ED
:100B00000E94D10380E30E94D103F4CFE801219633
:100B10000E94D10389918111FBCF0DC0F4E0CF1663
:100B2000D10409F067CF36CF21E0C216D104D9F63F
:100B3000C111E0CFBBCFDF91CF911F910F91FF90FB
:100B4000EF90DF90CF900895CF92DF92EF92FF92D7
:100B50000F931F93CF936A017901882311F06111DC
:100B600003C00E94FF0302C00E94120425E0E216A7
:100B7000F10409F0B9C09601329522952F70232710
:100B80003F702327A7E4B3E00E949C0C96958795BD
:100B90009695879596958795C0968033910509F42B
:100BA00070C00E94D103C1E06DC0C11102C0A2C0DB
:100BB000C0E00E94D103CF5F9DC033E0E316F10493
:100BC00051F42FC1CC2309F4C1C001C0C0E00E9480
:100BD000D103CF5FBBC082E0E816F10409F0E0C0AA
:100BE0004DC1CC2339F001C0C0E00E94D103CF5FDA
:100BF00001C0C0E09601ADECBCEC0E949C0C969547
:100C0000879596958795969587959C01220F331F1A
:100C1000880F991F880F991F880F991F820F931FA4
:100C2000F601E81BF90BCF01805D0E94D103CF5F75
:100C3000F6E0EF16F1041CF085E40E94D103F80100
:100C40008081882309F4B3C00F5F1F4F0E94D10336
:100C5000CF5FFFEFEF1AFF0AF80181918F01811139
:100C6000F5CF8C2F90E08E159F050CF032C180E2FD
:100C70000E94D103CF5F8C2F90E08E159F05B9F7AE
:100C800028C1C0E09601369527953695279536956B
:100C90002795A5ECB0E20E949C0CAC0152954295C0
:100CA0004F7045275F7045279A01ADECBCEC0E9460
:100CB0009C0C9695879596958795969587959C011A
:100CC000220F331F880F991F880F991F880F991FB4
:100CD000820F931F9A01281B390BC901C0968033DC
:100CE000910509F462CF65CF34E0E316F10409F011
:100CF00064CF64C096013695279536952795ABE766
:100D0000B4E10E949C0CAC01569547959A01ADEC5C
:100D1000BCEC0E949C0C9695879596958795969528
:100D200087959C01220F331F880F991F880F991FE9
:100D3000880F991F820F931FFA01E81BF90BCF014F
:100D4000C0968033910509F042CF3CCF9601ADECBF
:100D5000BCEC0E949C0CAC01569547955695479566
:100D6000569547959A010E949C0C96958795969565
:100D70008795969587959C01220F331F880F991FA1
:100D8000880F991F880F991F820F931F9A01281BA4
:100D9000390BC901C0968033910509F026CF21CFC8
:100DA00031E0E316F10409F424CFC0E041CF8C2FE9
:100DB00090E08E159F050CF45ACF8BC096013695A6
:100DC00027953695279536952795A5ECB0E20E9494
:100DD0009C0CAC01529542954F7045275F7045279A
:100DE0009A01ADECBCEC0E949C0C9695879596956B
:100DF0008795969587959C01220F331F880F991F21
:100E0000880F991F880F991F820F931FFA01E81B03
:100E1000F90BCF01C0968033910509F0C9CEC0E02F
:100E200069CF96013695279536952795ABE7B4E1BE
:100E30000E949C0CAC01569547959A01ADECBCEC18
:100E40000E949C0C96958795969587959695879583
:100E50009C01220F331F880F991F880F991F880F3D
:100E6000991F820F931F9A01281B390BC901C09645
:100E70008033910509F0AACEC0E068CF9601ADECB1
:100E8000BCEC0E949C0CAC01569547955695479535
:100E9000569547959A010E949C0C96958795969534
:100EA0008795969587959C01220F331F880F991F70
:100EB000880F991F880F991F820F931FFA01E81B53
:100EC000F90BCF01C0968033910509F08DCEC0E0BB
:100ED00091CECF911F910F91FF90EF90DF90CF9027
:100EE0000895FF920F931F93CF93DF938A01E90137
:100EF000882311F0611103C00E94FF0302C00E9409
:100F00001204C530D10509F08FC0980132952295A1
:100F10002F7023273F702327A7E4B3E00E949C0C87
:100F2000969587959695879596958795C0968033E3
:100F3000910509F446C00E94D103FF24F39442C0F6
:100F4000F11002C076C0F12C0E94D103F39471C05D
:100F5000C330D10551F4FBC0FF2009F496C001C095
:100F6000F12C0E94D103F39490C0C230D10509F056
:100F7000B6C0FEC0F1100E94D1039801ADECBCECEC
:100F80000E949C0C96958795969587959695879542
:100F90009C01220F331F880F991F880F991F880FFC
:100FA000991F820F931F9801281B390BC901805D7F
:100FB0000E94D10326970CF4EBC085E40E94D10374
:100FC000E7C0F12C980136952795369527953695EB
:100FD0002795A5ECB0E20E949C0CAC01529542957D
:100FE0004F7045275F7045279A01ADECBCEC0E941D
:100FF0009C0C9695879596958795969587959C01D7
:10100000220F331F880F991F880F991F880F991F70
:10101000820F931F9A01281B390BC901C096803398
:10102000910509F48DCF90CFC430D10509F090CF50
:101030005BC098013695279536952795ABE7B4E1C7
:101040000E949C0CAC01569547959A01ADECBCEC06
:101050000E949C0C96958795969587959695879571
:101060009C01220F331F880F991F880F991F880F2B
:10107000991F820F931F9A01281B390BC901C09633
:101080008033910509F06DCF67CF9801ADECBCECD2
:101090000E949C0CAC0156954795569547955695E0
:1010A00047959A010E949C0C9695879596958795F1
:1010B000969587959C01220F331F880F991F880FE3
:1010C000991F880F991F820F931F9A01281B390BB4
:1010D000C901C0968033910509F04DCF4BCFC13087
:1010E000D10509F067CF49CF9801369527953695F8
:1010F000279536952795A5ECB0E20E949C0CAC0193
:10110000529542954F7045275F7045279A01ADEC87
:10111000BCEC0E949C0C9695879596958795969524
:1011200087959C01220F331F880F991F880F991FE5
:10113000880F991F820F931F9A01281B390BC90131
:10114000C0968033910509F0FECEF12C72CFC80114
:1011500064E670E00E94740CCB016AE070E00E94CB
:10116000740CC0968033910509F0FACEF12C8DCF26
:101170002AE030E0C801B9010E94740CCB01B9012A
:101180000E94740CC0968033910509F0F4CEF5CE20
:10119000DF91CF911F910F91FF9008958F929F92B1
:1011A000AF92BF92EF92FF920F931F93CF93DF9373
:1011B000D82FC62F49015A0120E030E04AE754E415
:1011C000C501B4010E94A30A882364F4C501B401D7
:1011D0000E94210B24E030E0AB016C2F8D2F0E9488
:1011E000A4057BC020E030E04AE754E4C501B40127
:1011F0000E94020C8823CCF120E030E44CE156E45C
:10120000C501B4010E94A30A88237CF520E030E0E8
:101210004AE754E4C501B4010E94A80A0E94210BC8
:1012200021E030E0AB016C2F8D2F0E94710761E04F
:101230006C0F4FE051E08D2F0E942104C501B401D5
:101240000E941A0BCB0168EE73E00E94880C62E0EA
:101250006C0F870123E030E0AC018D2F0E948B04DE
:1012600081E191E00E94030438C020E030E44CE1C9
:1012700056E4C501B4010E94020C882374F120E0F9
:1012800030E04AE754E4C501B4010E94A80A0E9474
:10129000210B22E030E0AB016C2F8D2F0E947107F3
:1012A00062E06C0F4FE051E08D2F0E942104C501D8
:1012B000B4010E941A0BCB0168EE73E00E94880C07
:1012C00063E06C0F870123E030E0AC018D2F0E94BA
:1012D0008B0482E191E00E940304DF91CF911F9182
:1012E0000F91FF90EF90BF90AF909F908F900895D7
:1012F0000E94CA030E9453000895F8940E94320489
:101300000E945600789408950E9478090E947D09F1
:1013100044E151E067E081E00E9421042FEF85EA7B
:101320009EE0215080409040E1F700C000001D9BEE
:1013300013C048E151E061E082E00E94210480E0B6
:1013400090E0A0E8B0E480936F0190937001A093C7
:101350007101B093720112C049E251E062E082E093
:101360000E9421048AE999E9A9EFB1E480936F0111
:1013700090937001A0937101B09372012FEF8BE4F1
:101380009DE1215080409040E1F700C000000E94A4
:10139000870410E0D3E004E00E940C010E943401B5
:1013A0000E9469010E94E6010E948702811111C01A
:1013B00061E081E00E941B026AE081E00E94360247
:1013C00061E082E00E9451026AE082E00E946C02C9
:1013D000E3CF0E948704C12F42C00E940C010E94EB
:1013E00034010E9469010E94E6010E948702823056
:1013F00089F08330E9F0813049F561E00E945102C3
:10140000C13069F147E351E061E082E00E942104CC
:10141000C1E025C061E081E00E943602C230F9F0EF
:1014200046E451E061E082E00E942104C2E017C07E
:1014300061E081E00E941B02C33089F047E551E082
:1014400061E082E00E942104CD2F09C0C11107C0D4
:1014500048E651E066E081E00E942104C02F0E942E
:1014600087028111BACF0E94870496CF5058BB27BC
:10147000AA270E944E0A0C94C80B0E94BA0B38F09F
:101480000E94C10B20F039F49F3F19F426F40C940C
:10149000B70B0EF4E095E7FB0C94B10BE92F0E941B
:1014A000D90B58F3BA17620773078407950720F022
:1014B00079F4A6F50C94FB0B0EF4E0950B2EBA2FE5
:1014C000A02D0B01B90190010C01CA01A00111244A
:1014D000FF27591B99F0593F50F4503E68F11A16F6
:1014E000F040A22F232F342F4427585FF3CF469587
:1014F00037952795A795F0405395C9F77EF41F16A9
:10150000BA0B620B730B840BBAF09150A1F0FF0F72
:10151000BB1F661F771F881FC2F70EC0BA0F621F5E
:10152000731F841F48F4879577956795B795F7954E
:101530009E3F08F0B0CF9395880F08F09927EE0FE3
:101540009795879508950E948D0B08F481E0089582
:101550000E94BC0A0C94C80B0E94C10B58F00E9458
:10156000BA0B40F029F45F3F29F00C94B10B5111F4
:101570000C94FC0B0C94B70B0E94D90B68F39923C5
:10158000B1F3552391F3951B550BBB27AA2762177F
:101590007307840738F09F5F5F4F220F331F441F8C
:1015A000AA1FA9F335D00E2E3AF0E0E832D09150C0
:1015B0005040E695001CCAF72BD0FE2F29D0660FAD
:1015C000771F881FBB1F261737074807AB07B0E8F0
:1015D00009F0BB0B802DBF01FF2793585F4F3AF0F6
:1015E0009E3F510578F00C94B10B0C94FC0B5F3FBF
:1015F000E4F3983ED4F3869577956795B795F7957C
:101600009F5FC9F7880F911D9695879597F9089563
:10161000E1E0660F771F881FBB1F621773078407FF
:10162000BA0720F0621B730B840BBA0BEE1F88F70E
:10163000E09508950E94210B6894B1110C94FC0B65
:1016400008950E94E10B88F09F5798F0B92F9927D1
:10165000B751B0F0E1F0660F771F881F991F1AF09D
:10166000BA95C9F714C0B13091F00E94FB0BB1E0FC
:1016700008950C94FB0B672F782F8827B85F39F0FB
:10168000B93FCCF3869577956795B395D9F73EF436
:1016900090958095709561957F4F8F4F9F4F0895DE
:1016A000E89409C097FB3EF49095809570956195FC
:1016B0007F4F8F4F9F4F9923A9F0F92F96E9BB27B2
:1016C0009395F695879577956795B795F111F8CF2E
:1016D000FAF4BB0F11F460FF1BC06F5F7F4F8F4F99
:1016E0009F4F16C0882311F096E911C0772321F08F
:1016F0009EE8872F762F05C0662371F096E8862F27
:1017000070E060E02AF09A95660F771F881FDAF77D
:10171000880F9695879597F90895990F0008550FAA
:10172000AA0BE0E8FEEF16161706E807F907C0F067
:1017300012161306E407F50798F0621B730B840B6F
:10174000950B39F40A2661F0232B242B252B21F449
:1017500008950A2609F4A140A6958FEF811D811DE9
:10176000089597F99F6780E870E060E008959FEF23
:1017700080EC089500240A94161617061806090628
:10178000089500240A9412161306140605060895F7
:10179000092E0394000C11F4882352F0BB0F40F47F
:1017A000BF2B11F460FF04C06F5F7F4F8F4F9F4FBF
:1017B000089557FD9058440F551F59F05F3F71F041
:1017C0004795880F97FB991F61F09F3F79F08795A8
:1017D0000895121613061406551FF2CF4695F1DF31
:1017E00008C0161617061806991FF1CF86957105C1
:1017F000610508940895E894BB2766277727CB01F5
:1018000097F908950E948D0B08F48FEF08950E94B8
:101810001A0C0C94C80B0E94BA0B38F00E94C10B32
:1018200020F0952311F00C94B10B0C94B70B1124FC
:101830000C94FC0B0E94D90B70F3959FC1F3950F8C
:1018400050E0551F629FF001729FBB27F00DB11D44
:10185000639FAA27F00DB11DAA1F649F6627B00DD4
:10186000A11D661F829F2227B00DA11D621F739FBD
:10187000B00DA11D621F839FA00D611D221F749FCB
:101880003327A00D611D231F849F600D211D822F12
:10189000762F6A2F11249F5750409AF0F1F0882339
:1018A0004AF0EE0FFF1FBB1F661F771F881F915066
:1018B0005040A9F79E3F510580F00C94B10B0C9459
:1018C000FC0B5F3FE4F3983ED4F3869577956795DC
:1018D000B795F795E7959F5FC1F7FE2B880F911D90
:1018E0009695879597F90895AA1BBB1B51E107C0F0
:1018F000AA1FBB1FA617B70710F0A61BB70B881FA0
:10190000991F5A95A9F780959095BC01CD0108952E
:1019100097FB072E16F4009407D077FD09D00E949C
:10192000740C07FC05D03EF4909581959F4F089567
:10193000709561957F4F0895A29FB001B39FC0013C
:10194000A39F700D811D1124911DB29F700D811DEB
:0A1950001124911D0895F894FFCFB3
:10195A00B036A861DC056D41006D56006D57002E4A
:10196A000020200043434C00537570706C7920436B
:10197A006F6E6E65637465640031327620537570DC
:10198A00706C79204E4300506F77657220457863FA
:10199A00656564656400566F6C7461676520457897
:1019AA006365656465640043757272656E7420458B
:0E19BA0078636565646564004572726F720043
:00000001FF
