:100000000C9434000C9451000C9451000C94510049
:100010000C9451000C9451000C9451000C9451001C
:100020000C9451000C9451000C9451000C9451000C
:100030000C9451000C9451000C9451000C945100FC
:100040000C9451000C9451000C9451000C945100EC
:100050000C9451000C94D3000C9451000C9451005A
:100060000C9451000C94510011241FBECFEFD8E026
:10007000DEBFCDBF11E0A0E0B1E0E4EAF9E102C0EB
:1000800005900D92A038B107D9F721E0A0E8B1E0C2
:1000900001C01D92A13AB207E1F70E94AB090C948E
:1000A000D00C0C94000017B818B808958FE880930E
:1000B0007A0083B7826083BF089583B7817F8260AF
:1000C00083BF83B7816083BF889583B78E7F83BFEB
:1000D0000895883050F480937C008FE99FE0019769
:1000E000F1F700C000000E945D0008958F929F927A
:1000F000AF92BF92DF92EF92FF920F931F93CF9335
:10010000DF93D82E062F10E0101611062CF5C1E053
:10011000D0E0812C912C5401E82EF12CC701880FDE
:10012000991F9C0125563E4F79018D2D0E94690033
:10013000F7016081718180E090E00E94750B9B0166
:10014000AC01C501B4010E945C0A4B015C0121961F
:100150000C171D0754F703C0812C912C5401CD2D91
:10016000D0E0B801110F880B990B0E94770B9B010F
:10017000AC01C501B4010E94CD0A0E94460BCC0F10
:10018000DD1FC556DE4F7983688388819981DF91B1
:10019000CF911F910F91FF90EF90DF90BF90AF90A4
:1001A0009F908F9008951F920F920FB60F92112477
:1001B0002F933F934F938F939F93EF93FF93E091F0
:1001C0007C004091780080917900EF70F0E021E0B0
:1001D00030E0811102C020E030E0EE0FFF1FE55655
:1001E000FE4F3183208320813181322F22273183BA
:1001F000208390E0982F8827840F911D918380831E
:10020000FF91EF919F918F914F913F912F910F907F
:100210000FBE0F901F90189565E080E00E94760059
:10022000BC0180E090E00E94750B27EE3BEF49EFA8
:100230005FE30E942C0C2AE939E949E95EE30E9458
:100240005C0A209182013091830140918401509198
:1002500085010E945C0A60939201709393018093E0
:100260009401909395010895CF92DF92EF92FF92BF
:1002700065E081E00E947600BC0180E090E00E9491
:10028000750B2CEE31E54AEE51E40E942C0C6B010B
:100290007C010E943F0BCB016AE070E00E94AD0C34
:1002A000BC01990F880B990B0E94770B9B01AC0145
:1002B000C701B6010E945B0A609396017093970193
:1002C0008093980190939901FF90EF90DF90CF90E9
:1002D00008958F929F92AF92BF92CF92DF92EF924A
:1002E000FF92CF93DF93C0909201D0909301E09062
:1002F0009401F090950120919601309197014091E1
:10030000980150919901C701B6010E942C0C20E080
:1003100030E04AE754E40E94CD0A4B015C010E94A0
:100320003F0BCAE0D0E0CB01BE010E94AD0CBC0186
:10033000990F880B990B0E94770B9B01AC01C501AB
:10034000B4010E945B0A4B015C0160938E017093C3
:100350008F018093900190939101A7019601C701AD
:10036000B6010E942C0C20E030E04AE754E40E94E1
:10037000CD0A9B01AC01C501B4010E945B0A6B016F
:100380007C010E943F0BCB01BE010E94AD0CBC0161
:10039000990F880B990B0E94770B9B01AC01C70149
:1003A000B6010E945B0A60938A0170938B0180936F
:1003B0008C0190938D01DF91CF91FF90EF90DF90B2
:1003C000CF90BF90AF909F908F900895CF92DF9283
:1003D000EF92FF926AE082E00E947600BC0180E02A
:1003E00090E00E94750B2AE037ED4BE251E40E9449
:1003F0002C0C6B017C010E943F0BCB016AE070E08A
:100400000E94AD0CBC01990F880B990B0E94770BD1
:100410009B01AC01C701B6010E945B0A6093860193
:10042000709387018093880190938901FF90EF90EA
:10043000DF90CF900895EF92FF920F931F9320913A
:1004400092013091930140919401509195010F2EAA
:10045000F9E0EF2EF1E0FF2EF02D08E011E00E9410
:10046000F5081F910F91FF90EF900895EF92FF9282
:100470000F931F932091960130919701409198011D
:10048000509199010F2EFCE0EF2EF1E0FF2EF02DA0
:100490000BE011E00E94F5081F910F91FF90EF9083
:1004A0000895EF92FF920F931F9320918E01309148
:1004B0008F0140919001509191010F2EFFE0EF2E9E
:1004C000F1E0FF2EF02D0EE011E00E94F5081F91E3
:1004D0000F91FF90EF900895CF93DF93C0910001AB
:1004E000D0910101BE010D2E000C880B990B0E94CA
:1004F000770B20918A0130918B0140918C015091B2
:100500008D010E94C80A8823A4F480918101811181
:1005100009C0C45FD140D0930101C093000181E0C4
:100520008093810141E151E06AE082E00E94480449
:1005300012C080918101813041F4CC50DE4FD093C4
:100540000101C09300011092810149E151E06AE08C
:1005500082E00E944804DF91CF910895AF92BF924C
:10056000CF92DF92EF92FF920F931F93CF93DF937F
:10057000C0910601D0910701C0909201D0909301E3
:10058000E0909401F0909501BE010D2E000C880BB7
:10059000990B0E94770BA70196010E94270C181651
:1005A0000CF04BC00091040110910501B801012E1F
:1005B000000C880B990B0E94770B209196013091CB
:1005C000970140919801509199010E94270C1816AB
:1005D000A4F5A0900201B0900301B5010B2C000C12
:1005E000880B990B0E94770B20918A0130918B0127
:1005F00040918C0150918D010E94270C1816ECF44B
:1006000080918001813009F079C08CE0A81A8EEFCA
:10061000B80AB0920301A09202010C501E4F109331
:10062000050100930401CC59DF4FD0930701C0931B
:1006300006011092800180E068C0809180018111E4
:100640001DC08091020190910301845F91409093BD
:100650000301809302018091040190910501845F60
:1006600091409093050180930401C456D109D09321
:100670000701C093060181E080938001609102012F
:1006800070910301072E000C880B990B0E94770BC9
:1006900020918A0130918B0140918C0150918D0104
:1006A0000E94C80A882364F16091040170910501D9
:1006B000072E000C880B990B0E94770B2091960156
:1006C0003091970140919801509199010E94C80A78
:1006D0008823C4F06091060170910701072E000C79
:1006E000880B990B0E94770B9B01AC01C701B601E7
:1006F0000E94270C181644F084E007C080E005C073
:1007000081E003C082E001C083E0DF91CF911F91BF
:100710000F91FF90EF90DF90CF90BF90AF90089532
:10072000982F991F9927991F86FD02C020E001C0CC
:1007300022E0922B85FD02C020E001C024E0922B34
:1007400084FD02C020E001C028E0922B83FD02C09E
:1007500020E001C020E1922B82FD02C020E001C018
:1007600020E2922B81FD02C020E001C020E4922B08
:1007700080FD02C080E001C080E8892B0895CF93FE
:10078000C82F807F0E949003880F880F80939A0162
:100790008BB1837C8BB99BB180919A01892B8BB9EA
:1007A0005F985E9A8FE19EE40197F1F700C0000028
:1007B0005E988C2F8295807F0E9490039BB1937CE2
:1007C0009BB99BB1880F880F982B9BB95F985E9A55
:1007D0008FE19EE40197F1F700C000005E98CF9191
:1007E00008958AB18C6F8AB98BB184708BB90895E2
:1007F000CF93C82F807F0E9490039BB1937C9BB9BD
:100800009BB1880F880F982B9BB95F9A5E9A8FE1F6
:100810009EE40197F1F700C000005E988C2F82954E
:10082000807F0E9490039BB1937C9BB99BB1880F02
:10083000880F982B9BB95F9A5E9A8FE19EE401978F
:10084000F1F700C000005E98CF91089580E80E9403
:10085000BF030895CF93DF93EC018881882331F0A3
:1008600021960E94F80389918111FBCFDF91CF91EE
:100870000895813019F0823031F008958FE7860FA6
:100880000E94BF0308958FEB860F0E94BF03089557
:10089000CF93DF93EA010E9439048881882331F0E5
:1008A00021960E94F80389918111FBCFDF91CF91AE
:1008B00008958FE99FE00197F1F700C000005F986D
:1008C00080E38BB95E9AEFE1FEE43197F1F700C067
:1008D00000005E98EFE9FFE03197F1F700C00000FB
:1008E0005F988BB95E9AEFE1FEE43197F1F700C0B3
:1008F00000005E98EFE9FFE03197F1F700C00000DB
:100900005F988BB95E9A8FE19EE40197F1F700C082
:1009100000005E98EFE9FFE03197F1F700C00000BA
:100920005F9880E18BB95E9A8FE99FE00197F1F7BC
:1009300000C000005E98EFE9FFE03197F1F700C0DA
:10094000000088E20E94BF0381E00E94BF038CE0A8
:100950000E94BF0380E80E94BF03089581E00E94C7
:10096000BF030895CF92DF92EF92FF920F931F93F0
:10097000CF93DF937A0169014115510509F4E6C06F
:1009800040FD0CC09A01C0E002C020FD08C0CF5F4E
:100990003695279521153105C1F701C0C0E08823A0
:1009A00011F0611103C00E94260402C00E943904A4
:1009B00025E0C216D10409F0D8C0970132952295DE
:1009C0002F7023273F702327A7E4B3E00E94C10CB8
:1009D000969587959695879596958795805D0E94C3
:1009E000F8039701369527953695279536952795DF
:1009F000A5ECB0E20E94C10CAC01529542954F703B
:100A000045275F7045279A01ADECBCEC0E94C10CF4
:100A10009695879596958795969587959C01220F33
:100A2000331F880F991F880F991F880F991F820FF6
:100A3000931FFA01E81BF90BCF01805D0E94F803B8
:100A400004C0F3E0CF16D10451F5970136952795F0
:100A500036952795ABE7B4E10E94C10CAC015695E1
:100A600047959A01ADECBCEC0E94C10C9695879518
:100A700096958795969587959C01220F331F880F31
:100A8000991F880F991F880F991F820F931F9A0132
:100A9000281B390BC901805D0E94F80305C032E0B4
:100AA000C316D10409F067C09701ADECBCEC0E94FD
:100AB000C10CAC0156954795569547955695479567
:100AC0009A010E94C10C9695879596958795969563
:100AD00087959C01220F331F880F991F880F991F3C
:100AE000880F991F820F931FFA01E81BF90BCF01A2
:100AF000805D0E94F803C1111DC09701ADECBCECF4
:100B00000E94C10C969587959695879596958795A1
:100B10009C01220F331F880F991F880F991F880F80
:100B2000991F820F931F9701281B390BC901805D04
:100B30000E94F80336E0C316D1041CF085E40E943D
:100B4000F803F8018081811108C01CC080E30E9475
:100B5000F80380E30E94F803F4CFE80121960E9495
:100B6000F80389918111FBCF0DC0F4E0CF16D104B9
:100B700009F067CF36CF21E0C216D104D9F6C111F2
:100B8000E0CFBBCFDF91CF911F910F91FF90EF90FE
:100B9000DF90CF900895CF92DF92EF92FF920F9364
:100BA0001F93CF936A017901882311F0611103C06B
:100BB0000E94260402C00E94390425E0E216F104D6
:100BC00009F0B9C09601329522952F7023273F7006
:100BD0002327A7E4B3E00E94C10C969587959695CC
:100BE000879596958795C0968033910509F470C0D6
:100BF0000E94F803C1E06DC0C11102C0A2C0C0E0F4
:100C00000E94F803CF5F9DC033E0E316F10451F476
:100C10002FC1CC2309F4C1C001C0C0E00E94F80379
:100C2000CF5FBBC082E0E816F10409F0E0C04DC11F
:100C3000CC2339F001C0C0E00E94F803CF5F01C0AF
:100C4000C0E09601ADECBCEC0E94C10C9695879576
:100C500096958795969587959C01220F331F880F4F
:100C6000991F880F991F880F991F820F931FF601F4
:100C7000E81BF90BCF01805D0E94F803CF5FF6E01F
:100C8000EF16F1041CF085E40E94F803F80180815E
:100C9000882309F4B3C00F5F1F4F0E94F803CF5F92
:100CA000FFEFEF1AFF0AF80181918F018111F5CF53
:100CB0008C2F90E08E159F050CF032C180E20E94CF
:100CC000F803CF5F8C2F90E08E159F05B9F728C1F0
:100CD000C0E0960136952795369527953695279548
:100CE000A5ECB0E20E94C10CAC01529542954F7048
:100CF00045275F7045279A01ADECBCEC0E94C10C02
:100D00009695879596958795969587959C01220F40
:100D1000331F880F991F880F991F880F991F820F03
:100D2000931F9A01281B390BC901C0968033910586
:100D300009F462CF65CF34E0E316F10409F064CF23
:100D400064C096013695279536952795ABE7B4E1B3
:100D50000E94C10CAC01569547959A01ADECBCECD4
:100D60000E94C10C9695879596958795969587953F
:100D70009C01220F331F880F991F880F991F880F1E
:100D8000991F820F931FFA01E81BF90BCF01C09640
:100D90008033910509F042CF3CCF9601ADECBCEC1D
:100DA0000E94C10CAC0156954795569547955695AE
:100DB00047959A010E94C10C9695879596958795BF
:100DC000969587959C01220F331F880F991F880FD6
:100DD000991F880F991F820F931F9A01281B390BA7
:100DE000C901C0968033910509F026CF21CF31E0AB
:100DF000E316F10409F424CFC0E041CF8C2F90E03A
:100E00008E159F050CF45ACF8BC096013695279509
:100E10003695279536952795A5ECB0E20E94C10C32
:100E2000AC01529542954F7045275F7045279A0156
:100E3000ADECBCEC0E94C10C969587959695879574
:100E4000969587959C01220F331F880F991F880F55
:100E5000991F880F991F820F931FFA01E81BF90B46
:100E6000CF01C0968033910509F0C9CEC0E069CFAB
:100E700096013695279536952795ABE7B4E10E9404
:100E8000C10CAC01569547959A01ADECBCEC0E94A3
:100E9000C10C9695879596958795969587959C0113
:100EA000220F331F880F991F880F991F880F991FD2
:100EB000820F931F9A01281B390BC901C0968033FA
:100EC000910509F0AACEC0E068CF9601ADECBCEC6C
:100ED0000E94C10CAC01569547955695479556957D
:100EE00047959A010E94C10C96958795969587958E
:100EF000969587959C01220F331F880F991F880FA5
:100F0000991F880F991F820F931FFA01E81BF90B95
:100F1000CF01C0968033910509F08DCEC0E091CE0F
:100F2000CF911F910F91FF90EF90DF90CF90089598
:100F3000FF920F931F93CF93DF938A01E9018823D8
:100F400011F0611103C00E94260402C00E943904FE
:100F5000C530D10509F08FC09801329522952F70C8
:100F600023273F702327A7E4B3E00E94C10C969586
:100F700087959695879596958795C0968033910528
:100F800009F446C00E94F803FF24F39442C0F11014
:100F900002C076C0F12C0E94F803F39471C0C330F4
:100FA000D10551F4FBC0FF2009F496C001C0F12C1B
:100FB0000E94F803F39490C0C230D10509F0B6C086
:100FC000FEC0F1100E94F8039801ADECBCEC0E9449
:100FD000C10C9695879596958795969587959C01D2
:100FE000220F331F880F991F880F991F880F991F91
:100FF000820F931F9801281B390BC901805D0E9445
:10100000F80326970CF4EBC085E40E94F803E7C0D0
:10101000F12C980136952795369527953695279585
:10102000A5ECB0E20E94C10CAC01529542954F7004
:1010300045275F7045279A01ADECBCEC0E94C10CBE
:101040009695879596958795969587959C01220FFD
:10105000331F880F991F880F991F880F991F820FC0
:10106000931F9A01281B390BC901C0968033910543
:1010700009F48DCF90CFC430D10509F090CF5BC07B
:1010800098013695279536952795ABE7B4E10E94F0
:10109000C10CAC01569547959A01ADECBCEC0E9491
:1010A000C10C9695879596958795969587959C0101
:1010B000220F331F880F991F880F991F880F991FC0
:1010C000820F931F9A01281B390BC901C0968033E8
:1010D000910509F06DCF67CF9801ADECBCEC0E9493
:1010E000C10CAC0156954795569547955695479531
:1010F0009A010E94C10C969587959695879596952D
:1011000087959C01220F331F880F991F880F991F05
:10111000880F991F820F931F9A01281B390BC90151
:10112000C0968033910509F04DCF4BCFC130D1052A
:1011300009F067CF49CF98013695279536952795C1
:1011400036952795A5ECB0E20E94C10CAC015295F2
:1011500042954F7045275F7045279A01ADECBCEC76
:101160000E94C10C9695879596958795969587953B
:101170009C01220F331F880F991F880F991F880F1A
:10118000991F820F931F9A01281B390BC901C09622
:101190008033910509F0FECEF12C72CFC80164E6D0
:1011A00070E00E94990CCB016AE070E00E94990CFB
:1011B000C0968033910509F0FACEF12C8DCF2AE04C
:1011C00030E0C801B9010E94990CCB01B9010E941D
:1011D000990CC0968033910509F0F4CEF5CEDF91DD
:1011E000CF911F910F91FF9008958F929F92AF9290
:1011F000BF92EF92FF920F931F93CF93DF93D82F5D
:10120000C62F49015A0120E030E04AE754E4C50105
:10121000B4010E94C80A882364F4C501B4010E9485
:10122000460B24E030E0AB016C2F8D2F0E94CB05E4
:101230007BC020E030E04AE754E4C501B4010E94DD
:10124000270C8823CCF120E030E44CE156E4C501C2
:10125000B4010E94C80A88237CF520E030E04AE708
:1012600054E4C501B4010E94CD0A0E94460B21E05E
:1012700030E0AB016C2F8D2F0E94980761E06C0F5E
:1012800041E251E08D2F0E944804C501B4010E9443
:101290003F0BCB0168EE73E00E94AD0C62E06C0F77
:1012A000870123E030E0AC018D2F0E94B20483E27D
:1012B00091E00E942A0438C020E030E44CE156E47A
:1012C000C501B4010E94270C882374F120E030E0AE
:1012D0004AE754E4C501B4010E94CD0A0E94460BBE
:1012E00022E030E0AB016C2F8D2F0E94980762E066
:1012F0006C0F41E251E08D2F0E944804C501B401FA
:101300000E943F0BCB0168EE73E00E94AD0C63E0DE
:101310006C0F870123E030E0AC018D2F0E94B204F6
:1013200084E291E00E942A04DF91CF911F910F91F6
:10133000FF90EF90BF90AF909F908F9008950E9484
:10134000F1030E9453000895F8940E9459040E94EA
:101350005600789408950E949F090E94A40946E2CD
:1013600051E067E081E00E9448042FEF85EA9EE0AB
:10137000215080409040E1F700C000001D9B13C049
:101380004AE251E061E082E00E94480480E090E09F
:10139000A0E8B0E48093820190938301A09384013C
:1013A000B093850112C04BE351E062E082E00E94FD
:1013B00048048AE999E9A9EFB1E480938201909306
:1013C0008301A0938401B09385012FEF8BE49DE10D
:1013D000215080409040E1F700C000000E94AE0420
:1013E00010E0D3E004E00E940C010E9434010E944E
:1013F00069010E94E6010E94AE0281110FC061E006
:1014000081E00E941B026AE081E00E94360261E0F6
:1014100082E00E9451020E946C02E5CF0E94AE045D
:10142000C12F42C00E940C010E9434010E94690138
:101430000E94E6010E94AE02823089F08330E9F01A
:10144000813049F561E00E945102C13069F149E4FF
:1014500051E061E082E00E944804C1E025C061E003
:1014600081E00E943602C230F9F048E551E061E0C7
:1014700082E00E944804C2E017C061E081E00E945F
:101480001B02C33089F049E651E061E082E00E942E
:101490004804CD2F09C0C11107C04AE751E066E0FA
:1014A00081E00E944804C02F0E94AE028111BACF91
:1014B0000E94AE0498CF5058BB27AA270E94730AF7
:1014C0000C94ED0B0E94DF0B38F00E94E60B20F02D
:1014D00039F49F3F19F426F40C94DC0B0EF4E095DC
:1014E000E7FB0C94D60BE92F0E94FE0B58F3BA17BA
:1014F000620773078407950720F079F4A6F50C942A
:10150000200C0EF4E0950B2EBA2FA02D0B01B90183
:1015100090010C01CA01A0011124FF27591B99F069
:10152000593F50F4503E68F11A16F040A22F232F75
:10153000342F4427585FF3CF469537952795A795C5
:10154000F0405395C9F77EF41F16BA0B620B730B6C
:10155000840BBAF09150A1F0FF0FBB1F661F771FDD
:10156000881FC2F70EC0BA0F621F731F841F48F492
:10157000879577956795B795F7959E3F08F0B0CF1B
:101580009395880F08F09927EE0F97958795089502
:101590000E94B20B08F481E008950E94E10A0C94C5
:1015A000ED0B0E94E60B58F00E94DF0B40F029F48F
:1015B0005F3F29F00C94D60B51110C94210C0C9424
:1015C000DC0B0E94FE0B68F39923B1F3552391F3D2
:1015D000951B550BBB27AA2762177307840738F0A2
:1015E0009F5F5F4F220F331F441FAA1FA9F335D0FF
:1015F0000E2E3AF0E0E832D091505040E695001CB3
:10160000CAF72BD0FE2F29D0660F771F881FBB1F6C
:10161000261737074807AB07B0E809F0BB0B802D4A
:10162000BF01FF2793585F4F3AF09E3F510578F076
:101630000C94D60B0C94210C5F3FE4F3983ED4F34A
:10164000869577956795B795F7959F5FC9F7880F4A
:10165000911D9695879597F90895E1E0660F771F9C
:10166000881FBB1F621773078407BA0720F0621B2D
:10167000730B840BBA0BEE1F88F7E09508950E9458
:10168000460B6894B1110C94210C08950E94060C2D
:1016900088F09F5798F0B92F9927B751B0F0E1F033
:1016A000660F771F881F991F1AF0BA95C9F714C0E3
:1016B000B13091F00E94200CB1E008950C94200C00
:1016C000672F782F8827B85F39F0B93FCCF386951C
:1016D00077956795B395D9F73EF490958095709579
:1016E00061957F4F8F4F9F4F0895E89409C097FBF6
:1016F0003EF490958095709561957F4F8F4F9F4FE9
:101700009923A9F0F92F96E9BB279395F69587952C
:1017100077956795B795F111F8CFFAF4BB0F11F4EF
:1017200060FF1BC06F5F7F4F8F4F9F4F16C0882396
:1017300011F096E911C0772321F09EE8872F762FCC
:1017400005C0662371F096E8862F70E060E02AF00D
:101750009A95660F771F881FDAF7880F96958795F9
:1017600097F90895990F0008550FAA0BE0E8FEEFCE
:1017700016161706E807F907C0F012161306E40755
:10178000F50798F0621B730B840B950B39F40A264E
:1017900061F0232B242B252B21F408950A2609F42C
:1017A000A140A6958FEF811D811D089597F99F6730
:1017B00080E870E060E008959FEF80EC08950024D9
:1017C0000A941616170618060906089500240A94A6
:1017D00012161306140605060895092E0394000C2C
:1017E00011F4882352F0BB0F40F4BF2B11F460FFBB
:1017F00004C06F5F7F4F8F4F9F4F089557FD9058E4
:10180000440F551F59F05F3F71F04795880F97FBC4
:10181000991F61F09F3F79F087950895121613067E
:101820001406551FF2CF4695F1DF08C016161706AD
:101830001806991FF1CF86957105610508940895E2
:10184000E894BB2766277727CB0197F908950E9474
:10185000B20B08F48FEF08950E943F0C0C94ED0B2F
:101860000E94DF0B38F00E94E60B20F0952311F068
:101870000C94D60B0C94DC0B11240C94210C0E94BC
:10188000FE0B70F3959FC1F3950F50E0551F629FBB
:10189000F001729FBB27F00DB11D639FAA27F00DC9
:1018A000B11DAA1F649F6627B00DA11D661F829FF0
:1018B0002227B00DA11D621F739FB00DA11D621FD5
:1018C000839FA00D611D221F749F3327A00D611DF2
:1018D000231F849F600D211D822F762F6A2F1124D4
:1018E0009F5750409AF0F1F088234AF0EE0FFF1F07
:1018F000BB1F661F771F881F91505040A9F79E3F5E
:10190000510580F00C94D60B0C94210C5F3FE4F34E
:10191000983ED4F3869577956795B795F795E795B3
:101920009F5FC1F7FE2B880F911D9695879597F9BC
:101930000895AA1BBB1B51E107C0AA1FBB1FA61716
:10194000B70710F0A61BB70B881F991F5A95A9F768
:1019500080959095BC01CD01089597FB072E16F454
:10196000009407D077FD09D00E94990C07FC05D0A0
:101970003EF4909581959F4F0895709561957F4FA6
:101980000895A29FB001B39FC001A39F700D811D58
:101990001124911DB29F700D811D1124911D089578
:0419A000F894FFCFE9
:1019A4008813204E3075D0076D41006D56006D5779
:1019B4000046616E204F6E200046616E204F6666C1
:1019C400002E0020200043434C00537570706C7946
:1019D40020436F6E6E656374656400313276205304
:1019E4007570706C79204E4300506F776572204596
:1019F4007863656564656400566F6C74616765201F
:101A040045786365656465640043757272656E74D8
:101A1400204578636565646564004572726F720081
:00000001FF
