S00B00004C43442E7372656346
S11300000C9434000C9451000C9451000C94510045
S11300100C9451000C9451000C9451000C94510018
S11300200C9451000C9451000C9451000C94510008
S11300300C9451000C9451000C9451000C945100F8
S11300400C9451000C9451000C9451000C945100E8
S11300500C9451000C9451000C9451000C945100D8
S11300600C9451000C94510011241FBECFEFD8E022
S1130070DEBFCDBF11E0A0E0B1E0E0EBF9E002C0EB
S113008005900D92AE31B107D9F721E0AEE1B1E0B0
S113009001C01D92AB32B207E1F70E94A3020C9497
S11300A0D6040C94000017B818B8089587E8809314
S11300B07A000895EAE7F0E080818064808380819B
S11300C084FFFDCFEAE7F0E08081806180832091A6
S11300D078008091790090E0982F8827820F911DF5
S11300E00895883058F480937C008FE19EE4019752
S11300F0F1F700C000000E945A00089586E190E0E4
S11301000895982F881F8827881F96FD02C020E035
S113011001C022E0822B95FD02C020E001C024E052
S1130120822B94FD02C020E001C028E0822B93FDC5
S113013002C020E001C020E1822B92FD02C020E039
S113014001C020E2822B91FD02C020E001C020E426
S1130150822B90FD02C090E001C090E8892B0895A5
S1130160CF93C82F807F0E948100880F880F8093CF
S11301701E019BB1937C9BB98BB190911E01982B6E
S11301809BB95F985E9A8FE19EE40197F1F700C0F6
S113019000005E988C2F8295807F0E9481009BB125
S11301A0937C9BB99BB1880F880F982B9BB95F9860
S11301B05E9A8FE19EE40197F1F700C000005E981B
S11301C0CF910895CF93C82F807F0E9481009BB167
S11301D0937C9BB99BB1880F880F982B9BB95F9A2E
S11301E05E9A8FE19EE40197F1F700C000005E98EB
S11301F08C2F8295807F0E9481009BB1937C9BB958
S11302009BB1880F880F982B9BB95F9A5E9A8FE1F8
S11302109EE40197F1F700C000005E98CF91089525
S11302208AB18C6F8AB98BB184708BB9089580E8D8
S11302300E94B0000895813019F0823031F00895A1
S11302408FE7860F0E94B00008958FEB860F0E94FF
S1130250B0000895CF93DF93EA010E941B018881C7
S1130260882331F021960E94E20089918111FBCF0D
S1130270DF91CF9108950F931F93CF93DF938A015A
S1130280E901882311F0611103C00E94170102C023
S11302900E941B01C530D105C9F4980132952295FD
S11302A02F7023273F702327A7E4B3E00E94C704DD
S11302B0969587959695879596958795C0969093EC
S11302C0200180931F010E94E20004C0C430D105C4
S11302D009F0C3C09801369527953695279536952C
S11302E02795A5ECB0E20E94C704AC015295429553
S11302F04F7045275F70452750932A014093290189
S11303009A01ADECBCEC0E94C7049695879596952E
S11303108795969587959C01220F331F880F991F07
S1130320880F991F880F991F820F931F9A01281B0A
S1130330390BC901C09690932201809321010E9438
S1130340E20098013695279536952795ABE7B4E1F9
S11303500E94C704AC015695479550932A014093D7
S113036029019A01ADECBCEC0E94C70496958795CF
S113037096958795969587959C01220F331F880F34
S1130380991F880F991F880F991F820F931F9A0135
S1130390281B390BC901C096909324018093230133
S11303A00E94E20004C0C230D10509F05BC098018C
S11303B0ADECBCEC0E94C704AC015695479556952C
S11303C047955695479550932A01409329019A01E0
S11303D00E94C704969587959695879596958795D7
S11303E09C01220F331F880F991F880F991F880FB4
S11303F0991F820F931F9A01281B390BC901C096BC
S113040090932601809325010E94E2009801ADECAF
S1130410BCEC0E94C704969587959695879596950A
S113042087959C01220F331F880F991F880F991FEE
S1130430880F991F820F931F9801281B390BC9013C
S1130440C09690932801809327010E94E20026978A
S11304506CF085E40E94E20009C0C330D10509F0C4
S1130460A2CF6FCFC130D10591F7D0CFDF91CF911B
S11304701F910F9108958FE99FE00197F1F700C054
S113048000005F9880E38BB95E9AEFE1FEE4319758
S1130490F1F700C000005E98EFE9FFE03197F1F753
S11304A000C000005F988BB95E9AEFE1FEE43197DB
S11304B0F1F700C000005E98EFE9FFE03197F1F733
S11304C000C000005F988BB95E9A8FE19EE40197AB
S11304D0F1F700C000005E98EFE9FFE03197F1F713
S11304E000C000005F9880E18BB95E9A8FE99FE0BD
S11304F00197F1F700C000005E98EFE9FFE0319743
S1130500F1F700C0000088E20E94B00081E00E9480
S1130510B00086E00E94B0008EE00E94B00080E847
S11305200E94B000089581E00E94B00008950E94E6
S113053010010E9453000895F8940E943B020E9407
S11305405600789408950E9497020E949C0240E00D
S113055051E067E081E00E942A012FEF85EA9EE0E6
S1130560215080409040E1F700C0000044E051E099
S113057062E082E00E942A012FEF8BE49DE121508A
S113058080409040E1F700C000000E94930280E0A8
S11305900E947100BC0180E090E00E94CC0327EE31
S11305A03BEF49EF5FE30E945A0426E636E646EB4A
S11305B050E40E9431032AE939E941EE51E40E94F2
S11305C031034B015C010E949D0324E030E0AB0148
S11305D061E081E00E943B0142E151E065E081E09D
S11305E00E942A0181E00E947100BC0180E090E039
S11305F00E94CC032EE836E040EF5CE30E945A04EC
S11306006B017C010E949D0324E030E0AB016AE0B1
S113061081E00E943B0147E151E06EE081E00E94ED
S11306202A01A5019401C701B6010E945A040E943F
S11306309D0325E030E0AB0161E082E00E943B01D4
S11306404BE151E066E082E00E942A012FEF85EA47
S11306509EE0215080409040E1F700C0000097CF19
S11306605058BB27AA270E9448030C9420040E94D8
S1130670120438F00E94190420F039F49F3F19F451
S113068026F40C940F040EF4E095E7FB0C94090493
S1130690E92F0E94310458F3BA17620773078407DD
S11306A0950720F079F4A6F50C9453040EF4E09524
S11306B00B2EBA2FA02D0B01B90190010C01CA0118
S11306C0A0011124FF27591B99F0593F50F4503EC3
S11306D068F11A16F040A22F232F342F4427585FB5
S11306E0F3CF469537952795A795F0405395C9F7CD
S11306F07EF41F16BA0B620B730B840BBAF0915085
S1130700A1F0FF0FBB1F661F771F881FC2F70EC023
S1130710BA0F621F731F841F48F4879577956795F6
S1130720B795F7959E3F08F0B0CF9395880F08F0E2
S11307309927EE0F9795879508950E94390488F0BC
S11307409F5798F0B92F9927B751B0F0E1F0660F91
S1130750771F881F991F1AF0BA95C9F714C0B130D2
S113076091F00E945304B1E008950C945304672F50
S1130770782F8827B85F39F0B93FCCF38695779501
S11307806795B395D9F73EF49095809570956195EA
S11307907F4F8F4F9F4F0895E89409C097FB3EF415
S11307A090958095709561957F4F8F4F9F4F9923BA
S11307B0A9F0F92F96E9BB279395F6958795779538
S11307C06795B795F111F8CFFAF4BB0F11F460FFF8
S11307D01BC06F5F7F4F8F4F9F4F16C0882311F050
S11307E096E911C0772321F09EE8872F762F05C064
S11307F0662371F096E8862F70E060E02AF09A95FF
S1130800660F771F881FDAF7880F9695879597F9F3
S1130810089597F99F6780E870E060E008959FEF7E
S113082080EC089500240A94161617061806090683
S1130830089500240A941216130614060506089552
S1130840092E0394000C11F4882352F0BB0F40F4DA
S1130850BF2B11F460FF04C06F5F7F4F8F4F9F4F1A
S1130860089557FD9058440F551F59F05F3F71F09C
S11308704795880F97FB991F61F09F3F79F0879503
S11308800895121613061406551FF2CF4695F1DF8C
S113089008C0161617061806991FF1CF869571051C
S11308A0610508940895E894BB2766277727CB0150
S11308B097F908950E946D040C9420040E94120478
S11308C038F00E94190420F0952311F00C940904C7
S11308D00C940F0411240C9454040E94310470F3FA
S11308E0959FC1F3950F50E0551F629FF001729FD1
S11308F0BB27F00DB11D639FAA27F00DB11DAA1FE0
S1130900649F6627B00DA11D661F829F2227B00D2C
S1130910A11D621F739FB00DA11D621F839FA00DB7
S1130920611D221F749F3327A00D611D231F849F07
S1130930600D211D822F762F6A2F11249F5750405E
S11309409AF0F1F088234AF0EE0FFF1FBB1F661FD9
S1130950771F881F91505040A9F79E3F510580F0A2
S11309600C9409040C9454045F3FE4F3983ED4F3CC
S1130970869577956795B795F795E7959F5FC1F746
S1130980FE2B880F911D9695879597F90895A29F40
S1130990B001B39FC001A39F700D811D1124911D4F
S11309A0B29F700D811D1124911D0895F894FFCFFD
S11309B043434C0031327620537570706C79204E6D
S11109C043006D41202000562020006D57009A
S9030000FC
