S00B00004C43442E7372656346
S11300000C9434000C9451000C9451000C94510045
S11300100C9451000C9451000C9451000C94510018
S11300200C9451000C9451000C9451000C94510008
S11300300C9451000C9451000C9451000C945100F8
S11300400C9451000C9451000C9451000C945100E8
S11300500C9451000C94D3000C9451000C94510056
S11300600C9451000C94510011241FBECFEFD8E022
S1130070DEBFCDBF11E0A0E0B1E0E0EFF9E102C0E6
S113008005900D92A438B107D9F721E0A4E8B1E0B6
S113009001C01D92AA3AB207E1F70E94CB090C9461
S11300A0F60C0C94000017B818B808958FE88093E4
S11300B07A0083B7826083BF089583B7817F8260AB
S11300C083BF83B7816083BF889583B78E7F83BFE7
S11300D00895883050F480937C008FE99FE0019765
S11300E0F1F700C000000E945D0008958F929F9276
S11300F0AF92BF92DF92EF92FF920F931F93CF9331
S1130100DF93D82E062F10E0101611062CF5C1E04F
S1130110D0E0812C912C5401E82EF12CC701880FDA
S1130120991F9C012C553E4F79018D2D0E94690029
S1130130F7016081718180E090E00E949B0B9B013C
S1130140AC01C501B4010E94820A4B015C012196F5
S11301500C171D0754F703C0812C912C5401CD2D8D
S1130160D0E0B801110F880B990B0E949D0B9B01E5
S1130170AC01C501B4010E94F30A0E946C0BCC0FC0
S1130180DD1FCC55DE4F7983688388819981DF91A7
S1130190CF911F910F91FF90EF90DF90BF90AF90A0
S11301A09F908F9008951F920F920FB60F92112473
S11301B02F933F934F938F939F93EF93FF93E091EC
S11301C07C004091780080917900EF70F0E021E0AC
S11301D030E0811102C020E030E0EE0FFF1FEC554B
S11301E0FE4F3183208320813181322F22273183B6
S11301F0208390E0982F8827840F911D918380831A
S1130200FF91EF919F918F914F913F912F910F907B
S11302100FBE0F901F90189565E080E00E94760055
S1130220BC0180E090E00E949B0B27EE3BEF49EF7E
S11302305FE30E94520C2AE939E949E95EE30E942E
S1130240820A20918701309188014091890150915F
S11302508A010E94820A60939B0170939C0180939F
S11302609D0190939E0160938F0170939001809300
S1130270910190939201209186012130A1F49B0178
S1130280AC01609108017091090180910A0190917B
S11302900B010E94820A60939B0170939C018093DE
S11302A09D0190939E010895CF92DF92EF92FF9269
S11302B065E081E00E947600BC0180E090E00E944D
S11302C09B0B2CEE31E54AEE51E40E94520C6B017B
S11302D07C010E94650BCB016AE070E00E94D30CA4
S11302E0BC01990F880B990B0E949D0B9B01AC01DB
S11302F0C701B6010E94810A60939F017093A00117
S11303008093A1019093A201FF90EF90DF90CF9092
S113031008958F929F92AF92BF92CF92DF92EF9205
S1130320FF92CF93DF93C0909B01D0909C01E0900B
S11303309D01F0909E0120919F013091A001409178
S1130340A1015091A201C701B6010E94520C20E004
S113035030E04AE754E40E94F30A4B015C010E9436
S1130360650BCAE0D0E0CB01BE010E94D30CBC01F6
S1130370990F880B990B0E949D0B9B01AC01C50141
S1130380B4010E94810A4B015C0160939701709350
S113039098018093990190939A01A7019601C7014E
S11303A0B6010E94520C20E030E04AE754E40E9477
S11303B0F30A9B01AC01C501B4010E94810A6B01DF
S11303C07C010E94650BCB01BE010E94D30CBC01D1
S11303D0990F880B990B0E949D0B9B01AC01C701DF
S11303E0B6010E94810A60939301709394018093F3
S11303F0950190939601DF91CF91FF90EF90DF905C
S1130400CF90BF90AF909F908F900895CF92DF923E
S1130410EF92FF926AE082E00E947600BC0180E0E5
S113042090E00E949B0B2AE037ED4BE251E40E94DE
S1130430520C6B017C010E94650BCB016AE070E0F9
S11304400E94D30CBC01990F880B990B0E949D0B41
S11304509B01AC01C701B6010E94810A60938B0124
S113046070938C0180938D0190938E01FF90EF9097
S1130470DF90CF900895EF92FF920F931F932091F6
S11304809B0130919C0140919D0150919E010F2E42
S1130490FDE0EF2EF1E0FF2EF02D0CE011E00E94C4
S11304A015091F910F91FF90EF900895EF92FF921D
S11304B00F931F9320919F013091A0014091A101BE
S11304C05091A2010F2EF0E1EF2EF1E0FF2EF02D5E
S11304D00FE011E00E9415091F910F91FF90EF901A
S11304E00895EF92FF920F931F93209197013091FB
S11304F098014091990150919A010F2EF3E1EF2E4A
S1130500F1E0FF2EF02D02E111E00E9415091F9188
S11305100F91FF90EF900895CF93DF93C091000166
S1130520D0910101BE010D2E000C880B990B0E9485
S11305309D0B20919301309194014091950150912C
S113054096010E94EE0A8823BCF4809185018111F2
S113055009C0C45FD140D0930101C093000181E080
S11305608093850145E151E06AE082E00E946804DD
S113057081E08093860114C080918501813041F42B
S1130580CC50DE4FD0930101C0930001109285013D
S11305904DE151E06AE082E00E9468041092860115
S11305A0DF91CF910895EF92FF920F931F93CF9312
S11305B0DF93C0910601D0910701BE010D2E000CFE
S11305C0880B990B0E949D0B20918F013091900113
S11305D040919101509192010E944D0C18160CF01B
S11305E04BC00091040110910501B801012E000CCB
S11305F0880B990B0E949D0B20919F013091A001C3
S11306004091A1015091A2010E944D0C1816A4F52D
S1130610E0900201F0900301B7010F2C000C880B4D
S1130620990B0E949D0B209193013091940140916C
S11306309501509196010E944D0C1816ECF480918E
S11306408401813009F080C08CE0E81A8EEFF80A4A
S1130650F0920301E09202010C501E4F1093050129
S113066000930401CC59DF4FD0930701C0930601D6
S11306701092840180E06DC08091840181111DC0BD
S11306808091020190910301845F91409093030152
S1130690809302018091040190910501845F91404F
S11306A09093050180930401C456D109D0930701A6
S11306B0C093060181E080938401609102017091EE
S11306C00301072E000C880B990B0E949D0B2091AF
S11306D093013091940140919501509196010E94AB
S11306E0EE0A88239CF16091040170910501072EA4
S11306F0000C880B990B0E949D0B20919F01309157
S1130700A0014091A1015091A2010E94EE0A882308
S1130710FCF06091060170910701072E000C880B14
S1130720990B0E949D0B20919B0130919C0140915B
S11307309D0150919E010E94EE0A881F8827881F00
S113074094E0981B892F05C080E003C081E001C0BC
S113075082E0DF91CF911F910F91FF90EF90089568
S1130760982F991F9927991F86FD02C020E001C088
S113077022E0922B85FD02C020E001C024E0922BF0
S113078084FD02C020E001C028E0922B83FD02C05A
S113079020E001C020E1922B82FD02C020E001C0D4
S11307A020E2922B81FD02C020E001C020E4922BC4
S11307B080FD02C080E001C080E8892B0895CF93BA
S11307C0C82F807F0E94B003880F880F8093A301F5
S11307D08BB1837C8BB99BB18091A301892B8BB99D
S11307E05F985E9A8FE19EE40197F1F700C00000E4
S11307F05E988C2F8295807F0E94B0039BB1937C7E
S11308009BB99BB1880F880F982B9BB95F985E9A10
S11308108FE19EE40197F1F700C000005E98CF914C
S113082008958AB18C6F8AB98BB184708BB908959D
S1130830CF93C82F807F0E94B0039BB1937C9BB958
S11308409BB1880F880F982B9BB95F9A5E9A8FE1B2
S11308509EE40197F1F700C000005E988C2F82950A
S1130860807F0E94B0039BB1937C9BB99BB1880F9E
S1130870880F982B9BB95F9A5E9A8FE19EE401974B
S1130880F1F700C000005E98CF91089580E80E94BF
S1130890DF030895CF93DF93EC018881882331F03F
S11308A021960E94180489918111FBCFDF91CF9189
S11308B00895813019F0823031F008958FE7860F62
S11308C00E94DF0308958FEB860F0E94DF030895D3
S11308D0CF93DF93EA010E9459048881882331F081
S11308E021960E94180489918111FBCFDF91CF9149
S11308F008958FE99FE00197F1F700C000005F9829
S113090080E38BB95E9AEFE1FEE43197F1F700C022
S113091000005E98EFE9FFE03197F1F700C00000B6
S11309205F988BB95E9AEFE1FEE43197F1F700C06E
S113093000005E98EFE9FFE03197F1F700C0000096
S11309405F988BB95E9A8FE19EE40197F1F700C03E
S113095000005E98EFE9FFE03197F1F700C0000076
S11309605F9880E18BB95E9A8FE99FE00197F1F778
S113097000C000005E98EFE9FFE03197F1F700C096
S1130980000088E20E94DF0381E00E94DF038CE024
S11309900E94DF0380E80E94DF03089581E00E9443
S11309A0DF030895CF92DF92EF92FF920F931F938C
S11309B0CF93DF937A0169014115510509F4E6C02B
S11309C040FD0CC09A01C0E002C020FD08C0CF5F0A
S11309D03695279521153105C1F701C0C0E088235C
S11309E011F0611103C00E94460402C00E94590420
S11309F025E0C216D10409F0D8C09701329522959A
S1130A002F7023273F702327A7E4B3E00E94E70C4D
S1130A10969587959695879596958795805D0E947E
S1130A201804970136952795369527953695279579
S1130A30A5ECB0E20E94E70CAC01529542954F70D0
S1130A4045275F7045279A01ADECBCEC0E94E70C8A
S1130A509695879596958795969587959C01220FEF
S1130A60331F880F991F880F991F880F991F820FB2
S1130A70931FFA01E81BF90BCF01805D0E94180453
S1130A8004C0F3E0CF16D10451F5970136952795AC
S1130A9036952795ABE7B4E10E94E70CAC01569577
S1130AA047959A01ADECBCEC0E94E70C96958795AE
S1130AB096958795969587959C01220F331F880FED
S1130AC0991F880F991F880F991F820F931F9A01EE
S1130AD0281B390BC901805D0E94180405C032E04F
S1130AE0C316D10409F067C09701ADECBCEC0E94B9
S1130AF0E70CAC01569547955695479556954795FD
S1130B009A010E94E70C96958795969587959695F8
S1130B1087959C01220F331F880F991F880F991FF7
S1130B20880F991F820F931FFA01E81BF90BCF015D
S1130B30805D0E941804C1111DC09701ADECBCEC8E
S1130B400E94E70C96958795969587959695879537
S1130B509C01220F331F880F991F880F991F880F3C
S1130B60991F820F931F9701281B390BC901805DC0
S1130B700E94180436E0C316D1041CF085E40E94D8
S1130B801804F8018081811108C01CC080E30E9410
S1130B90180480E30E941804F4CFE80121960E940F
S1130BA0180489918111FBCF0DC0F4E0CF16D10454
S1130BB009F067CF36CF21E0C216D104D9F6C111AE
S1130BC0E0CFBBCFDF91CF911F910F91FF90EF90BA
S1130BD0DF90CF900895CF92DF92EF92FF920F9320
S1130BE01F93CF936A017901882311F0611103C027
S1130BF00E94460402C00E94590425E0E216F10452
S1130C0009F0B9C09601329522952F7023273F70C1
S1130C102327A7E4B3E00E94E70C96958795969561
S1130C20879596958795C0968033910509F470C091
S1130C300E941804C1E06DC0C11102C0A2C0C0E08E
S1130C400E941804CF5F9DC033E0E316F10451F411
S1130C502FC1CC2309F4C1C001C0C0E00E94180414
S1130C60CF5FBBC082E0E816F10409F0E0C04DC1DB
S1130C70CC2339F001C0C0E00E941804CF5F01C04A
S1130C80C0E09601ADECBCEC0E94E70C969587950C
S1130C9096958795969587959C01220F331F880F0B
S1130CA0991F880F991F880F991F820F931FF601B0
S1130CB0E81BF90BCF01805D0E941804CF5FF6E0BA
S1130CC0EF16F1041CF085E40E941804F8018081F9
S1130CD0882309F4B3C00F5F1F4F0E941804CF5F2D
S1130CE0FFEFEF1AFF0AF80181918F018111F5CF0F
S1130CF08C2F90E08E159F050CF032C180E20E948B
S1130D001804CF5F8C2F90E08E159F05B9F728C18A
S1130D10C0E0960136952795369527953695279503
S1130D20A5ECB0E20E94E70CAC01529542954F70DD
S1130D3045275F7045279A01ADECBCEC0E94E70C97
S1130D409695879596958795969587959C01220FFC
S1130D50331F880F991F880F991F880F991F820FBF
S1130D60931F9A01281B390BC901C0968033910542
S1130D7009F462CF65CF34E0E316F10409F064CFDF
S1130D8064C096013695279536952795ABE7B4E16F
S1130D900E94E70CAC01569547959A01ADECBCEC6A
S1130DA00E94E70C969587959695879596958795D5
S1130DB09C01220F331F880F991F880F991F880FDA
S1130DC0991F820F931FFA01E81BF90BCF01C096FC
S1130DD08033910509F042CF3CCF9601ADECBCECD9
S1130DE00E94E70CAC015695479556954795569544
S1130DF047959A010E94E70C969587959695879555
S1130E00969587959C01220F331F880F991F880F91
S1130E10991F880F991F820F931F9A01281B390B62
S1130E20C901C0968033910509F026CF21CF31E066
S1130E30E316F10409F424CFC0E041CF8C2F90E0F5
S1130E408E159F050CF45ACF8BC0960136952795C5
S1130E503695279536952795A5ECB0E20E94E70CC8
S1130E60AC01529542954F7045275F7045279A0112
S1130E70ADECBCEC0E94E70C96958795969587950A
S1130E80969587959C01220F331F880F991F880F11
S1130E90991F880F991F820F931FFA01E81BF90B02
S1130EA0CF01C0968033910509F0C9CEC0E069CF67
S1130EB096013695279536952795ABE7B4E10E94C0
S1130EC0E70CAC01569547959A01ADECBCEC0E9439
S1130ED0E70C9695879596958795969587959C01A9
S1130EE0220F331F880F991F880F991F880F991F8E
S1130EF0820F931F9A01281B390BC901C0968033B6
S1130F00910509F0AACEC0E068CF9601ADECBCEC27
S1130F100E94E70CAC015695479556954795569512
S1130F2047959A010E94E70C969587959695879523
S1130F30969587959C01220F331F880F991F880F60
S1130F40991F880F991F820F931FFA01E81BF90B51
S1130F50CF01C0968033910509F08DCEC0E091CECB
S1130F60CF911F910F91FF90EF90DF90CF90089554
S1130F70FF920F931F93CF93DF938A01E901882394
S1130F8011F0611103C00E94460402C00E9459047A
S1130F90C530D10509F08FC09801329522952F7084
S1130FA023273F702327A7E4B3E00E94E70C96951C
S1130FB087959695879596958795C09680339105E4
S1130FC009F446C00E941804FF24F39442C0F110AF
S1130FD002C076C0F12C0E941804F39471C0C3308F
S1130FE0D10551F4FBC0FF2009F496C001C0F12CD7
S1130FF00E941804F39490C0C230D10509F0B6C021
S1131000FEC0F1100E9418049801ADECBCEC0E94E3
S1131010E70C9695879596958795969587959C0167
S1131020220F331F880F991F880F991F880F991F4C
S1131030820F931F9801281B390BC901805D0E9400
S1131040180426970CF4EBC085E40E941804E7C04A
S1131050F12C980136952795369527953695279541
S1131060A5ECB0E20E94E70CAC01529542954F709A
S113107045275F7045279A01ADECBCEC0E94E70C54
S11310809695879596958795969587959C01220FB9
S1131090331F880F991F880F991F880F991F820F7C
S11310A0931F9A01281B390BC901C09680339105FF
S11310B009F48DCF90CFC430D10509F090CF5BC037
S11310C098013695279536952795ABE7B4E10E94AC
S11310D0E70CAC01569547959A01ADECBCEC0E9427
S11310E0E70C9695879596958795969587959C0197
S11310F0220F331F880F991F880F991F880F991F7C
S1131100820F931F9A01281B390BC901C0968033A3
S1131110910509F06DCF67CF9801ADECBCEC0E944E
S1131120E70CAC01569547955695479556954795C6
S11311309A010E94E70C96958795969587959695C2
S113114087959C01220F331F880F991F880F991FC1
S1131150880F991F820F931F9A01281B390BC9010D
S1131160C0968033910509F04DCF4BCFC130D105E6
S113117009F067CF49CF980136952795369527957D
S113118036952795A5ECB0E20E94E70CAC01529588
S113119042954F7045275F7045279A01ADECBCEC32
S11311A00E94E70C969587959695879596958795D1
S11311B09C01220F331F880F991F880F991F880FD6
S11311C0991F820F931F9A01281B390BC901C096DE
S11311D08033910509F0FECEF12C72CFC80164E68C
S11311E070E00E94BF0CCB016AE070E00E94BF0C6B
S11311F0C0968033910509F0FACEF12C8DCF2AE008
S113120030E0C801B9010E94BF0CCB01B9010E94B2
S1131210BF0CC0968033910509F0F4CEF5CEDF9172
S1131220CF911F910F91FF9008958F929F92AF924B
S1131230BF92EF92FF920F931F93CF93DF93D82F18
S1131240C62F49015A0120E030E04AE754E4C501C1
S1131250B4010E94EE0A882364F4C501B4010E941B
S11312606C0B24E030E0AB016C2F8D2F0E94EB055A
S11312707BC020E030E04AE754E4C501B4010E9499
S11312804D0C8823CCF120E030E44CE156E4C50158
S1131290B4010E94EE0A88237CF520E030E04AE79E
S11312A054E4C501B4010E94F30A0E946C0B21E0CE
S11312B030E0AB016C2F8D2F0E94B80761E06C0FFA
S11312C045E251E08D2F0E946804C501B4010E94DB
S11312D0650BCB0168EE73E00E94D30C62E06C0FE7
S11312E0870123E030E0AC018D2F0E94D20487E215
S11312F091E00E944A0438C020E030E44CE156E416
S1131300C501B4010E944D0C882374F120E030E043
S11313104AE754E4C501B4010E94F30A0E946C0B2D
S113132022E030E0AB016C2F8D2F0E94B80762E001
S11313306C0F45E251E08D2F0E946804C501B40191
S11313400E94650BCB0168EE73E00E94D30C63E04E
S11313506C0F870123E030E0AC018D2F0E94D20492
S113136088E291E00E944A04DF91CF911F910F918E
S1131370FF90EF90BF90AF909F908F9008950E9440
S113138011040E9453000895F8940E9479040E9465
S11313905600789408950E94BF090E94C4094AE245
S11313A051E067E081E00E9468042FEF85EA9EE047
S11313B0215080409040E1F700C000001D9B1BC0FD
S11313C04EE251E061E082E00E94680480E090E037
S11313D0A0E8B0E48093870190938801A0938901E9
S11313E0B0938A01109208011092090110920A0127
S11313F010920B0112C04FE351E062E082E00E94C0
S113140068048AE999E9A9EFB1E48093870190938C
S11314108801A0938901B0938A012FEF8BE49DE1A9
S1131420215080409040E1F700C000000E94CE04AB
S113143010E0D3E004E00E940C010E9454010E94D9
S113144089010E94D30281110FC061E081E00E94F2
S11314503B026AE081E00E94560261E082E00E9461
S113146071020E948C02E7CF0E94CE04C12F42C0B9
S11314700E940C010E9454010E9489010E940602EC
S11314800E94D302823089F08330E9F0813049F53B
S113149061E00E947102C13069F14DE451E061E004
S11314A082E00E946804C1E025C061E081E00E94FE
S11314B05602C230F9F04CE551E061E082E00E944E
S11314C06804C2E017C061E081E00E943B02C330BF
S11314D089F04DE651E061E082E00E946804CD2F7E
S11314E009C0C11107C04EE751E066E081E00E94E7
S11314F06804C02F0E94D3028111BACF0E94CE0487
S11315009ACF5058BB27AA270E94990A0C94130C0F
S11315100E94050C38F00E940C0C20F039F49F3F17
S113152019F426F40C94020C0EF4E095E7FB0C94E9
S1131530FC0BE92F0E94240C58F3BA1762077307B7
S11315408407950720F079F4A6F50C94460C0EF464
S1131550E0950B2EBA2FA02D0B01B90190010C01BF
S1131560CA01A0011124FF27591B99F0593F50F4D7
S1131570503E68F11A16F040A22F232F342F44272F
S1131580585FF3CF469537952795A795F040539527
S1131590C9F77EF41F16BA0B620B730B840BBAF0F7
S11315A09150A1F0FF0FBB1F661F771F881FC2F762
S11315B00EC0BA0F621F731F841F48F48795779576
S11315C06795B795F7959E3F08F0B0CF9395880F30
S11315D008F09927EE0F9795879508950E94D80BE8
S11315E008F481E008950E94070B0C94130C0E94E8
S11315F00C0C58F00E94050C40F029F45F3F29F0D0
S11316000C94FC0B51110C94470C0C94020C0E948A
S1131610240C68F39923B1F3552391F3951B550BCF
S1131620BB27AA2762177307840738F09F5F5F4FB1
S1131630220F331F441FAA1FA9F335D00E2E3AF0F0
S1131640E0E832D091505040E695001CCAF72BD008
S1131650FE2F29D0660F771F881FBB1F2617370759
S11316604807AB07B0E809F0BB0B802DBF01FF278B
S113167093585F4F3AF09E3F510578F00C94FC0B61
S11316800C94470C5F3FE4F3983ED4F3869577952A
S11316906795B795F7959F5FC9F7880F911D969544
S11316A0879597F90895E1E0660F771F881FBB1FA0
S11316B0621773078407BA0720F0621B730B840B4D
S11316C0BA0BEE1F88F7E09508950E946C0B68949E
S11316D0B1110C94470C08950E942C0C88F09F576C
S11316E098F0B92F9927B751B0F0E1F0660F771F42
S11316F0881F991F1AF0BA95C9F714C0B13091F038
S11317000E94460CB1E008950C94460C672F782F84
S11317108827B85F39F0B93FCCF3869577956795FC
S1131720B395D9F73EF490958095709561957F4F68
S11317308F4F9F4F0895E89409C097FB3EF490950E
S11317408095709561957F4F8F4F9F4F9923A9F096
S1131750F92F96E9BB279395F69587957795679525
S1131760B795F111F8CFFAF4BB0F11F460FF1BC069
S11317706F5F7F4F8F4F9F4F16C0882311F096E9FC
S113178011C0772321F09EE8872F762F05C06623AA
S113179071F096E8862F70E060E02AF09A95660F63
S11317A0771F881FDAF7880F9695879597F908951C
S11317B0990F0008550FAA0BE0E8FEEF161617065E
S11317C0E807F907C0F012161306E407F50798F0C6
S11317D0621B730B840B950B39F40A2661F0232BDF
S11317E0242B252B21F408950A2609F4A140A6955B
S11317F08FEF811D811D089597F99F6780E870E040
S113180060E008959FEF80EC089500240A94161672
S1131810170618060906089500240A9412161306DA
S1131820140605060895092E0394000C11F4882368
S113183052F0BB0F40F4BF2B11F460FF04C06F5F84
S11318407F4F8F4F9F4F089557FD9058440F551F5A
S113185059F05F3F71F04795880F97FB991F61F02E
S11318609F3F79F087950895121613061406551FA5
S1131870F2CF4695F1DF08C0161617061806991F11
S1131880F1CF86957105610508940895E894BB2706
S113189066277727CB0197F908950E94D80B08F49F
S11318A08FEF08950E94650C0C94130C0E94050C94
S11318B038F00E940C0C20F0952311F00C94FC0BD2
S11318C00C94020C11240C94470C0E94240C70F309
S11318D0959FC1F3950F50E0551F629FF001729FD1
S11318E0BB27F00DB11D639FAA27F00DB11DAA1FE0
S11318F0649F6627B00DA11D661F829F2227B00D2D
S1131900A11D621F739FB00DA11D621F839FA00DB7
S1131910611D221F749F3327A00D611D231F849F07
S1131920600D211D822F762F6A2F11249F5750405E
S11319309AF0F1F088234AF0EE0FFF1FBB1F661FD9
S1131940771F881F91505040A9F79E3F510580F0A2
S11319500C94FC0B0C94470C5F3FE4F3983ED4F3D7
S1131960869577956795B795F795E7959F5FC1F746
S1131970FE2B880F911D9695879597F90895AA1BBC
S1131980BB1B51E107C0AA1FBB1FA617B70710F066
S1131990A61BB70B881F991F5A95A9F78095909598
S11319A0BC01CD01089597FB072E16F4009407D0CF
S11319B077FD09D00E94BF0C07FC05D03EF490953A
S11319C081959F4F0895709561957F4F0895A29FCB
S11319D0B001B39FC001A39F700D811D1124911DFF
S11319E0B29F700D811D1124911D0895F894FFCFAD
S11319F08813204E3075D007333306436D41006D94
S1131A0056006D570046616E204F6E200046616E91
S1131A10204F6666002E0020200043434C0053757F
S1131A2070706C7920436F6E6E6563746564003109
S1131A30327620537570706C79204E4300506F7766
S1131A40657220457863656564656400566F6C74DF
S1131A5061676520457863656564656400437572F4
S1131A6072656E74204578636565646564004572CB
S1071A70726F72001B
S9030000FC
