S00B00004C43442E7372656346
S11300000C9434000C9451000C9451000C94510045
S11300100C9451000C9451000C9451000C94510018
S11300200C9451000C9451000C9451000C94510008
S11300300C9451000C9451000C9451000C945100F8
S11300400C9451000C9451000C9451000C945100E8
S11300500C9451000C94CF000C9451000C9451005A
S11300600C9451000C94510011241FBECFEFD8E022
S1130070DEBFCDBF11E0A0E0B1E0E0E0F2E102C0FC
S113008005900D92AA36B107D9F721E0AAE6B1E0AE
S113009001C01D92A239B207E1F70E9400060C9438
S11300A0FE080C94000017B818B808958FE88093E0
S11300B07A0083B7826083BF089583B7817F8260AB
S11300C083BF83B7816083BF889583B78E7F83BFE7
S11300D00895883050F480937C008FE99FE0019765
S11300E0F1F700C000000E945D0008957F928F9296
S11300F09F92AF92BF92CF92DF92EF92FF920F93B3
S11301001F93CF93DF93782EC62ED12C1C141D047D
S113011034F5C1E0D0E0812C912C5401082F10E07B
S1130120000F111F04571E4F7601872D0E9469008E
S1130130F80180819181B7010E94DB0880E090E0A2
S11301400E94B7079B01AC01C501B4010E94A5063A
S11301504B015C012196CC16DD063CF703C0812CD3
S1130160912C5401C72DD0E0C501B4010E94880729
S1130170FE01EE0FFF1FE457FE4F71836083808101
S11301809181DF91CF911F910F91FF90EF90DF90BC
S1130190CF90BF90AF909F908F907F9008951F92C3
S11301A00F920FB60F9211242F933F934F938F9377
S11301B09F93EF93FF93E0917C00409178008091AE
S11301C07900EF70F0E021E030E0811102C020E01E
S11301D030E0EE0FFF1FE457FE4F31832083208170
S11301E03181322F22273183208390E0982F882772
S11301F0840F911D91838083FF91EF919F918F9143
S11302004F913F912F910F900FBE0F901F90189513
S11302106AE080E00E947600BC0180E090E00E94E9
S1130220B70727EE3BEF49EF5FE30E946E082AE928
S113023039E949E95EE30E94A50620916B013091FA
S11302406C0140916D0150916E010E94A50660936E
S11302507701709378018093790190937A010895DE
S11302606AE081E00E947600BC0180E090E00E9498
S1130270B7072CEE31E54AEE51E40E946E08609314
S11302807B0170937C0180937D0190937E0108959E
S113029020917701309178014091790150917A0150
S11302A060917B0170917C0180917D0190917E0130
S11302B00E946E0820E030E04AE754E40E941607EA
S11302C06093730170937401809375019093760128
S11302D008956AE082E00E947600BC0180E090E02C
S11302E00E94B70720E030E040EF50E40E946E081F
S11302F060936F0170937001809371019093720108
S113030008950F931F93CF93DF93C82FD62F609137
S11303107701709178018091790190917A010E941E
S1130320880706E011E024E030E0AB016D2F8C2F4C
S11303300E949503DF91CF911F910F9108950F9320
S11303401F93CF93DF93C82FD62F60917B017091B9
S11303507C0180917D0190917E010E94880709E0D3
S113036011E025E030E0AB016D2F8C2F0E94950346
S1130370DF91CF911F910F9108950F931F93CF9306
S1130380DF93C82FD62F609173017091740180910F
S11303907501909176010E9488070CE011E025E038
S11303A030E0AB016D2F8C2F0E949503DF91CF912C
S11303B01F910F9108950F931F93CF93DF93C82F2D
S11303C0D62F60916F0170917001809171019091AD
S11303D072010E94880709E011E024E030E0AB01DB
S11303E06D2F8C2F0E949503DF91CF911F910F9158
S11303F00895AF92BF92CF92DF92EF92FF920F9344
S11304001F93CF93DF93C0910401D0910501C09055
S11304107701D0907801E0907901F0907A01BE01E3
S11304200D2E000C880B990B0E94B907A7019601A9
S11304300E94690818160CF04BC00091020110913B
S11304400301B801012E000C880B990B0E94B90717
S113045020917B0130917C0140917D0150917E017E
S11304600E9469081816A4F5A0900001B09001013B
S1130470B5010B2C000C880B990B0E94B907209135
S113048073013091740140917501509176010E947D
S113049069081816ECF480916A01813009F079C07A
S11304A08CE0A81A8EEFB80AB0920101A092000164
S11304B00053184F1093030100930201CC59DF4FEE
S11304C0D0930501C093040110926A0180E068C0D2
S11304D080916A0181111DC08091000190910101F8
S11304E0845F914090930101809300018091020107
S11304F090910301805D97409093030180930201E2
S1130500C456D109D0930501C093040181E08093BE
S11305106A016091000170910101072E000C880BA3
S1130520990B0E94B9072091730130917401409195
S11305307501509176010E941107882364F160913E
S1130540020170910301072E000C880B990B0E9485
S1130550B90720917B0130917C0140917D0150913C
S11305607E010E9411078823C4F0609104017091F8
S11305700501072E000C880B990B0E94B9079B01FB
S1130580AC01C701B6010E946908181644F084E062
S113059007C080E005C081E003C082E001C083E0C1
S11305A0DF91CF911F910F91FF90EF90DF90CF904B
S11305B0BF90AF900895982F881F8827881F96FDB5
S11305C002C020E001C022E0822B95FD02C020E0A1
S11305D001C024E0822B94FD02C020E001C028E089
S11305E0822B93FD02C020E001C020E1822B92FD0A
S11305F002C020E001C020E2822B91FD02C020E075
S113060001C020E4822B90FD02C090E001C090E87C
S1130610892B0895CF93C82F807F0E94DB02880F17
S1130620880F80937F019BB1937C9BB98BB1909190
S11306307F01982B9BB95F985E9A8FE19EE40197A6
S1130640F1F700C000005E988C2F8295807F0E9495
S1130650DB029BB1937C9BB99BB1880F880F982BCD
S11306609BB95F985E9A8FE19EE40197F1F700C011
S113067000005E98CF910895CF93C82F807F0E9489
S1130680DB029BB1937C9BB99BB1880F880F982B9D
S11306909BB95F9A5E9A8FE19EE40197F1F700C0DF
S11306A000005E988C2F8295807F0E94DB029BB1B4
S11306B0937C9BB99BB1880F880F982B9BB95F9A49
S11306C05E9A8FE19EE40197F1F700C000005E9806
S11306D0CF9108958AB18C6F8AB98BB184708BB92C
S11306E0089580E80E940A030895813019F0823049
S11306F031F008958FE7860F0E940A0308958FEB67
S1130700860F0E940A030895CF93DF93EA010E94A3
S113071075038881882331F021960E943C038991D6
S11307208111FBCFDF91CF910895CF92DF92EF92A9
S1130730FF920F931F93CF936A017901882311F0DD
S1130740611103C00E94710302C00E94750325E079
S1130750E216F104F1F49601329522952F702327C5
S11307603F702327A7E4B3E00E94EF08969587958E
S11307709695879596958795C096909381018093D9
S113078080018033910509F476C00E943C03C1E0E6
S113079073C034E0E316F10409F0DCC021C1CC23BA
S11307A009F4A4C001C0C0E00E943C03CF5F9EC016
S11307B0CC2309F4D5C001C0C0E00E943C03CF5F44
S11307C0CFC082E0E816F10409F0FCC079C1CC2363
S11307D039F001C0C0E00E943C03CF5F01C0C0E01B
S11307E09601ADECBCEC0E94EF0896958795969522
S11307F08795969587959C01220F331F880F991F23
S1130800880F991F880F991F820F931FF601E81B09
S1130810F90BCF01C09690938901809388010E94BF
S11308203C03CF5FF6E0EF16F1041CF085E40E9470
S11308303C03F8018081882309F4CBC00F5F1F4F6C
S11308400E943C03CF5FFFEFEF1AFF0AF80181918A
S11308508F018111F5CF8C2F90E08E159F050CF040
S113086062C180E20E943C03CF5F8C2F90E08E1522
S11308709F05B9F758C1C0E096013695279536957E
S1130880279536952795A5ECB0E20E94EF08AC01B8
S1130890529542954F7045275F70452750938B01C1
S11308A040938A019A01ADECBCEC0E94EF08969546
S11308B0879596958795969587959C01220F331F6A
S11308C0880F991F880F991F880F991F820F931FF4
S11308D09A01281B390BC901C09690938301809318
S11308E082018033910509F05FCF59CF9601369587
S11308F0279536952795ABE7B4E10E94EF08AC0144
S11309005695479550938B0140938A019A01ADEC1B
S1130910BCEC0E94EF0896958795969587959695D9
S113092087959C01220F331F880F991F880F991FE9
S1130930880F991F820F931FFA01E81BF90BCF014F
S1130940C09690938501809384018033910509F0CA
S113095034CF2ECFF3E0EF16F10409F032CF7BC091
S11309609601ADECBCEC0E94EF08AC01569547959E
S1130970569547955695479550938B0140938A0118
S11309809A010E94EF089695879596958795969576
S113099087959C01220F331F880F991F880F991F79
S11309A0880F991F820F931F9A01281B390BC901C5
S11309B0C09690938701809386018033910509F056
S11309C00ACF05CF31E0E316F10409F408CFC0E003
S11309D029CF8C2F90E08E159F050CF442CFA3C035
S11309E09601369527953695279536952795A5EC46
S11309F0B0E20E94EF08AC01529542954F70452732
S1130A005F70452750938B0140938A019A01ADECA6
S1130A10BCEC0E94EF0896958795969587959695D8
S1130A2087959C01220F331F880F991F880F991FE8
S1130A30880F991F820F931FFA01E81BF90BCF014E
S1130A40C09690938301809382018033910509F0CD
S1130A50AACEC0E04BCF96013695279536952795BB
S1130A60ABE7B4E10E94EF08AC015695479550936B
S1130A708B0140938A019A01ADECBCEC0E94EF0813
S1130A809695879596958795969587959C01220FBF
S1130A90331F880F991F880F991F880F991F820F82
S1130AA0931F9A01281B390BC901C09690938501A5
S1130AB0809384018033910509F07ECEC0E050CF4D
S1130AC09601ADECBCEC0E94EF08AC01569547953D
S1130AD0569547955695479550938B0140938A01B7
S1130AE09A010E94EF089695879596958795969515
S1130AF087959C01220F331F880F991F880F991F18
S1130B00880F991F820F931FFA01E81BF90BCF017D
S1130B10C09690938701809386018033910509F0F4
S1130B2059CEC0E05DCECF911F910F91FF90EF9011
S1130B30DF90CF9008958FE99FE00197F1F700C00F
S1130B4000005F9880E38BB95E9AEFE1FEE4319791
S1130B50F1F700C000005E98EFE9FFE03197F1F78C
S1130B6000C000005F988BB95E9AEFE1FEE4319714
S1130B70F1F700C000005E98EFE9FFE03197F1F76C
S1130B8000C000005F988BB95E9A8FE19EE40197E4
S1130B90F1F700C000005E98EFE9FFE03197F1F74C
S1130BA000C000005F9880E18BB95E9A8FE99FE0F6
S1130BB00197F1F700C000005E98EFE9FFE031977C
S1130BC0F1F700C0000088E20E940A0381E00E945D
S1130BD00A038CE00E940A0380E80E940A03089535
S1130BE081E00E940A0308950E946A030E94530050
S1130BF00895F8940E949B050E94560078940895E5
S1130C000E94F4050E94F9054FE051E067E081E09D
S1130C100E9484032FEF85EA9EE02150804090409B
S1130C20E1F700C000001D9B07C043E151E061E013
S1130C3082E00E94840312C044E251E062E082E058
S1130C400E9484038AE999E9A1EDB1E480936B01E0
S1130C5090936C01A0936D01B0936E012FEF8BE420
S1130C609DE1215080409040E1F700C000000E94C7
S1130C70F005D0E00E9408010E9430010E94480162
S1130C800E9469010E94F901811111C061E081E0B3
S1130C900E9481016AE081E00E949F0161E082E09C
S1130CA00E94BD016AE082E00E94DB01E3CF0E9462
S1130CB0F005CD2F42C00E9408010E9430010E941D
S1130CC048010E9469010E94F901823089F0833051
S1130CD0E9F0813049F561E00E94BD01C1112DC0E8
S1130CE042E351E061E082E00E948403C1E025C058
S1130CF061E081E00E949F01C1111FC041E451E005
S1130D0061E081E00E948403C1E017C061E081E0FA
S1130D100E948101C11111C042E551E061E081E00E
S1130D200E948403C1E009C0C11107C043E651E039
S1130D3066E081E00E948403C1E00E94F901811110
S1130D40BACF0E94F00596CF5058BB27AA270E941D
S1130D50BC060C942F080E94210838F00E94280831
S1130D6020F039F49F3F19F426F40C941E080EF475
S1130D70E095E7FB0C941808E92F0E94400858F30B
S1130D80BA17620773078407950720F079F4A6F56C
S1130D900C9462080EF4E0950B2EBA2FA02D0B01D3
S1130DA0B90190010C01CA01A0011124FF27591BAC
S1130DB099F0593F50F4503E68F11A16F040A22FB2
S1130DC0232F342F4427585FF3CF46953795279523
S1130DD0A795F0405395C9F77EF41F16BA0B620B22
S1130DE0730B840BBAF09150A1F0FF0FBB1F661F69
S1130DF0771F881FC2F70EC0BA0F621F731F841FAC
S1130E0048F4879577956795B795F7959E3F08F0D1
S1130E10B0CF9395880F08F09927EE0F9795879593
S1130E2008950E94F40708F481E008950E942A07B7
S1130E300C942F080E94280858F00E94210840F0C2
S1130E4029F45F3F29F00C94180851110C9463089D
S1130E500C941E080E94400868F39923B1F35523AB
S1130E6091F3951B550BBB27AA27621773078407B9
S1130E7038F09F5F5F4F220F331F441FAA1FA9F34F
S1130E8035D00E2E3AF0E0E832D091505040E6953D
S1130E90001CCAF72BD0FE2F29D0660F771F881F9E
S1130EA0BB1F261737074807AB07B0E809F0BB0B91
S1130EB0802DBF01FF2793585F4F3AF09E3F5105A5
S1130EC078F00C9418080C9463085F3FE4F3983EA0
S1130ED0D4F3869577956795B795F7959F5FC9F78E
S1130EE0880F911D9695879597F90895E1E0660F0F
S1130EF0771F881FBB1F621773078407BA0720F088
S1130F00621B730B840BBA0BEE1F88F7E0950895F0
S1130F100E94480888F09F5798F0B92F9927B75135
S1130F20B0F0E1F0660F771F881F991F1AF0BA9589
S1130F30C9F714C0B13091F00E946208B1E008957D
S1130F400C946208672F782F8827B85F39F0B93F6F
S1130F50CCF3869577956795B395D9F73EF490953C
S1130F608095709561957F4F8F4F9F4F0895E894BA
S1130F7009C097FB3EF490958095709561957F4FDD
S1130F808F4F9F4F9923A9F0F92F96E9BB2793958B
S1130F90F695879577956795B795F111F8CFFAF49B
S1130FA0BB0F11F460FF1BC06F5F7F4F8F4F9F4FCC
S1130FB016C0882311F096E911C0772321F09EE82A
S1130FC0872F762F05C0662371F096E8862F70E090
S1130FD060E02AF09A95660F771F881FDAF7880F6A
S1130FE09695879597F90895990F0008550FAA0BC0
S1130FF0E0E8FEEF16161706E807F907C0F0121628
S11310001306E407F50798F0621B730B840B950B2A
S113101039F40A2661F0232B242B252B21F408957F
S11310200A2609F4A140A6958FEF811D811D08951C
S113103097F99F6780E870E060E008959FEF80EC87
S1131040089500240A94161617061806090608952A
S113105000240A9412161306140605060895092E90
S11310600394000C11F4882352F0BB0F40F4BF2BFF
S113107011F460FF04C06F5F7F4F8F4F9F4F08953F
S113108057FD9058440F551F59F05F3F71F0479535
S1131090880F97FB991F61F09F3F79F0879508951A
S11310A0121613061406551FF2CF4695F1DF08C039
S11310B0161617061806991FF1CF86957105610556
S11310C008940895E894BB2766277727CB0197F9FE
S11310D008950E94F40708F48FEF08950E94810890
S11310E00C942F080E94210838F00E94280820F050
S11310F0952311F00C9418080C941E0811240C94D8
S113110063080E94400870F3959FC1F3950F50E067
S1131110551F629FF001729FBB27F00DB11D639FA5
S1131120AA27F00DB11DAA1F649F6627B00DA11D4B
S1131130661F829F2227B00DA11D621F739FB00DF1
S1131140A11D621F839FA00D611D221F749F332761
S1131150A00D611D231F849F600D211D822F762FFA
S11311606A2F11249F5750409AF0F1F088234AF0D7
S1131170EE0FFF1FBB1F661F771F881F9150504043
S1131180A9F79E3F510580F00C9418080C9463084D
S11311905F3FE4F3983ED4F3869577956795B795CA
S11311A0F795E7959F5FC1F7FE2B880F911D9695E4
S11311B0879597F90895AA1BBB1B51E107C0AA1F85
S11311C0BB1FA617B70710F0A61BB70B881F991FE4
S11311D05A95A9F780959095BC01CD010895A29FD9
S11311E0B001B39FC001A39F700D811D1124911DF7
S11311F0B29F700D811D1124911D0895F894FFCFA5
S11312001027A861DC056D41006D56006D57004341
S1131210434C00537570706C7920436F6E6E656338
S11312207465640031327620537570706C79204E89
S11312304300506F77657220457863656564656423
S113124000566F6C746167652045786365656465F5
S1131250640043757272656E7420457863656564D5
S10D12606564004572726F720000AD
S9030000FC
