S00B00004C43442E7372656346
S11300000C9434000C9451000C9451000C94510045
S11300100C9451000C9451000C9451000C94510018
S11300200C9451000C9451000C9451000C94510008
S11300300C9451000C9451000C9451000C945100F8
S11300400C9451000C9451000C9451000C945100E8
S11300500C9451000C94C7000C9451000C94510062
S11300600C9451000C94510011241FBECFEFD8E022
S1130070DEBFCDBF11E0A0E0B1E0E6E3FCE002C0EA
S113008005900D92AE32B107D9F721E0AEE2B1E0AE
S113009001C01D92A434B207E1F70E943D030C9401
S11300A019060C94000017B818B808958FE88093C7
S11300B07A0083B7826083BF089583B7816083BF6A
S11300C00895883050F480937C008FE99FE0019775
S11300D0F1F700C000000E945D0008957F928F92A6
S11300E09F92AF92BF92CF92DF92EF92FF920F93C3
S11300F01F93CF93DF93782EC62ED12C1C141D048E
S113010034F5C1E0D0E0812C912C5401082F10E08B
S1130110000F111F025C1E4F7601872D0E946100A3
S1130120F80180819181B7010E94F60580E090E09A
S11301300E94FB049B01AC01C501B4010E94EE03C3
S11301404B015C012196CC16DD063CF703C0812CE3
S1130150912C5401C72DD0E0C501B4010E94CC04F8
S1130160FE01EE0FFF1FE25CFE4F7183608380810E
S11301709181DF91CF911F910F91FF90EF90DF90CC
S1130180CF90BF90AF909F908F907F9008951F92D3
S11301900F920FB60F9211242F938F939F93AF93C7
S11301A0BF93EF93FF93CF93DF9300D0CDB7DEB728
S11301B0E0917C00AAE7B0E08C9180618C938091FF
S11301C078008983809179008A83EF70F0E02A8136
S11301D081E090E0211102C080E090E0EE0FFF1F6B
S11301E0E25CFE4F9183808380819181982F8827E0
S11301F0918380838A81298190E0982F8827820FB8
S1130200911D9183808380913C0190913D010196E1
S113021090933D0180933C0110922E010F900F901A
S1130220DF91CF91FF91EF91BF91AF919F918F910A
S11302302F910F900FBE0F901F901895982F881F25
S11302408827881F96FD02C020E001C022E0822B8F
S113025095FD02C020E001C024E0822B94FD02C081
S113026020E001C028E0822B93FD02C020E001C001
S113027020E1822B92FD02C020E001C020E2822B0B
S113028091FD02C020E001C020E4822B90FD02C059
S113029090E001C090E8892B0895CF93C82F807F08
S11302A00E941E01880F880F80932F019BB1937CBD
S11302B09BB98BB190912F01982B9BB95F985E9A53
S11302C08FE19EE40197F1F700C000005E988C2F47
S11302D08295807F0E941E019BB1937C9BB99BB148
S11302E0880F880F982B9BB95F985E9A8FE19EE4E4
S11302F00197F1F700C000005E98CF910895CF9365
S1130300C82F807F0E941E019BB1937C9BB99BB137
S1130310880F880F982B9BB95F9A5E9A8FE19EE4B1
S11303200197F1F700C000005E988C2F8295807FC2
S11303300E941E019BB1937C9BB99BB1880F880FCF
S1130340982B9BB95F9A5E9A8FE19EE40197F1F72F
S113035000C000005E98CF9108958AB18C6F8AB96D
S11303608BB184708BB9089580E80E944D01089583
S1130370813019F0823031F008958FE7860F0E94A2
S11303804D0108958FEB860F0E944D010895CF9380
S1130390DF93EA010E94B8018881882331F0219615
S11303A00E947F0189918111FBCFDF91CF91089544
S11303B00F931F93CF93DF938A01E901882311F0F0
S11303C0611103C00E94B40102C00E94B801C5308B
S11303D0D105C9F49801329522952F7023273F70D7
S11303E02327A7E4B3E00E940A069695879596957D
S11303F0879596958795C0969093310180933001A7
S11304000E947F0104C0C430D10509F0C3C0980123
S1130410369527953695279536952795A5ECB0E220
S11304200E940A06AC01529542954F7045275F70B1
S1130430452750933B0140933A019A01ADECBCEC43
S11304400E940A0696958795969587959695879521
S11304509C01220F331F880F991F880F991F880F43
S1130460991F820F931F9A01281B390BC901C0964B
S113047090933301809332010E947F019801369555
S1130480279536952795ABE7B4E10E940A06AC019F
S11304905695479550933B0140933A019A01ADEC30
S11304A0BCEC0E940A069695879596958795969535
S11304B087959C01220F331F880F991F880F991F5E
S11304C0880F991F820F931F9A01281B390BC901AA
S11304D0C09690933501809334010E947F0104C03B
S11304E0C230D10509F05BC09801ADECBCEC0E94B0
S11304F00A06AC01569547955695479556954795E6
S113050050933B0140933A019A010E940A06969542
S1130510879596958795969587959C01220F331F0D
S1130520880F991F880F991F880F991F820F931F97
S11305309A01281B390BC901C09690933701809307
S113054036010E947F019801ADECBCEC0E940A06C2
S11305509695879596958795969587959C01220FF4
S1130560331F880F991F880F991F880F991F820FB7
S1130570931F9801281B390BC901C0969093390128
S1130580809338010E947F0126976CF085E40E94D5
S11305907F0109C0C330D10509F0A2CF6FCFC130AC
S11305A0D10591F7D0CFDF91CF911F910F9108958D
S11305B08FE99FE00197F1F700C000005F9880E3A6
S11305C08BB95E9AEFE1FEE43197F1F700C00000C9
S11305D05E98EFE9FFE03197F1F700C000005F9803
S11305E08BB95E9AEFE1FEE43197F1F700C00000A9
S11305F05E98EFE9FFE03197F1F700C000005F98E3
S11306008BB95E9A8FE19EE40197F1F700C0000078
S11306105E98EFE9FFE03197F1F700C000005F98C2
S113062080E18BB95E9A8FE99FE00197F1F700C0F2
S113063000005E98EFE9FFE03197F1F700C0000099
S113064088E20E944D0181E00E944D018CE00E94ED
S11306504D0180E80E944D01089581E00E944D0102
S113066008950E94AD010E9453000895F8940E94D9
S1130670D8020E945600789408950E9431030E9483
S1130680360340E051E067E081E00E94C7012FEFAC
S113069085EA9EE0215080409040E1F700C00000D0
S11306A01D9B0AC044E051E061E082E00E94C70162
S11306B0C12CD12C760110C045E151E062E082E00A
S11306C00E94C7010F2EFAE9CF2EF9E9DF2EF1EED1
S11306D0EF2EF1E4FF2EF02D2FEF8BE49DE121505E
S11306E080409040E1F700C000000E942D036AE0C2
S11306F080E00E946E00BC0180E090E00E94FB0458
S113070027EE3BEF49EF5FE30E94890526E636E6D4
S113071046EB50E40E94EE03A70196010E94EE030B
S11307204B015C010E94CC0424E030E0AB0161E0A9
S113073081E00E94D80143E251E065E081E00E943B
S1130740C7016AE081E00E946E00BC0180E090E095
S11307500E94FB0426E636E64AEE51E40E9489052F
S11307602B013C010E94CC0425E030E0AB016AE09F
S113077081E00E94D80148E251E06FE081E00E94EC
S1130780C701A5019401C301B2010E94890520E0BB
S113079030E04AE754E40E945A040E94CC0425E065
S11307A030E0AB0161E082E00E94D8014BE251E00D
S11307B066E082E00E94C7018FE39CE90197F1F7AC
S11307C000C0000040913C0150913D0123E030E025
S11307D06BE082E00E94D8018ACF5058BB27AA2739
S11307E00E9405040C944F050E94410538F00E94B4
S11307F0480520F039F49F3F19F426F40C943E0583
S11308000EF4E095E7FB0C943805E92F0E9460058F
S113081058F3BA17620773078407950720F079F431
S1130820A6F50C9482050EF4E0950B2EBA2FA02D9C
S11308300B01B90190010C01CA01A0011124FF2789
S1130840591B99F0593F50F4503E68F11A16F04084
S1130850A22F232F342F4427585FF3CF4695379583
S11308602795A795F0405395C9F77EF41F16BA0B48
S1130870620B730B840BBAF09150A1F0FF0FBB1FF6
S1130880661F771F881FC2F70EC0BA0F621F731F3F
S1130890841F48F4879577956795B795F7959E3F9C
S11308A008F0B0CF9395880F08F09927EE0F97952D
S11308B0879508950E946E040C944F050E94480584
S11308C058F00E94410540F029F45F3F29F00C9450
S11308D0380551110C9483050C943E050E94600563
S11308E068F39923B1F3552391F3951B550BBB275B
S11308F0AA2762177307840738F09F5F5F4F220FA0
S1130900331F441FAA1FA9F335D00E2E3AF0E0E896
S113091032D091505040E695001CCAF72BD0FE2FE0
S113092029D0660F771F881FBB1F26173707480774
S1130930AB07B0E809F0BB0B802DBF01FF2793582C
S11309405F4F3AF09E3F510578F00C9438050C94B3
S113095083055F3FE4F3983ED4F3869577956795D6
S1130960B795F7959F5FC9F7880F911D9695879561
S113097097F90895E1E0660F771F881FBB1F621780
S113098073078407BA0720F0621B730B840BBA0B3E
S1130990EE1F88F7E09508950E94680588F09F5738
S11309A098F0B92F9927B751B0F0E1F0660F771F8F
S11309B0881F991F1AF0BA95C9F714C0B13091F085
S11309C00E948205B1E008950C948205672F782F68
S11309D08827B85F39F0B93FCCF38695779567954A
S11309E0B395D9F73EF490958095709561957F4FB6
S11309F08F4F9F4F0895E89409C097FB3EF490955C
S1130A008095709561957F4F8F4F9F4F9923A9F0E3
S1130A10F92F96E9BB279395F69587957795679572
S1130A20B795F111F8CFFAF4BB0F11F460FF1BC0B6
S1130A306F5F7F4F8F4F9F4F16C0882311F096E949
S1130A4011C0772321F09EE8872F762F05C06623F7
S1130A5071F096E8862F70E060E02AF09A95660FB0
S1130A60771F881FDAF7880F9695879597F9089569
S1130A7097F99F6780E870E060E008959FEF80EC4D
S1130A80089500240A9416161706180609060895F0
S1130A9000240A9412161306140605060895092E56
S1130AA00394000C11F4882352F0BB0F40F4BF2BC5
S1130AB011F460FF04C06F5F7F4F8F4F9F4F089505
S1130AC057FD9058440F551F59F05F3F71F04795FB
S1130AD0880F97FB991F61F09F3F79F087950895E0
S1130AE0121613061406551FF2CF4695F1DF08C0FF
S1130AF0161617061806991FF1CF8695710561051C
S1130B0008940895E894BB2766277727CB0197F9C3
S1130B1008950E949C050C944F050E94410538F0ED
S1130B200E94480520F0952311F00C9438050C948C
S1130B303E0511240C9483050E94600570F3959F73
S1130B40C1F3950F50E0551F629FF001729FBB27C0
S1130B50F00DB11D639FAA27F00DB11DAA1F649F5C
S1130B606627B00DA11D661F829F2227B00DA11D0F
S1130B70621F739FB00DA11D621F839FA00D611D95
S1130B80221F749F3327A00D611D231F849F600DB6
S1130B90211D822F762F6A2F11249F5750409AF0DF
S1130BA0F1F088234AF0EE0FFF1FBB1F661F771F6B
S1130BB0881F91505040A9F79E3F510580F00C9436
S1130BC038050C9483055F3FE4F3983ED4F386958F
S1130BD077956795B795F795E7959F5FC1F7FE2BD6
S1130BE0880F911D9695879597F90895AA1BBB1BAD
S1130BF051E107C0AA1FBB1FA617B70710F0A61B19
S1130C00B70B881F991F5A95A9F780959095BC0139
S1130C10CD010895A29FB001B39FC001A39F700DA1
S1130C20811D1124911DB29F700D811D1124911DF0
S1090C300895F894FFCFC3
S1130C3643434C00537570706C7920436F6E6E6538
S1130C46637465640031327620537570706C792054
S1110C564E43006D412020006D56006D570086
S9030000FC
