:100000000C9434000C9451000C9451000C94510049
:100010000C9451000C9451000C9451000C9451001C
:100020000C9451000C9451000C9451000C9451000C
:100030000C9451000C9451000C9451000C945100FC
:100040000C9451000C9451000C9451000C945100EC
:100050000C9451000C94CF000C9451000C9451005E
:100060000C9451000C94510011241FBECFEFD8E026
:10007000DEBFCDBF11E0A0E0B1E0EEE2FCE002C0E7
:1000800005900D92AE32B107D9F721E0AEE2B1E0B2
:1000900001C01D92A334B207E1F70E942D030C9416
:1000A00015060C94000017B818B808958FE88093CF
:1000B0007A0083B7826083BF089583B7817F8260AF
:1000C00083BF83B7816083BF889583B78E7F83BFEB
:1000D0000895883050F480937C008FE99FE0019769
:1000E000F1F700C000000E945D0008957F928F929A
:1000F0009F92AF92BF92CF92DF92EF92FF920F93B7
:100100001F93CF93DF93782EC62ED12C1C141D0481
:1001100034F5C1E0D0E0812C912C5401082F10E07F
:10012000000F111F035C1E4F7601872D0E9469008E
:10013000F80180819181B7010E94F20580E090E092
:100140000E94F7049B01AC01C501B4010E94EA03BF
:100150004B015C012196CC16DD063CF703C0812CD7
:10016000912C5401C72DD0E0C501B4010E94C804F0
:10017000FE01EE0FFF1FE35CFE4F71836083808101
:100180009181DF91CF911F910F91FF90EF90DF90C0
:10019000CF90BF90AF909F908F907F9008951F92C7
:1001A0000F920FB60F9211242F933F934F938F937B
:1001B0009F93EF93FF93E0917C00409178008091B2
:1001C0007900EF70F0E021E030E0811102C020E022
:1001D00030E0EE0FFF1FE35CFE4F31832083208170
:1001E0003181322F22273183208390E0982F882776
:1001F000840F911D918380838081918190933C0134
:1002000080933B01FF91EF919F918F914F913F918F
:100210002F910F900FBE0F901F901895982F881F49
:100220008827881F96FD02C020E001C022E0822BB3
:1002300095FD02C020E001C024E0822B94FD02C0A5
:1002400020E001C028E0822B93FD02C020E001C025
:1002500020E1822B92FD02C020E001C020E2822B2F
:1002600091FD02C020E001C020E4822B90FD02C07D
:1002700090E001C090E8892B0895CF93C82F807F2C
:100280000E940E01880F880F80932E019BB1937CF2
:100290009BB98BB190912E01982B9BB95F985E9A78
:1002A0008FE19EE40197F1F700C000005E988C2F6B
:1002B0008295807F0E940E019BB1937C9BB99BB17C
:1002C000880F880F982B9BB95F985E9A8FE19EE408
:1002D0000197F1F700C000005E98CF910895CF9389
:1002E000C82F807F0E940E019BB1937C9BB99BB16C
:1002F000880F880F982B9BB95F9A5E9A8FE19EE4D6
:100300000197F1F700C000005E988C2F8295807FE6
:100310000E940E019BB1937C9BB99BB1880F880F03
:10032000982B9BB95F9A5E9A8FE19EE40197F1F753
:1003300000C000005E98CF9108958AB18C6F8AB991
:100340008BB184708BB9089580E80E943D010895B7
:10035000813019F0823031F008958FE7860F0E94C6
:100360003D0108958FEB860F0E943D010895CF93C4
:10037000DF93EA010E94A8018881882331F0219649
:100380000E946F0189918111FBCFDF91CF91089578
:100390000F931F93CF93DF938A01E901882311F014
:1003A000611103C00E94A40102C00E94A801C530CF
:1003B000D105C9F49801329522952F7023273F70FB
:1003C0002327A7E4B3E00E940606969587959695A5
:1003D000879596958795C0969093300180932F01CD
:1003E0000E946F0104C0C430D10509F0C3C0980158
:1003F000369527953695279536952795A5ECB0E245
:100400000E940606AC01529542954F7045275F70D9
:10041000452750933A01409339019A01ADECBCEC69
:100420000E94060696958795969587959695879549
:100430009C01220F331F880F991F880F991F880F67
:10044000991F820F931F9A01281B390BC901C0966F
:1004500090933201809331010E946F01980136958B
:10046000279536952795ABE7B4E10E940606AC01C7
:100470005695479550933A01409339019A01ADEC56
:10048000BCEC0E940606969587959695879596955D
:1004900087959C01220F331F880F991F880F991F82
:1004A000880F991F820F931F9A01281B390BC901CE
:1004B000C09690933401809333010E946F0104C071
:1004C000C230D10509F05BC09801ADECBCEC0E94D4
:1004D0000606AC015695479556954795569547950E
:1004E00050933A01409339019A010E94060696956D
:1004F000879596958795969587959C01220F331F32
:10050000880F991F880F991F880F991F820F931FBB
:100510009A01281B390BC901C0969093360180932C
:1005200035010E946F019801ADECBCEC0E940606FB
:100530009695879596958795969587959C01220F18
:10054000331F880F991F880F991F880F991F820FDB
:10055000931F9801281B390BC901C096909338014D
:10056000809337010E946F0126976CF085E40E940A
:100570006F0109C0C330D10509F0A2CF6FCFC130E0
:10058000D10591F7D0CFDF91CF911F910F910895B1
:100590008FE99FE00197F1F700C000005F9880E3CA
:1005A0008BB95E9AEFE1FEE43197F1F700C00000ED
:1005B0005E98EFE9FFE03197F1F700C000005F9827
:1005C0008BB95E9AEFE1FEE43197F1F700C00000CD
:1005D0005E98EFE9FFE03197F1F700C000005F9807
:1005E0008BB95E9A8FE19EE40197F1F700C000009D
:1005F0005E98EFE9FFE03197F1F700C000005F98E7
:1006000080E18BB95E9A8FE99FE00197F1F700C016
:1006100000005E98EFE9FFE03197F1F700C00000BD
:1006200088E20E943D0181E00E943D018CE00E9431
:100630003D0180E80E943D01089581E00E943D0156
:1006400008950E949D010E9453000895F8940E940D
:10065000C8020E945600789408950E9421030E94C7
:10066000260340E051E067E081E00E94B7012FEFF0
:1006700085EA9EE0215080409040E1F700C00000F4
:100680001D9B0AC044E051E061E082E00E94B70196
:10069000C12CD12C760110C045E151E062E082E02E
:1006A0000E94B7010F2EFAE9CF2EF9E9DF2EF1ED06
:1006B000EF2EF1E4FF2EF02D2FEF8BE49DE1215082
:1006C00080409040E1F700C000000E941D036AE0F6
:1006D00080E00E947600BC0180E090E00E94F70478
:1006E0009B01AC010E94EA032AE939E949E95EE38A
:1006F0000E94EA03A70196010E94EA034B015C01F4
:100700000E94C80424E030E0AB0161E081E00E9477
:10071000C80143E251E065E081E00E94B7016AE070
:1007200081E00E947600BC0180E090E00E94F70426
:1007300026E636E64AEE51E40E9485052B013C018F
:100740000E94C80425E030E0AB016AE081E00E942D
:10075000C80148E251E06FE081E00E94B701A501C5
:100760009401C301B2010E94850520E030E04AE710
:1007700054E40E9456040E94C80425E030E0AB0116
:1007800061E082E00E94C8014BE251E066E082E055
:100790000E94B7016AE082E00E947600BC0180E01E
:1007A00090E00E94F70420E030E040EF50E40E9427
:1007B00085050E94C80424E030E0AB016BE082E0D4
:1007C0000E94C80148E251E06FE082E00E94B70158
:1007D0007ECF5058BB27AA270E9401040C944B05DA
:1007E0000E943D0538F00E94440520F039F49F3FF7
:1007F00019F426F40C943A050EF4E095E7FB0C94FA
:100800003405E92F0E945C0558F3BA176207730795
:100810008407950720F079F4A6F50C947E050EF474
:10082000E0950B2EBA2FA02D0B01B90190010C0100
:10083000CA01A0011124FF27591B99F0593F50F418
:10084000503E68F11A16F040A22F232F342F442770
:10085000585FF3CF469537952795A795F040539568
:10086000C9F77EF41F16BA0B620B730B840BBAF038
:100870009150A1F0FF0FBB1F661F771F881FC2F7A3
:100880000EC0BA0F621F731F841F48F487957795B7
:100890006795B795F7959E3F08F0B0CF9395880F71
:1008A00008F09927EE0F9795879508950E946A049E
:1008B0000C944B050E94440558F00E943D0540F001
:1008C00029F45F3F29F00C94340551110C947F05F5
:1008D0000C943A050E945C0568F39923B1F3552303
:1008E00091F3951B550BBB27AA2762177307840743
:1008F00038F09F5F5F4F220F331F441FAA1FA9F3D9
:1009000035D00E2E3AF0E0E832D091505040E695C6
:10091000001CCAF72BD0FE2F29D0660F771F881F27
:10092000BB1F261737074807AB07B0E809F0BB0B1A
:10093000802DBF01FF2793585F4F3AF09E3F51052E
:1009400078F00C9434050C947F055F3FE4F3983EF7
:10095000D4F3869577956795B795F7959F5FC9F717
:10096000880F911D9695879597F90895E1E0660F98
:10097000771F881FBB1F621773078407BA0720F011
:10098000621B730B840BBA0BEE1F88F7E09508957A
:100990000E94640588F09F5798F0B92F9927B751A6
:1009A000B0F0E1F0660F771F881F991F1AF0BA9513
:1009B000C9F714C0B13091F00E947E05B1E00895EE
:1009C0000C947E05672F782F8827B85F39F0B93FE0
:1009D000CCF3869577956795B395D9F73EF49095C6
:1009E0008095709561957F4F8F4F9F4F0895E89444
:1009F00009C097FB3EF490958095709561957F4F67
:100A00008F4F9F4F9923A9F0F92F96E9BB27939514
:100A1000F695879577956795B795F111F8CFFAF424
:100A2000BB0F11F460FF1BC06F5F7F4F8F4F9F4F55
:100A300016C0882311F096E911C0772321F09EE8B3
:100A4000872F762F05C0662371F096E8862F70E019
:100A500060E02AF09A95660F771F881FDAF7880FF3
:100A60009695879597F9089597F99F6780E870E0C4
:100A700060E008959FEF80EC089500240A94161614
:100A8000170618060906089500240A94121613067C
:100A9000140605060895092E0394000C11F488230A
:100AA00052F0BB0F40F4BF2B11F460FF04C06F5F26
:100AB0007F4F8F4F9F4F089557FD9058440F551FFC
:100AC00059F05F3F71F04795880F97FB991F61F0D0
:100AD0009F3F79F087950895121613061406551F47
:100AE000F2CF4695F1DF08C0161617061806991FB3
:100AF000F1CF86957105610508940895E894BB27A8
:100B000066277727CB0197F908950E9498050C94E2
:100B10004B050E943D0538F00E94440520F09523C6
:100B200011F00C9434050C943A0511240C947F05B3
:100B30000E945C0570F3959FC1F3950F50E0551F1F
:100B4000629FF001729FBB27F00DB11D639FAA2722
:100B5000F00DB11DAA1F649F6627B00DA11D661F71
:100B6000829F2227B00DA11D621F739FB00DA11D92
:100B7000621F839FA00D611D221F749F3327A00D4C
:100B8000611D231F849F600D211D822F762F6A2FE8
:100B900011249F5750409AF0F1F088234AF0EE0F4D
:100BA000FF1FBB1F661F771F881F91505040A9F77A
:100BB0009E3F510580F00C9434050C947F055F3FF7
:100BC000E4F3983ED4F3869577956795B795F795B6
:100BD000E7959F5FC1F7FE2B880F911D969587952E
:100BE00097F90895AA1BBB1B51E107C0AA1FBB1FA1
:100BF000A617B70710F0A61BB70B881F991F5A95A9
:100C0000A9F780959095BC01CD010895A29FB001F0
:100C1000B39FC001A39F700D811D1124911DB29F30
:0E0C2000700D811D1124911D0895F894FFCFD1
:100C2E0043434C00537570706C7920436F6E6E6544
:100C3E00637465640031327620537570706C792060
:0E0C4E004E43006D412020006D56006D570092
:00000001FF
